{
  "contractName": "bCHXToken",
  "abi": [
    {
      "inputs": [
        {
          "internalType": "address",
          "name": "_mappingContractAddress",
          "type": "address"
        }
      ],
      "stateMutability": "nonpayable",
      "type": "constructor"
    },
    {
      "anonymous": false,
      "inputs": [
        {
          "indexed": true,
          "internalType": "address",
          "name": "owner",
          "type": "address"
        },
        {
          "indexed": true,
          "internalType": "address",
          "name": "spender",
          "type": "address"
        },
        {
          "indexed": false,
          "internalType": "uint256",
          "name": "value",
          "type": "uint256"
        }
      ],
      "name": "Approval",
      "type": "event"
    },
    {
      "anonymous": false,
      "inputs": [
        {
          "indexed": true,
          "internalType": "address",
          "name": "previousOwner",
          "type": "address"
        },
        {
          "indexed": true,
          "internalType": "address",
          "name": "newOwner",
          "type": "address"
        }
      ],
      "name": "OwnershipTransferred",
      "type": "event"
    },
    {
      "anonymous": false,
      "inputs": [
        {
          "indexed": true,
          "internalType": "address",
          "name": "from",
          "type": "address"
        },
        {
          "indexed": true,
          "internalType": "address",
          "name": "to",
          "type": "address"
        },
        {
          "indexed": false,
          "internalType": "uint256",
          "name": "value",
          "type": "uint256"
        }
      ],
      "name": "Transfer",
      "type": "event"
    },
    {
      "anonymous": false,
      "inputs": [
        {
          "indexed": false,
          "internalType": "address",
          "name": "bscAddress",
          "type": "address"
        },
        {
          "indexed": false,
          "internalType": "string",
          "name": "chxAddress",
          "type": "string"
        },
        {
          "indexed": false,
          "internalType": "uint256",
          "name": "amount",
          "type": "uint256"
        }
      ],
      "name": "UnwrapChx",
      "type": "event"
    },
    {
      "anonymous": false,
      "inputs": [
        {
          "indexed": false,
          "internalType": "address",
          "name": "bscAddress",
          "type": "address"
        },
        {
          "indexed": false,
          "internalType": "string",
          "name": "chxAddress",
          "type": "string"
        },
        {
          "indexed": false,
          "internalType": "uint256",
          "name": "amount",
          "type": "uint256"
        }
      ],
      "name": "WrapChx",
      "type": "event"
    },
    {
      "inputs": [],
      "name": "addressMapping",
      "outputs": [
        {
          "internalType": "contract bCHXMapping",
          "name": "",
          "type": "address"
        }
      ],
      "stateMutability": "view",
      "type": "function"
    },
    {
      "inputs": [
        {
          "internalType": "address",
          "name": "owner",
          "type": "address"
        },
        {
          "internalType": "address",
          "name": "spender",
          "type": "address"
        }
      ],
      "name": "allowance",
      "outputs": [
        {
          "internalType": "uint256",
          "name": "",
          "type": "uint256"
        }
      ],
      "stateMutability": "view",
      "type": "function"
    },
    {
      "inputs": [
        {
          "internalType": "address",
          "name": "spender",
          "type": "address"
        },
        {
          "internalType": "uint256",
          "name": "amount",
          "type": "uint256"
        }
      ],
      "name": "approve",
      "outputs": [
        {
          "internalType": "bool",
          "name": "",
          "type": "bool"
        }
      ],
      "stateMutability": "nonpayable",
      "type": "function"
    },
    {
      "inputs": [
        {
          "internalType": "address",
          "name": "account",
          "type": "address"
        }
      ],
      "name": "balanceOf",
      "outputs": [
        {
          "internalType": "uint256",
          "name": "",
          "type": "uint256"
        }
      ],
      "stateMutability": "view",
      "type": "function"
    },
    {
      "inputs": [],
      "name": "cap",
      "outputs": [
        {
          "internalType": "uint256",
          "name": "",
          "type": "uint256"
        }
      ],
      "stateMutability": "view",
      "type": "function"
    },
    {
      "inputs": [],
      "name": "decimals",
      "outputs": [
        {
          "internalType": "uint8",
          "name": "",
          "type": "uint8"
        }
      ],
      "stateMutability": "view",
      "type": "function"
    },
    {
      "inputs": [
        {
          "internalType": "address",
          "name": "spender",
          "type": "address"
        },
        {
          "internalType": "uint256",
          "name": "subtractedValue",
          "type": "uint256"
        }
      ],
      "name": "decreaseAllowance",
      "outputs": [
        {
          "internalType": "bool",
          "name": "",
          "type": "bool"
        }
      ],
      "stateMutability": "nonpayable",
      "type": "function"
    },
    {
      "inputs": [],
      "name": "getOwner",
      "outputs": [
        {
          "internalType": "address",
          "name": "",
          "type": "address"
        }
      ],
      "stateMutability": "view",
      "type": "function"
    },
    {
      "inputs": [
        {
          "internalType": "address",
          "name": "spender",
          "type": "address"
        },
        {
          "internalType": "uint256",
          "name": "addedValue",
          "type": "uint256"
        }
      ],
      "name": "increaseAllowance",
      "outputs": [
        {
          "internalType": "bool",
          "name": "",
          "type": "bool"
        }
      ],
      "stateMutability": "nonpayable",
      "type": "function"
    },
    {
      "inputs": [],
      "name": "minWrapAmount",
      "outputs": [
        {
          "internalType": "uint256",
          "name": "",
          "type": "uint256"
        }
      ],
      "stateMutability": "view",
      "type": "function"
    },
    {
      "inputs": [],
      "name": "name",
      "outputs": [
        {
          "internalType": "string",
          "name": "",
          "type": "string"
        }
      ],
      "stateMutability": "view",
      "type": "function"
    },
    {
      "inputs": [],
      "name": "owner",
      "outputs": [
        {
          "internalType": "address",
          "name": "",
          "type": "address"
        }
      ],
      "stateMutability": "view",
      "type": "function"
    },
    {
      "inputs": [],
      "name": "renounceOwnership",
      "outputs": [],
      "stateMutability": "nonpayable",
      "type": "function"
    },
    {
      "inputs": [],
      "name": "symbol",
      "outputs": [
        {
          "internalType": "string",
          "name": "",
          "type": "string"
        }
      ],
      "stateMutability": "view",
      "type": "function"
    },
    {
      "inputs": [],
      "name": "totalSupply",
      "outputs": [
        {
          "internalType": "uint256",
          "name": "",
          "type": "uint256"
        }
      ],
      "stateMutability": "view",
      "type": "function"
    },
    {
      "inputs": [
        {
          "internalType": "address",
          "name": "newOwner",
          "type": "address"
        }
      ],
      "name": "transferOwnership",
      "outputs": [],
      "stateMutability": "nonpayable",
      "type": "function"
    },
    {
      "inputs": [
        {
          "internalType": "address",
          "name": "_bscAddress",
          "type": "address"
        }
      ],
      "name": "pendingUnwrapBalanceOf",
      "outputs": [
        {
          "internalType": "uint256",
          "name": "",
          "type": "uint256"
        }
      ],
      "stateMutability": "view",
      "type": "function"
    },
    {
      "inputs": [
        {
          "internalType": "address",
          "name": "_recipient",
          "type": "address"
        },
        {
          "internalType": "uint256",
          "name": "_amount",
          "type": "uint256"
        }
      ],
      "name": "transfer",
      "outputs": [
        {
          "internalType": "bool",
          "name": "",
          "type": "bool"
        }
      ],
      "stateMutability": "nonpayable",
      "type": "function"
    },
    {
      "inputs": [
        {
          "internalType": "address",
          "name": "_sender",
          "type": "address"
        },
        {
          "internalType": "address",
          "name": "_recipient",
          "type": "address"
        },
        {
          "internalType": "uint256",
          "name": "_amount",
          "type": "uint256"
        }
      ],
      "name": "transferFrom",
      "outputs": [
        {
          "internalType": "bool",
          "name": "",
          "type": "bool"
        }
      ],
      "stateMutability": "nonpayable",
      "type": "function"
    },
    {
      "inputs": [
        {
          "internalType": "string",
          "name": "_chxAddress",
          "type": "string"
        },
        {
          "internalType": "uint256",
          "name": "_amount",
          "type": "uint256"
        }
      ],
      "name": "burnUnwrapedTokens",
      "outputs": [],
      "stateMutability": "nonpayable",
      "type": "function"
    },
    {
      "inputs": [
        {
          "internalType": "string",
          "name": "_chxAddress",
          "type": "string"
        },
        {
          "internalType": "uint256",
          "name": "_revertAmount",
          "type": "uint256"
        },
        {
          "internalType": "uint256",
          "name": "_feeAmount",
          "type": "uint256"
        }
      ],
      "name": "revertUnwrapedTokens",
      "outputs": [],
      "stateMutability": "nonpayable",
      "type": "function"
    },
    {
      "inputs": [
        {
          "internalType": "string",
          "name": "_chxAddress",
          "type": "string"
        },
        {
          "internalType": "uint256",
          "name": "_amount",
          "type": "uint256"
        }
      ],
      "name": "wrap",
      "outputs": [],
      "stateMutability": "nonpayable",
      "type": "function"
    },
    {
      "inputs": [
        {
          "internalType": "uint256",
          "name": "_amount",
          "type": "uint256"
        }
      ],
      "name": "setMinWrapAmount",
      "outputs": [],
      "stateMutability": "nonpayable",
      "type": "function"
    },
    {
      "inputs": [
        {
          "internalType": "uint256",
          "name": "_amount",
          "type": "uint256"
        }
      ],
      "name": "drainStrayBNB",
      "outputs": [
        {
          "internalType": "bool",
          "name": "",
          "type": "bool"
        }
      ],
      "stateMutability": "nonpayable",
      "type": "function"
    },
    {
      "inputs": [
        {
          "internalType": "contract IBEP20",
          "name": "_token",
          "type": "address"
        },
        {
          "internalType": "uint256",
          "name": "_amount",
          "type": "uint256"
        }
      ],
      "name": "drainStrayTokens",
      "outputs": [
        {
          "internalType": "bool",
          "name": "",
          "type": "bool"
        }
      ],
      "stateMutability": "nonpayable",
      "type": "function"
    }
  ],
  "bytecode": "0x60806040523480156200001157600080fd5b506040516200379c3803806200379c833981810160405260208110156200003757600080fd5b81019080805190602001909291905050506040518060400160405280601581526020017f42696e616e63652d5065672043485820546f6b656e00000000000000000000008152506040518060400160405280600481526020017f624348580000000000000000000000000000000000000000000000000000000081525060076000660600a68ed1851c6000620000d26200036260201b60201c565b9050806000806101000a81548173ffffffffffffffffffffffffffffffffffffffff021916908373ffffffffffffffffffffffffffffffffffffffff1602179055508073ffffffffffffffffffffffffffffffffffffffff16600073ffffffffffffffffffffffffffffffffffffffff167f8be0079c531659141344cd1fd0a4f28419497f9722a3daafe3b4186f6b6457e060405160405180910390a35060008111620001e7576040517f08c379a00000000000000000000000000000000000000000000000000000000081526004018080602001828103825260168152602001807f4942455032304361707065643a2063617020697320300000000000000000000081525060200191505060405180910390fd5b8460079080519060200190620001ff929190620003f5565b50836006908051906020019062000218929190620003f5565b5082600560006101000a81548160ff021916908360ff1602179055508160048190555080600381905550600454600160003373ffffffffffffffffffffffffffffffffffffffff1673ffffffffffffffffffffffffffffffffffffffff168152602001908152602001600020819055503373ffffffffffffffffffffffffffffffffffffffff16600073ffffffffffffffffffffffffffffffffffffffff167fddf252ad1be2c89b69c2b068fc378daa952ba7f163c4a11628f55a4df523b3ef6004546040518082815260200191505060405180910390a3505050505080600860006101000a81548173ffffffffffffffffffffffffffffffffffffffff021916908373ffffffffffffffffffffffffffffffffffffffff16021790555062000355629896806103e86200036a60201b62002fb61790919060201c565b60098190555050620004a4565b600033905090565b6000808314156200037f5760009050620003ef565b60008284029050828482816200039157fe5b0414620003ea576040517f08c379a00000000000000000000000000000000000000000000000000000000081526004018080602001828103825260218152602001806200377b6021913960400191505060405180910390fd5b809150505b92915050565b828054600181600116156101000203166002900490600052602060002090601f016020900481019282601f106200043857805160ff191683800117855562000469565b8280016001018555821562000469579182015b82811115620004685782518255916020019190600101906200044b565b5b5090506200047891906200047c565b5090565b620004a191905b808211156200049d57600081600090555060010162000483565b5090565b90565b6132c780620004b46000396000f3fe608060405234801561001057600080fd5b50600436106101735760003560e01c8063893d20e8116100de578063a9059cbb11610097578063d1eecc3411610071578063d1eecc341461087e578063dd62ed3e14610901578063e991fb2714610979578063f2fde38b1461099757610173565b8063a9059cbb14610776578063af80b113146107dc578063c57d4b931461083457610173565b8063893d20e81461053e5780638da5cb5b1461058857806392103e1e146105d257806395d89b411461065f5780639cc65a55146106e2578063a457c2d71461071057610173565b8063355274ea11610130578063355274ea1461038f57806339509351146103ad5780633cc7ec81146104135780633df82e4e1461045957806370a08231146104dc578063715018a61461053457610173565b8063050b8c661461017857806306fdde03146101de578063095ea7b31461026157806318160ddd146102c757806323b872dd146102e5578063313ce5671461036b575b600080fd5b6101c46004803603604081101561018e57600080fd5b81019080803573ffffffffffffffffffffffffffffffffffffffff169060200190929190803590602001909291905050506109db565b604051808215151515815260200191505060405180910390f35b6101e6610c19565b6040518080602001828103825283818151815260200191508051906020019080838360005b8381101561022657808201518184015260208101905061020b565b50505050905090810190601f1680156102535780820380516001836020036101000a031916815260200191505b509250505060405180910390f35b6102ad6004803603604081101561027757600080fd5b81019080803573ffffffffffffffffffffffffffffffffffffffff16906020019092919080359060200190929190505050610cbb565b604051808215151515815260200191505060405180910390f35b6102cf610cd9565b6040518082815260200191505060405180910390f35b610351600480360360608110156102fb57600080fd5b81019080803573ffffffffffffffffffffffffffffffffffffffff169060200190929190803573ffffffffffffffffffffffffffffffffffffffff16906020019092919080359060200190929190505050610ce3565b604051808215151515815260200191505060405180910390f35b610373610ddd565b604051808260ff1660ff16815260200191505060405180910390f35b610397610df4565b6040518082815260200191505060405180910390f35b6103f9600480360360408110156103c357600080fd5b81019080803573ffffffffffffffffffffffffffffffffffffffff16906020019092919080359060200190929190505050610dfe565b604051808215151515815260200191505060405180910390f35b61043f6004803603602081101561042957600080fd5b8101908080359060200190929190505050610eb1565b604051808215151515815260200191505060405180910390f35b6104da6004803603604081101561046f57600080fd5b810190808035906020019064010000000081111561048c57600080fd5b82018360208201111561049e57600080fd5b803590602001918460018302840111640100000000831117156104c057600080fd5b909192939192939080359060200190929190505050610fd3565b005b61051e600480360360208110156104f257600080fd5b81019080803573ffffffffffffffffffffffffffffffffffffffff1690602001909291905050506112af565b6040518082815260200191505060405180910390f35b61053c6112f8565b005b610546611480565b604051808273ffffffffffffffffffffffffffffffffffffffff1673ffffffffffffffffffffffffffffffffffffffff16815260200191505060405180910390f35b61059061148f565b604051808273ffffffffffffffffffffffffffffffffffffffff1673ffffffffffffffffffffffffffffffffffffffff16815260200191505060405180910390f35b61065d600480360360608110156105e857600080fd5b810190808035906020019064010000000081111561060557600080fd5b82018360208201111561061757600080fd5b8035906020019184600183028401116401000000008311171561063957600080fd5b909192939192939080359060200190929190803590602001909291905050506114b8565b005b6106676117c8565b6040518080602001828103825283818151815260200191508051906020019080838360005b838110156106a757808201518184015260208101905061068c565b50505050905090810190601f1680156106d45780820380516001836020036101000a031916815260200191505b509250505060405180910390f35b61070e600480360360208110156106f857600080fd5b810190808035906020019092919050505061186a565b005b61075c6004803603604081101561072657600080fd5b81019080803573ffffffffffffffffffffffffffffffffffffffff1690602001909291908035906020019092919050505061193d565b604051808215151515815260200191505060405180910390f35b6107c26004803603604081101561078c57600080fd5b81019080803573ffffffffffffffffffffffffffffffffffffffff16906020019092919080359060200190929190505050611a0a565b604051808215151515815260200191505060405180910390f35b61081e600480360360208110156107f257600080fd5b81019080803573ffffffffffffffffffffffffffffffffffffffff169060200190929190505050611b17565b6040518082815260200191505060405180910390f35b61083c611b60565b604051808273ffffffffffffffffffffffffffffffffffffffff1673ffffffffffffffffffffffffffffffffffffffff16815260200191505060405180910390f35b6108ff6004803603604081101561089457600080fd5b81019080803590602001906401000000008111156108b157600080fd5b8201836020820111156108c357600080fd5b803590602001918460018302840111640100000000831117156108e557600080fd5b909192939192939080359060200190929190505050611b86565b005b6109636004803603604081101561091757600080fd5b81019080803573ffffffffffffffffffffffffffffffffffffffff169060200190929190803573ffffffffffffffffffffffffffffffffffffffff169060200190929190505050611e72565b6040518082815260200191505060405180910390f35b610981611ef9565b6040518082815260200191505060405180910390f35b6109d9600480360360208110156109ad57600080fd5b81019080803573ffffffffffffffffffffffffffffffffffffffff169060200190929190505050611eff565b005b60006109e561210c565b73ffffffffffffffffffffffffffffffffffffffff166000809054906101000a900473ffffffffffffffffffffffffffffffffffffffff1673ffffffffffffffffffffffffffffffffffffffff1614610aa6576040517f08c379a00000000000000000000000000000000000000000000000000000000081526004018080602001828103825260208152602001807f4f776e61626c653a2063616c6c6572206973206e6f7420746865206f776e657281525060200191505060405180910390fd5b3073ffffffffffffffffffffffffffffffffffffffff168373ffffffffffffffffffffffffffffffffffffffff161415610b48576040517f08c379a00000000000000000000000000000000000000000000000000000000081526004018080602001828103825260168152602001807f624348582063616e6e6f7420626520647261696e65640000000000000000000081525060200191505060405180910390fd5b8273ffffffffffffffffffffffffffffffffffffffff1663a9059cbb610b6c61148f565b846040518363ffffffff1660e01b8152600401808373ffffffffffffffffffffffffffffffffffffffff1673ffffffffffffffffffffffffffffffffffffffff16815260200182815260200192505050602060405180830381600087803b158015610bd657600080fd5b505af1158015610bea573d6000803e3d6000fd5b505050506040513d6020811015610c0057600080fd5b8101908080519060200190929190505050905092915050565b606060078054600181600116156101000203166002900480601f016020809104026020016040519081016040528092919081815260200182805460018160011615610100020316600290048015610cb15780601f10610c8657610100808354040283529160200191610cb1565b820191906000526020600020905b815481529060010190602001808311610c9457829003601f168201915b5050505050905090565b6000610ccf610cc861210c565b8484612114565b6001905092915050565b6000600454905090565b6000610cf084848461230b565b6000610cfd858585612670565b9050808015610d3757503073ffffffffffffffffffffffffffffffffffffffff168473ffffffffffffffffffffffffffffffffffffffff16145b15610dd257610d8e83600a60008873ffffffffffffffffffffffffffffffffffffffff1673ffffffffffffffffffffffffffffffffffffffff1681526020019081526020016000205461274990919063ffffffff16565b600a60008773ffffffffffffffffffffffffffffffffffffffff1673ffffffffffffffffffffffffffffffffffffffff168152602001908152602001600020819055505b809150509392505050565b6000600560009054906101000a900460ff16905090565b6000600354905090565b6000610ea7610e0b61210c565b84610ea28560026000610e1c61210c565b73ffffffffffffffffffffffffffffffffffffffff1673ffffffffffffffffffffffffffffffffffffffff16815260200190815260200160002060008973ffffffffffffffffffffffffffffffffffffffff1673ffffffffffffffffffffffffffffffffffffffff1681526020019081526020016000205461274990919063ffffffff16565b612114565b6001905092915050565b6000610ebb61210c565b73ffffffffffffffffffffffffffffffffffffffff166000809054906101000a900473ffffffffffffffffffffffffffffffffffffffff1673ffffffffffffffffffffffffffffffffffffffff1614610f7c576040517f08c379a00000000000000000000000000000000000000000000000000000000081526004018080602001828103825260208152602001807f4f776e61626c653a2063616c6c6572206973206e6f7420746865206f776e657281525060200191505060405180910390fd5b610f8461148f565b73ffffffffffffffffffffffffffffffffffffffff166108fc839081150290604051600060405180830381858888f19350505050158015610fc9573d6000803e3d6000fd5b5060019050919050565b610fdb61210c565b73ffffffffffffffffffffffffffffffffffffffff166000809054906101000a900473ffffffffffffffffffffffffffffffffffffffff1673ffffffffffffffffffffffffffffffffffffffff161461109c576040517f08c379a00000000000000000000000000000000000000000000000000000000081526004018080602001828103825260208152602001807f4f776e61626c653a2063616c6c6572206973206e6f7420746865206f776e657281525060200191505060405180910390fd5b6000600860009054906101000a900473ffffffffffffffffffffffffffffffffffffffff1673ffffffffffffffffffffffffffffffffffffffff1663a8d3ec0185856040518363ffffffff1660e01b815260040180806020018281038252848482818152602001925080828437600081840152601f19601f820116905080830192505050935050505060206040518083038186803b15801561113d57600080fd5b505afa158015611151573d6000803e3d6000fd5b505050506040513d602081101561116757600080fd5b81019080805190602001909291905050509050600073ffffffffffffffffffffffffffffffffffffffff168173ffffffffffffffffffffffffffffffffffffffff161415611200576040517f08c379a00000000000000000000000000000000000000000000000000000000081526004018080602001828103825260288152602001806130d06028913960400191505060405180910390fd5b7f2468f62c8dd25e8a8a9eab630f96124ba96abd008e4407bec46dc4598ae339a781858585604051808573ffffffffffffffffffffffffffffffffffffffff1673ffffffffffffffffffffffffffffffffffffffff168152602001806020018381526020018281038252858582818152602001925080828437600081840152601f19601f8201169050808301925050509550505050505060405180910390a16112a981836127d1565b50505050565b6000600160008373ffffffffffffffffffffffffffffffffffffffff1673ffffffffffffffffffffffffffffffffffffffff168152602001908152602001600020549050919050565b61130061210c565b73ffffffffffffffffffffffffffffffffffffffff166000809054906101000a900473ffffffffffffffffffffffffffffffffffffffff1673ffffffffffffffffffffffffffffffffffffffff16146113c1576040517f08c379a00000000000000000000000000000000000000000000000000000000081526004018080602001828103825260208152602001807f4f776e61626c653a2063616c6c6572206973206e6f7420746865206f776e657281525060200191505060405180910390fd5b600073ffffffffffffffffffffffffffffffffffffffff166000809054906101000a900473ffffffffffffffffffffffffffffffffffffffff1673ffffffffffffffffffffffffffffffffffffffff167f8be0079c531659141344cd1fd0a4f28419497f9722a3daafe3b4186f6b6457e060405160405180910390a360008060006101000a81548173ffffffffffffffffffffffffffffffffffffffff021916908373ffffffffffffffffffffffffffffffffffffffff160217905550565b600061148a61148f565b905090565b60008060009054906101000a900473ffffffffffffffffffffffffffffffffffffffff16905090565b6114c061210c565b73ffffffffffffffffffffffffffffffffffffffff166000809054906101000a900473ffffffffffffffffffffffffffffffffffffffff1673ffffffffffffffffffffffffffffffffffffffff1614611581576040517f08c379a00000000000000000000000000000000000000000000000000000000081526004018080602001828103825260208152602001807f4f776e61626c653a2063616c6c6572206973206e6f7420746865206f776e657281525060200191505060405180910390fd5b6000600860009054906101000a900473ffffffffffffffffffffffffffffffffffffffff1673ffffffffffffffffffffffffffffffffffffffff1663a8d3ec0186866040518363ffffffff1660e01b815260040180806020018281038252848482818152602001925080828437600081840152601f19601f820116905080830192505050935050505060206040518083038186803b15801561162257600080fd5b505afa158015611636573d6000803e3d6000fd5b505050506040513d602081101561164c57600080fd5b81019080805190602001909291905050509050600073ffffffffffffffffffffffffffffffffffffffff168173ffffffffffffffffffffffffffffffffffffffff1614156116e5576040517f08c379a00000000000000000000000000000000000000000000000000000000081526004018080602001828103825260288152602001806130d06028913960400191505060405180910390fd5b60006116fa838561274990919063ffffffff16565b9050611768816040518060600160405280602b8152602001613120602b9139600a60008673ffffffffffffffffffffffffffffffffffffffff1673ffffffffffffffffffffffffffffffffffffffff16815260200190815260200160002054612a1a9092919063ffffffff16565b600a60008473ffffffffffffffffffffffffffffffffffffffff1673ffffffffffffffffffffffffffffffffffffffff168152602001908152602001600020819055506117b53084612ada565b6117c0308386612c94565b505050505050565b606060068054600181600116156101000203166002900480601f0160208091040260200160405190810160405280929190818152602001828054600181600116156101000203166002900480156118605780601f1061183557610100808354040283529160200191611860565b820191906000526020600020905b81548152906001019060200180831161184357829003601f168201915b5050505050905090565b61187261210c565b73ffffffffffffffffffffffffffffffffffffffff166000809054906101000a900473ffffffffffffffffffffffffffffffffffffffff1673ffffffffffffffffffffffffffffffffffffffff1614611933576040517f08c379a00000000000000000000000000000000000000000000000000000000081526004018080602001828103825260208152602001807f4f776e61626c653a2063616c6c6572206973206e6f7420746865206f776e657281525060200191505060405180910390fd5b8060098190555050565b6000611a0061194a61210c565b846119fb856040518060600160405280602581526020016131de602591396002600061197461210c565b73ffffffffffffffffffffffffffffffffffffffff1673ffffffffffffffffffffffffffffffffffffffff16815260200190815260200160002060008a73ffffffffffffffffffffffffffffffffffffffff1673ffffffffffffffffffffffffffffffffffffffff16815260200190815260200160002054612a1a9092919063ffffffff16565b612114565b6001905092915050565b6000611a1e611a1761210c565b848461230b565b6000611a2a8484612f4e565b9050808015611a6457503073ffffffffffffffffffffffffffffffffffffffff168473ffffffffffffffffffffffffffffffffffffffff16145b15611b0d57611ac283600a6000611a7961210c565b73ffffffffffffffffffffffffffffffffffffffff1673ffffffffffffffffffffffffffffffffffffffff1681526020019081526020016000205461274990919063ffffffff16565b600a6000611ace61210c565b73ffffffffffffffffffffffffffffffffffffffff1673ffffffffffffffffffffffffffffffffffffffff168152602001908152602001600020819055505b8091505092915050565b6000600a60008373ffffffffffffffffffffffffffffffffffffffff1673ffffffffffffffffffffffffffffffffffffffff168152602001908152602001600020549050919050565b600860009054906101000a900473ffffffffffffffffffffffffffffffffffffffff1681565b611b8e61210c565b73ffffffffffffffffffffffffffffffffffffffff166000809054906101000a900473ffffffffffffffffffffffffffffffffffffffff1673ffffffffffffffffffffffffffffffffffffffff1614611c4f576040517f08c379a00000000000000000000000000000000000000000000000000000000081526004018080602001828103825260208152602001807f4f776e61626c653a2063616c6c6572206973206e6f7420746865206f776e657281525060200191505060405180910390fd5b6000600860009054906101000a900473ffffffffffffffffffffffffffffffffffffffff1673ffffffffffffffffffffffffffffffffffffffff1663a8d3ec0185856040518363ffffffff1660e01b815260040180806020018281038252848482818152602001925080828437600081840152601f19601f820116905080830192505050935050505060206040518083038186803b158015611cf057600080fd5b505afa158015611d04573d6000803e3d6000fd5b505050506040513d6020811015611d1a57600080fd5b81019080805190602001909291905050509050600073ffffffffffffffffffffffffffffffffffffffff168173ffffffffffffffffffffffffffffffffffffffff161415611db3576040517f08c379a00000000000000000000000000000000000000000000000000000000081526004018080602001828103825260288152602001806130d06028913960400191505060405180910390fd5b611e1f826040518060600160405280602a8152602001613224602a9139600a60008573ffffffffffffffffffffffffffffffffffffffff1673ffffffffffffffffffffffffffffffffffffffff16815260200190815260200160002054612a1a9092919063ffffffff16565b600a60008373ffffffffffffffffffffffffffffffffffffffff1673ffffffffffffffffffffffffffffffffffffffff16815260200190815260200160002081905550611e6c3083612ada565b50505050565b6000600260008473ffffffffffffffffffffffffffffffffffffffff1673ffffffffffffffffffffffffffffffffffffffff16815260200190815260200160002060008373ffffffffffffffffffffffffffffffffffffffff1673ffffffffffffffffffffffffffffffffffffffff16815260200190815260200160002054905092915050565b60095481565b611f0761210c565b73ffffffffffffffffffffffffffffffffffffffff166000809054906101000a900473ffffffffffffffffffffffffffffffffffffffff1673ffffffffffffffffffffffffffffffffffffffff1614611fc8576040517f08c379a00000000000000000000000000000000000000000000000000000000081526004018080602001828103825260208152602001807f4f776e61626c653a2063616c6c6572206973206e6f7420746865206f776e657281525060200191505060405180910390fd5b600073ffffffffffffffffffffffffffffffffffffffff168173ffffffffffffffffffffffffffffffffffffffff16141561204e576040517f08c379a00000000000000000000000000000000000000000000000000000000081526004018080602001828103825260268152602001806130aa6026913960400191505060405180910390fd5b8073ffffffffffffffffffffffffffffffffffffffff166000809054906101000a900473ffffffffffffffffffffffffffffffffffffffff1673ffffffffffffffffffffffffffffffffffffffff167f8be0079c531659141344cd1fd0a4f28419497f9722a3daafe3b4186f6b6457e060405160405180910390a3806000806101000a81548173ffffffffffffffffffffffffffffffffffffffff021916908373ffffffffffffffffffffffffffffffffffffffff16021790555050565b600033905090565b600073ffffffffffffffffffffffffffffffffffffffff168373ffffffffffffffffffffffffffffffffffffffff16141561219a576040517f08c379a00000000000000000000000000000000000000000000000000000000081526004018080602001828103825260248152602001806130626024913960400191505060405180910390fd5b600073ffffffffffffffffffffffffffffffffffffffff168273ffffffffffffffffffffffffffffffffffffffff161415612220576040517f08c379a00000000000000000000000000000000000000000000000000000000081526004018080602001828103825260228152602001806132706022913960400191505060405180910390fd5b80600260008573ffffffffffffffffffffffffffffffffffffffff1673ffffffffffffffffffffffffffffffffffffffff16815260200190815260200160002060008473ffffffffffffffffffffffffffffffffffffffff1673ffffffffffffffffffffffffffffffffffffffff168152602001908152602001600020819055508173ffffffffffffffffffffffffffffffffffffffff168373ffffffffffffffffffffffffffffffffffffffff167f8c5be1e5ebec7d5bd14f71427d1e84f3dd0314c0f7b2291e5b200ac8c7c3b925836040518082815260200191505060405180910390a3505050565b3073ffffffffffffffffffffffffffffffffffffffff168273ffffffffffffffffffffffffffffffffffffffff16141561266b5760095481101561239a576040517f08c379a000000000000000000000000000000000000000000000000000000000815260040180806020018281038252602981526020018061314b6029913960400191505060405180910390fd5b6060600860009054906101000a900473ffffffffffffffffffffffffffffffffffffffff1673ffffffffffffffffffffffffffffffffffffffff166360b90acf856040518263ffffffff1660e01b8152600401808273ffffffffffffffffffffffffffffffffffffffff1673ffffffffffffffffffffffffffffffffffffffff16815260200191505060006040518083038186803b15801561243b57600080fd5b505afa15801561244f573d6000803e3d6000fd5b505050506040513d6000823e3d601f19601f82011682018060405250602081101561247957600080fd5b810190808051604051939291908464010000000082111561249957600080fd5b838201915060208201858111156124af57600080fd5b82518660018202830111640100000000821117156124cc57600080fd5b8083526020830192505050908051906020019080838360005b838110156125005780820151818401526020810190506124e5565b50505050905090810190601f16801561252d5780820380516001836020036101000a031916815260200191505b506040525050509050600081511415612591576040517f08c379a00000000000000000000000000000000000000000000000000000000081526004018080602001828103825260248152602001806130866024913960400191505060405180910390fd5b7f5050e3f95833615c462f69b2eb9210cf8e7148cb88b542c0c05066a539560e86848284604051808473ffffffffffffffffffffffffffffffffffffffff1673ffffffffffffffffffffffffffffffffffffffff16815260200180602001838152602001828103825284818151815260200191508051906020019080838360005b8381101561262d578082015181840152602081019050612612565b50505050905090810190601f16801561265a5780820380516001836020036101000a031916815260200191505b5094505050505060405180910390a1505b505050565b600061267d848484612c94565b61273e8461268961210c565b612739856040518060600160405280602881526020016130f860289139600260008b73ffffffffffffffffffffffffffffffffffffffff1673ffffffffffffffffffffffffffffffffffffffff16815260200190815260200160002060006126ef61210c565b73ffffffffffffffffffffffffffffffffffffffff1673ffffffffffffffffffffffffffffffffffffffff16815260200190815260200160002054612a1a9092919063ffffffff16565b612114565b600190509392505050565b6000808284019050838110156127c7576040517f08c379a000000000000000000000000000000000000000000000000000000000815260040180806020018281038252601b8152602001807f536166654d6174683a206164646974696f6e206f766572666c6f77000000000081525060200191505060405180910390fd5b8091505092915050565b600073ffffffffffffffffffffffffffffffffffffffff168273ffffffffffffffffffffffffffffffffffffffff161415612874576040517f08c379a000000000000000000000000000000000000000000000000000000000815260040180806020018281038252601f8152602001807f42455032303a206d696e7420746f20746865207a65726f20616464726573730081525060200191505060405180910390fd5b60035461288c8260045461274990919063ffffffff16565b1115612900576040517f08c379a00000000000000000000000000000000000000000000000000000000081526004018080602001828103825260198152602001807f45524332304361707065643a206361702065786365656465640000000000000081525060200191505060405180910390fd5b6129158160045461274990919063ffffffff16565b60048190555061296d81600160008573ffffffffffffffffffffffffffffffffffffffff1673ffffffffffffffffffffffffffffffffffffffff1681526020019081526020016000205461274990919063ffffffff16565b600160008473ffffffffffffffffffffffffffffffffffffffff1673ffffffffffffffffffffffffffffffffffffffff168152602001908152602001600020819055508173ffffffffffffffffffffffffffffffffffffffff16600073ffffffffffffffffffffffffffffffffffffffff167fddf252ad1be2c89b69c2b068fc378daa952ba7f163c4a11628f55a4df523b3ef836040518082815260200191505060405180910390a35050565b6000838311158290612ac7576040517f08c379a00000000000000000000000000000000000000000000000000000000081526004018080602001828103825283818151815260200191508051906020019080838360005b83811015612a8c578082015181840152602081019050612a71565b50505050905090810190601f168015612ab95780820380516001836020036101000a031916815260200191505b509250505060405180910390fd5b5060008385039050809150509392505050565b600073ffffffffffffffffffffffffffffffffffffffff168273ffffffffffffffffffffffffffffffffffffffff161415612b60576040517f08c379a00000000000000000000000000000000000000000000000000000000081526004018080602001828103825260218152602001806132036021913960400191505060405180910390fd5b612bcc8160405180606001604052806022815260200161324e60229139600160008673ffffffffffffffffffffffffffffffffffffffff1673ffffffffffffffffffffffffffffffffffffffff16815260200190815260200160002054612a1a9092919063ffffffff16565b600160008473ffffffffffffffffffffffffffffffffffffffff1673ffffffffffffffffffffffffffffffffffffffff16815260200190815260200160002081905550612c2481600454612f6c90919063ffffffff16565b600481905550600073ffffffffffffffffffffffffffffffffffffffff168273ffffffffffffffffffffffffffffffffffffffff167fddf252ad1be2c89b69c2b068fc378daa952ba7f163c4a11628f55a4df523b3ef836040518082815260200191505060405180910390a35050565b600073ffffffffffffffffffffffffffffffffffffffff168373ffffffffffffffffffffffffffffffffffffffff161415612d1a576040517f08c379a000000000000000000000000000000000000000000000000000000000815260040180806020018281038252602581526020018061303d6025913960400191505060405180910390fd5b600073ffffffffffffffffffffffffffffffffffffffff168273ffffffffffffffffffffffffffffffffffffffff161415612da0576040517f08c379a00000000000000000000000000000000000000000000000000000000081526004018080602001828103825260238152602001806131bb6023913960400191505060405180910390fd5b612e0c8160405180606001604052806026815260200161319560269139600160008773ffffffffffffffffffffffffffffffffffffffff1673ffffffffffffffffffffffffffffffffffffffff16815260200190815260200160002054612a1a9092919063ffffffff16565b600160008573ffffffffffffffffffffffffffffffffffffffff1673ffffffffffffffffffffffffffffffffffffffff16815260200190815260200160002081905550612ea181600160008573ffffffffffffffffffffffffffffffffffffffff1673ffffffffffffffffffffffffffffffffffffffff1681526020019081526020016000205461274990919063ffffffff16565b600160008473ffffffffffffffffffffffffffffffffffffffff1673ffffffffffffffffffffffffffffffffffffffff168152602001908152602001600020819055508173ffffffffffffffffffffffffffffffffffffffff168373ffffffffffffffffffffffffffffffffffffffff167fddf252ad1be2c89b69c2b068fc378daa952ba7f163c4a11628f55a4df523b3ef836040518082815260200191505060405180910390a3505050565b6000612f62612f5b61210c565b8484612c94565b6001905092915050565b6000612fae83836040518060400160405280601e81526020017f536166654d6174683a207375627472616374696f6e206f766572666c6f770000815250612a1a565b905092915050565b600080831415612fc95760009050613036565b6000828402905082848281612fda57fe5b0414613031576040517f08c379a00000000000000000000000000000000000000000000000000000000081526004018080602001828103825260218152602001806131746021913960400191505060405180910390fd5b809150505b9291505056fe42455032303a207472616e736665722066726f6d20746865207a65726f206164647265737342455032303a20617070726f76652066726f6d20746865207a65726f206164647265737341646472657373206973206e6f74206d617070656420746f2043485820616464726573734f776e61626c653a206e6577206f776e657220697320746865207a65726f20616464726573734348582061646472657373206973206e6f74206d617070656420746f20425343206164647265737342455032303a207472616e7366657220616d6f756e74206578636565647320616c6c6f77616e6365546f74616c20616d6f756e74206578636565647320756e77726170656420746f6b656e2062616c616e6365416d6f756e74206d7573742062652067726561746572207468616e206d696e57726170416d6f756e74536166654d6174683a206d756c7469706c69636174696f6e206f766572666c6f7742455032303a207472616e7366657220616d6f756e7420657863656564732062616c616e636542455032303a207472616e7366657220746f20746865207a65726f206164647265737342455032303a2064656372656173656420616c6c6f77616e63652062656c6f77207a65726f42455032303a206275726e2066726f6d20746865207a65726f20616464726573734275726e20616d6f756e74206578636565647320756e77726170656420746f6b656e2062616c616e636542455032303a206275726e20616d6f756e7420657863656564732062616c616e636542455032303a20617070726f766520746f20746865207a65726f2061646472657373a2646970667358221220b0ef66ed658c66c0fb740ed01f4c0e62e870d4b2e6481878d879fea72611026264736f6c63430006000033536166654d6174683a206d756c7469706c69636174696f6e206f766572666c6f77",
  "source": "pragma solidity 0.6.0;\r\n\r\nimport '@openzeppelin/contracts/math/SafeMath.sol';\r\nimport \"@openzeppelin/contracts/access/Ownable.sol\";\r\nimport \"../interfaces/IBEP20.sol\";\r\nimport './bCHXMapping.sol';\r\nimport './BEP20Token.sol';\r\n\r\ncontract bCHXToken is BEP20Token {\r\n    using SafeMath for uint;\r\n    event UnwrapChx(address bscAddress, string chxAddress, uint amount);\r\n    event WrapChx(address bscAddress, string chxAddress, uint amount);\r\n\r\n    bCHXMapping public addressMapping;\r\n    uint public minWrapAmount;\r\n    mapping (address => uint) private pendingUnwrapBalances;\r\n\r\n    constructor(address _mappingContractAddress)\r\n        BEP20Token(\"Binance-Peg CHX Token\", \"bCHX\", 7, uint(0), uint(1689565220930844))\r\n        public\r\n    {\r\n        addressMapping = bCHXMapping(_mappingContractAddress);\r\n        minWrapAmount = uint(1000).mul(1e7);\r\n    }\r\n\r\n    function pendingUnwrapBalanceOf(address _bscAddress) \r\n        external \r\n        view \r\n        returns (uint) \r\n    {\r\n        return pendingUnwrapBalances[_bscAddress];\r\n    }\r\n\r\n    ////////////////////////////////////////////////////////////////////////////////////////////////////\r\n    // Transfers\r\n    ////////////////////////////////////////////////////////////////////////////////////////////////////\r\n\r\n    function transfer(address _recipient, uint _amount)\r\n        public\r\n        override\r\n        returns (bool)\r\n    {\r\n        validateAndLogUnwrap(_msgSender(), _recipient, _amount);\r\n\r\n        bool isSuccess = super.transfer(_recipient, _amount);\r\n\r\n        if (isSuccess && _recipient == address(this)) {\r\n            pendingUnwrapBalances[_msgSender()] = pendingUnwrapBalances[_msgSender()].add(_amount);\r\n        }\r\n\r\n        return isSuccess;\r\n    }\r\n\r\n    function transferFrom(address _sender, address _recipient, uint256 _amount)\r\n        public\r\n        override\r\n        returns (bool)\r\n    {\r\n        validateAndLogUnwrap(_sender, _recipient, _amount);\r\n\r\n        bool isSuccess = super.transferFrom(_sender, _recipient, _amount);\r\n\r\n        if (isSuccess && _recipient == address(this)) {\r\n            pendingUnwrapBalances[_sender] = pendingUnwrapBalances[_sender].add(_amount);\r\n        }\r\n\r\n        return isSuccess;\r\n    }\r\n\r\n    function validateAndLogUnwrap(address _sender, address _recipient, uint256 _amount) \r\n        private\r\n    {\r\n        if (_recipient == address(this)) {\r\n            require(_amount >= minWrapAmount, \"Amount must be greater than minWrapAmount\");\r\n            string memory chxAddress = addressMapping.chxAddress(_sender);\r\n            require(bytes(chxAddress).length != 0, \"Address is not mapped to CHX address\");\r\n            emit UnwrapChx(_sender, chxAddress, _amount);\r\n        }\r\n    }\r\n\r\n    ////////////////////////////////////////////////////////////////////////////////////////////////////\r\n    // Wrapping logic\r\n    ////////////////////////////////////////////////////////////////////////////////////////////////////\r\n\r\n    function burnUnwrapedTokens(string calldata _chxAddress, uint _amount)\r\n        external\r\n        onlyOwner\r\n    {\r\n        address bscAddress = addressMapping.bscAddress(_chxAddress);\r\n        require(bscAddress != address(0), \"CHX address is not mapped to BSC address\");\r\n\r\n        pendingUnwrapBalances[bscAddress] = pendingUnwrapBalances[bscAddress].sub(_amount, \"Burn amount exceeds unwraped token balance\");\r\n        _burn(address(this), _amount);\r\n    }\r\n\r\n    function revertUnwrapedTokens(string calldata _chxAddress, uint _revertAmount, uint _feeAmount)\r\n        external\r\n        onlyOwner\r\n    {\r\n        address bscAddress = addressMapping.bscAddress(_chxAddress);\r\n        require(bscAddress != address(0), \"CHX address is not mapped to BSC address\");\r\n\r\n        uint totalAmount = _revertAmount.add(_feeAmount);\r\n        pendingUnwrapBalances[bscAddress] = pendingUnwrapBalances[bscAddress].sub(totalAmount, \"Total amount exceeds unwraped token balance\");\r\n        _burn(address(this), _feeAmount);\r\n        _transfer(address(this), bscAddress, _revertAmount);\r\n    }\r\n\r\n    function wrap(string calldata _chxAddress, uint _amount)\r\n        external\r\n        onlyOwner\r\n    {\r\n        address bscAddress = addressMapping.bscAddress(_chxAddress);\r\n        require(bscAddress != address(0), \"CHX address is not mapped to BSC address\");\r\n        emit WrapChx(bscAddress, _chxAddress, _amount);\r\n\r\n        _mint(bscAddress, _amount);\r\n    }\r\n\r\n    function setMinWrapAmount(uint _amount)\r\n        external\r\n        onlyOwner\r\n    {\r\n        minWrapAmount = _amount;\r\n    }\r\n\r\n    ////////////////////////////////////////////////////////////////////////////////////////////////////\r\n    // Miscellaneous\r\n    ////////////////////////////////////////////////////////////////////////////////////////////////////\r\n\r\n    // Enable recovery of BNB sent by mistake to this contract's address.\r\n    function drainStrayBNB(uint _amount)\r\n        external\r\n        onlyOwner\r\n        returns (bool)\r\n    {\r\n        payable(owner()).transfer(_amount);\r\n        return true;\r\n    }\r\n\r\n    // Enable recovery of any BEP20 compatible token sent by mistake to this contract's address.\r\n    function drainStrayTokens(IBEP20 _token, uint _amount)\r\n        external\r\n        onlyOwner\r\n        returns (bool)\r\n    {\r\n        require(address(_token) != address(this), \"bCHX cannot be drained\");\r\n        return _token.transfer(owner(), _amount);\r\n    }\r\n}\r\n",
  "sourcePath": "C:/Users/User/Source/Repos/IBCSmartContracts-1/src/contracts/bCHXToken.sol",
  "compiler": {
    "name": "solc",
    "version": "0.6.0+commit.26b70077.Emscripten.clang"
  },
  "schemaVersion": "3.3.3",
  "updatedAt": "2021-08-17T12:57:42.494Z",
  "devdoc": {
    "methods": {
      "allowance(address,address)": {
        "details": "See {BEP20-allowance}."
      },
      "approve(address,uint256)": {
        "details": "See {BEP20-approve}.    * Requirements:    * - `spender` cannot be the zero address."
      },
      "balanceOf(address)": {
        "details": "See {BEP20-balanceOf}."
      },
      "cap()": {
        "details": "Returns the cap on the token's total supply."
      },
      "decimals()": {
        "details": "Returns the token decimals."
      },
      "decreaseAllowance(address,uint256)": {
        "details": "Atomically decreases the allowance granted to `spender` by the caller.    * This is an alternative to {approve} that can be used as a mitigation for problems described in {BEP20-approve}.    * Emits an {Approval} event indicating the updated allowance.    * Requirements:    * - `spender` cannot be the zero address. - `spender` must have allowance for the caller of at least `subtractedValue`."
      },
      "getOwner()": {
        "details": "Returns the bep token owner."
      },
      "increaseAllowance(address,uint256)": {
        "details": "Atomically increases the allowance granted to `spender` by the caller.    * This is an alternative to {approve} that can be used as a mitigation for problems described in {BEP20-approve}.    * Emits an {Approval} event indicating the updated allowance.    * Requirements:    * - `spender` cannot be the zero address."
      },
      "name()": {
        "details": "Returns the token name."
      },
      "owner()": {
        "details": "Returns the address of the current owner."
      },
      "renounceOwnership()": {
        "details": "Leaves the contract without owner. It will not be possible to call `onlyOwner` functions anymore. Can only be called by the current owner.      * NOTE: Renouncing ownership will leave the contract without an owner, thereby removing any functionality that is only available to the owner."
      },
      "symbol()": {
        "details": "Returns the token symbol."
      },
      "totalSupply()": {
        "details": "See {BEP20-totalSupply}."
      },
      "transferOwnership(address)": {
        "details": "Transfers ownership of the contract to a new account (`newOwner`). Can only be called by the current owner."
      }
    }
  },
  "userdoc": {
    "methods": {
      "burnUnwrapedTokens(string,uint256)": {
        "notice": "/////////////////////////////////////////////////////////////////////////////////////////////////"
      },
      "drainStrayBNB(uint256)": {
        "notice": "/////////////////////////////////////////////////////////////////////////////////////////////////"
      },
      "transfer(address,uint256)": {
        "notice": "/////////////////////////////////////////////////////////////////////////////////////////////////"
      }
    }
  }
}