{
  "contractName": "bCHXMapping",
  "abi": [
    {
      "inputs": [],
      "stateMutability": "nonpayable",
      "type": "constructor"
    },
    {
      "anonymous": false,
      "inputs": [
        {
          "indexed": true,
          "internalType": "address",
          "name": "bscAddress",
          "type": "address"
        },
        {
          "indexed": false,
          "internalType": "string",
          "name": "chxAddress",
          "type": "string"
        },
        {
          "indexed": false,
          "internalType": "string",
          "name": "signature",
          "type": "string"
        }
      ],
      "name": "AddressMapped",
      "type": "event"
    },
    {
      "anonymous": false,
      "inputs": [
        {
          "indexed": true,
          "internalType": "address",
          "name": "bscAddress",
          "type": "address"
        },
        {
          "indexed": false,
          "internalType": "string",
          "name": "chxAddress",
          "type": "string"
        },
        {
          "indexed": false,
          "internalType": "string",
          "name": "signature",
          "type": "string"
        }
      ],
      "name": "AddressMappingRemoved",
      "type": "event"
    },
    {
      "anonymous": false,
      "inputs": [
        {
          "indexed": true,
          "internalType": "address",
          "name": "previousOwner",
          "type": "address"
        },
        {
          "indexed": true,
          "internalType": "address",
          "name": "newOwner",
          "type": "address"
        }
      ],
      "name": "OwnershipTransferred",
      "type": "event"
    },
    {
      "inputs": [],
      "name": "owner",
      "outputs": [
        {
          "internalType": "address",
          "name": "",
          "type": "address"
        }
      ],
      "stateMutability": "view",
      "type": "function"
    },
    {
      "inputs": [],
      "name": "renounceOwnership",
      "outputs": [],
      "stateMutability": "nonpayable",
      "type": "function"
    },
    {
      "inputs": [
        {
          "internalType": "address",
          "name": "newOwner",
          "type": "address"
        }
      ],
      "name": "transferOwnership",
      "outputs": [],
      "stateMutability": "nonpayable",
      "type": "function"
    },
    {
      "inputs": [
        {
          "internalType": "address",
          "name": "_bscAddress",
          "type": "address"
        }
      ],
      "name": "chxAddress",
      "outputs": [
        {
          "internalType": "string",
          "name": "",
          "type": "string"
        }
      ],
      "stateMutability": "view",
      "type": "function"
    },
    {
      "inputs": [
        {
          "internalType": "string",
          "name": "_chxAddress",
          "type": "string"
        }
      ],
      "name": "bscAddress",
      "outputs": [
        {
          "internalType": "address",
          "name": "",
          "type": "address"
        }
      ],
      "stateMutability": "view",
      "type": "function"
    },
    {
      "inputs": [
        {
          "internalType": "string",
          "name": "_chxAddress",
          "type": "string"
        }
      ],
      "name": "signature",
      "outputs": [
        {
          "internalType": "string",
          "name": "",
          "type": "string"
        }
      ],
      "stateMutability": "view",
      "type": "function"
    },
    {
      "inputs": [
        {
          "internalType": "string",
          "name": "_chxAddress",
          "type": "string"
        },
        {
          "internalType": "string",
          "name": "_signature",
          "type": "string"
        }
      ],
      "name": "mapAddress",
      "outputs": [],
      "stateMutability": "nonpayable",
      "type": "function"
    },
    {
      "inputs": [
        {
          "internalType": "address",
          "name": "_bscAddress",
          "type": "address"
        }
      ],
      "name": "removeMappedAddress",
      "outputs": [],
      "stateMutability": "nonpayable",
      "type": "function"
    },
    {
      "inputs": [
        {
          "internalType": "uint256",
          "name": "_amount",
          "type": "uint256"
        }
      ],
      "name": "drainStrayBNB",
      "outputs": [
        {
          "internalType": "bool",
          "name": "",
          "type": "bool"
        }
      ],
      "stateMutability": "nonpayable",
      "type": "function"
    },
    {
      "inputs": [
        {
          "internalType": "contract IBEP20",
          "name": "_token",
          "type": "address"
        },
        {
          "internalType": "uint256",
          "name": "_amount",
          "type": "uint256"
        }
      ],
      "name": "drainStrayTokens",
      "outputs": [
        {
          "internalType": "bool",
          "name": "",
          "type": "bool"
        }
      ],
      "stateMutability": "nonpayable",
      "type": "function"
    }
  ],
  "bytecode": "0x608060405234801561001057600080fd5b5060006100216100c460201b60201c565b9050806000806101000a81548173ffffffffffffffffffffffffffffffffffffffff021916908373ffffffffffffffffffffffffffffffffffffffff1602179055508073ffffffffffffffffffffffffffffffffffffffff16600073ffffffffffffffffffffffffffffffffffffffff167f8be0079c531659141344cd1fd0a4f28419497f9722a3daafe3b4186f6b6457e060405160405180910390a3506100cc565b600033905090565b611d38806100db6000396000f3fe608060405234801561001057600080fd5b506004361061009e5760003560e01c80638da5cb5b116100665780638da5cb5b1461025a578063a8d3ec01146102a4578063b0e353bd1461035d578063f2fde38b1461044f578063f9c0e3c2146104935761009e565b8063050b8c66146100a35780633cc7ec8114610109578063401105441461014f57806360b90acf14610193578063715018a614610250575b600080fd5b6100ef600480360360408110156100b957600080fd5b81019080803573ffffffffffffffffffffffffffffffffffffffff16906020019092919080359060200190929190505050610561565b604051808215151515815260200191505060405180910390f35b6101356004803603602081101561011f57600080fd5b81019080803590602001909291905050506106fd565b604051808215151515815260200191505060405180910390f35b6101916004803603602081101561016557600080fd5b81019080803573ffffffffffffffffffffffffffffffffffffffff16906020019092919050505061081f565b005b6101d5600480360360208110156101a957600080fd5b81019080803573ffffffffffffffffffffffffffffffffffffffff169060200190929190505050610e1a565b6040518080602001828103825283818151815260200191508051906020019080838360005b838110156102155780820151818401526020810190506101fa565b50505050905090810190601f1680156102425780820380516001836020036101000a031916815260200191505b509250505060405180910390f35b610258610efb565b005b610262611083565b604051808273ffffffffffffffffffffffffffffffffffffffff1673ffffffffffffffffffffffffffffffffffffffff16815260200191505060405180910390f35b61031b600480360360208110156102ba57600080fd5b81019080803590602001906401000000008111156102d757600080fd5b8201836020820111156102e957600080fd5b8035906020019184600183028401116401000000008311171561030b57600080fd5b90919293919293905050506110ac565b604051808273ffffffffffffffffffffffffffffffffffffffff1673ffffffffffffffffffffffffffffffffffffffff16815260200191505060405180910390f35b6103d46004803603602081101561037357600080fd5b810190808035906020019064010000000081111561039057600080fd5b8201836020820111156103a257600080fd5b803590602001918460018302840111640100000000831117156103c457600080fd5b90919293919293905050506110fe565b6040518080602001828103825283818151815260200191508051906020019080838360005b838110156104145780820151818401526020810190506103f9565b50505050905090810190601f1680156104415780820380516001836020036101000a031916815260200191505b509250505060405180910390f35b6104916004803603602081101561046557600080fd5b81019080803573ffffffffffffffffffffffffffffffffffffffff1690602001909291905050506111c8565b005b61055f600480360360408110156104a957600080fd5b81019080803590602001906401000000008111156104c657600080fd5b8201836020820111156104d857600080fd5b803590602001918460018302840111640100000000831117156104fa57600080fd5b90919293919293908035906020019064010000000081111561051b57600080fd5b82018360208201111561052d57600080fd5b8035906020019184600183028401116401000000008311171561054f57600080fd5b90919293919293905050506113d5565b005b600061056b611744565b73ffffffffffffffffffffffffffffffffffffffff166000809054906101000a900473ffffffffffffffffffffffffffffffffffffffff1673ffffffffffffffffffffffffffffffffffffffff161461062c576040517f08c379a00000000000000000000000000000000000000000000000000000000081526004018080602001828103825260208152602001807f4f776e61626c653a2063616c6c6572206973206e6f7420746865206f776e657281525060200191505060405180910390fd5b8273ffffffffffffffffffffffffffffffffffffffff1663a9059cbb610650611083565b846040518363ffffffff1660e01b8152600401808373ffffffffffffffffffffffffffffffffffffffff1673ffffffffffffffffffffffffffffffffffffffff16815260200182815260200192505050602060405180830381600087803b1580156106ba57600080fd5b505af11580156106ce573d6000803e3d6000fd5b505050506040513d60208110156106e457600080fd5b8101908080519060200190929190505050905092915050565b6000610707611744565b73ffffffffffffffffffffffffffffffffffffffff166000809054906101000a900473ffffffffffffffffffffffffffffffffffffffff1673ffffffffffffffffffffffffffffffffffffffff16146107c8576040517f08c379a00000000000000000000000000000000000000000000000000000000081526004018080602001828103825260208152602001807f4f776e61626c653a2063616c6c6572206973206e6f7420746865206f776e657281525060200191505060405180910390fd5b6107d0611083565b73ffffffffffffffffffffffffffffffffffffffff166108fc839081150290604051600060405180830381858888f19350505050158015610815573d6000803e3d6000fd5b5060019050919050565b610827611744565b73ffffffffffffffffffffffffffffffffffffffff166000809054906101000a900473ffffffffffffffffffffffffffffffffffffffff1673ffffffffffffffffffffffffffffffffffffffff16146108e8576040517f08c379a00000000000000000000000000000000000000000000000000000000081526004018080602001828103825260208152602001807f4f776e61626c653a2063616c6c6572206973206e6f7420746865206f776e657281525060200191505060405180910390fd5b6060600160008373ffffffffffffffffffffffffffffffffffffffff1673ffffffffffffffffffffffffffffffffffffffff1681526020019081526020016000208054600181600116156101000203166002900480601f0160208091040260200160405190810160405280929190818152602001828054600181600116156101000203166002900480156109bd5780601f10610992576101008083540402835291602001916109bd565b820191906000526020600020905b8154815290600101906020018083116109a057829003601f168201915b505050505090506000815114156109d357600080fd5b60606003826040518082805190602001908083835b60208310610a0b57805182526020820191506020810190506020830392506109e8565b6001836020036101000a03801982511681845116808217855250505050505090500191505090815260200160405180910390208054600181600116156101000203166002900480601f016020809104026020016040519081016040528092919081815260200182805460018160011615610100020316600290048015610ad25780601f10610aa757610100808354040283529160200191610ad2565b820191906000526020600020905b815481529060010190602001808311610ab557829003601f168201915b50505050509050600081511415610ae857600080fd5b8273ffffffffffffffffffffffffffffffffffffffff166002836040518082805190602001908083835b60208310610b355780518252602082019150602081019050602083039250610b12565b6001836020036101000a038019825116818451168082178552505050505050905001915050908152602001604051809103902060009054906101000a900473ffffffffffffffffffffffffffffffffffffffff1673ffffffffffffffffffffffffffffffffffffffff1614610ba957600080fd5b600160008473ffffffffffffffffffffffffffffffffffffffff1673ffffffffffffffffffffffffffffffffffffffff1681526020019081526020016000206000610bf49190611b9f565b6002826040518082805190602001908083835b60208310610c2a5780518252602082019150602081019050602083039250610c07565b6001836020036101000a038019825116818451168082178552505050505050905001915050908152602001604051809103902060006101000a81549073ffffffffffffffffffffffffffffffffffffffff02191690556003826040518082805190602001908083835b60208310610cb65780518252602082019150602081019050602083039250610c93565b6001836020036101000a03801982511681845116808217855250505050505090500191505090815260200160405180910390206000610cf59190611b9f565b8273ffffffffffffffffffffffffffffffffffffffff167fa40592f52404e01bef5d3ecd36211c5b2fa10182ca5f13cb906757a4740cfb678383604051808060200180602001838103835285818151815260200191508051906020019080838360005b83811015610d73578082015181840152602081019050610d58565b50505050905090810190601f168015610da05780820380516001836020036101000a031916815260200191505b50838103825284818151815260200191508051906020019080838360005b83811015610dd9578082015181840152602081019050610dbe565b50505050905090810190601f168015610e065780820380516001836020036101000a031916815260200191505b5094505050505060405180910390a2505050565b6060600160008373ffffffffffffffffffffffffffffffffffffffff1673ffffffffffffffffffffffffffffffffffffffff1681526020019081526020016000208054600181600116156101000203166002900480601f016020809104026020016040519081016040528092919081815260200182805460018160011615610100020316600290048015610eef5780601f10610ec457610100808354040283529160200191610eef565b820191906000526020600020905b815481529060010190602001808311610ed257829003601f168201915b50505050509050919050565b610f03611744565b73ffffffffffffffffffffffffffffffffffffffff166000809054906101000a900473ffffffffffffffffffffffffffffffffffffffff1673ffffffffffffffffffffffffffffffffffffffff1614610fc4576040517f08c379a00000000000000000000000000000000000000000000000000000000081526004018080602001828103825260208152602001807f4f776e61626c653a2063616c6c6572206973206e6f7420746865206f776e657281525060200191505060405180910390fd5b600073ffffffffffffffffffffffffffffffffffffffff166000809054906101000a900473ffffffffffffffffffffffffffffffffffffffff1673ffffffffffffffffffffffffffffffffffffffff167f8be0079c531659141344cd1fd0a4f28419497f9722a3daafe3b4186f6b6457e060405160405180910390a360008060006101000a81548173ffffffffffffffffffffffffffffffffffffffff021916908373ffffffffffffffffffffffffffffffffffffffff160217905550565b60008060009054906101000a900473ffffffffffffffffffffffffffffffffffffffff16905090565b600060028383604051808383808284378083019250505092505050908152602001604051809103902060009054906101000a900473ffffffffffffffffffffffffffffffffffffffff16905092915050565b60606003838360405180838380828437808301925050509250505090815260200160405180910390208054600181600116156101000203166002900480601f0160208091040260200160405190810160405280929190818152602001828054600181600116156101000203166002900480156111bb5780601f10611190576101008083540402835291602001916111bb565b820191906000526020600020905b81548152906001019060200180831161119e57829003601f168201915b5050505050905092915050565b6111d0611744565b73ffffffffffffffffffffffffffffffffffffffff166000809054906101000a900473ffffffffffffffffffffffffffffffffffffffff1673ffffffffffffffffffffffffffffffffffffffff1614611291576040517f08c379a00000000000000000000000000000000000000000000000000000000081526004018080602001828103825260208152602001807f4f776e61626c653a2063616c6c6572206973206e6f7420746865206f776e657281525060200191505060405180910390fd5b600073ffffffffffffffffffffffffffffffffffffffff168173ffffffffffffffffffffffffffffffffffffffff161415611317576040517f08c379a0000000000000000000000000000000000000000000000000000000008152600401808060200182810382526026815260200180611c8d6026913960400191505060405180910390fd5b8073ffffffffffffffffffffffffffffffffffffffff166000809054906101000a900473ffffffffffffffffffffffffffffffffffffffff1673ffffffffffffffffffffffffffffffffffffffff167f8be0079c531659141344cd1fd0a4f28419497f9722a3daafe3b4186f6b6457e060405160405180910390a3806000806101000a81548173ffffffffffffffffffffffffffffffffffffffff021916908373ffffffffffffffffffffffffffffffffffffffff16021790555050565b60006113df611744565b90506000600160008373ffffffffffffffffffffffffffffffffffffffff1673ffffffffffffffffffffffffffffffffffffffff1681526020019081526020016000208054600181600116156101000203166002900490501461144157600080fd5b600073ffffffffffffffffffffffffffffffffffffffff1660028686604051808383808284378083019250505092505050908152602001604051809103902060009054906101000a900473ffffffffffffffffffffffffffffffffffffffff1673ffffffffffffffffffffffffffffffffffffffff16146114c157600080fd5b60006003868660405180838380828437808301925050509250505090815260200160405180910390208054600181600116156101000203166002900490501461150957600080fd5b61155685858080601f016020809104026020016040519081016040528093929190818152602001838380828437600081840152601f19601f8201169050808301925050505050505061174c565b6115a383838080601f016020809104026020016040519081016040528093929190818152602001838380828437600081840152601f19601f82011690508083019250505050505050611972565b8484600160008473ffffffffffffffffffffffffffffffffffffffff1673ffffffffffffffffffffffffffffffffffffffff16815260200190815260200160002091906115f1929190611be7565b508060028686604051808383808284378083019250505092505050908152602001604051809103902060006101000a81548173ffffffffffffffffffffffffffffffffffffffff021916908373ffffffffffffffffffffffffffffffffffffffff1602179055508282600387876040518083838082843780830192505050925050509081526020016040518091039020919061168e929190611be7565b508073ffffffffffffffffffffffffffffffffffffffff167f7b1a72f0c8f7ac830f57239e929d94c02d63c9ad0154b9c73221df7817c2237e868686866040518080602001806020018381038352878782818152602001925080828437600081840152601f19601f8201169050808301925050508381038252858582818152602001925080828437600081840152601f19601f820116905080830192505050965050505050505060405180910390a25050505050565b600033905090565b606081905060606040518060400160405280600281526020017f434800000000000000000000000000000000000000000000000000000000000081525090508060008151811061179857fe5b602001015160f81c60f81b7effffffffffffffffffffffffffffffffffffffffffffffffffffffffffffff1916826000815181106117d257fe5b602001015160f81c60f81b7effffffffffffffffffffffffffffffffffffffffffffffffffffffffffffff191614801561187d57508060018151811061181457fe5b602001015160f81c60f81b7effffffffffffffffffffffffffffffffffffffffffffffffffffffffffffff19168260018151811061184e57fe5b602001015160f81c60f81b7effffffffffffffffffffffffffffffffffffffffffffffffffffffffffffff1916145b6118ef576040517f08c379a00000000000000000000000000000000000000000000000000000000081526004018080602001828103825260138152602001807f496e76616c69642043485820616464726573730000000000000000000000000081525060200191505060405180910390fd5b60008260018451038151811061190157fe5b602001015160f81c60f81b905061191781611a74565b61196c576040517f08c379a0000000000000000000000000000000000000000000000000000000008152600401808060200182810382526029815260200180611cb36029913960400191505060405180910390fd5b50505050565b606081905060008160008151811061198657fe5b602001015160f81c60f81b905061199c81611a74565b6119f1576040517f08c379a0000000000000000000000000000000000000000000000000000000008152600401808060200182810382526027815260200180611cdc6027913960400191505060405180910390fd5b600082600184510381518110611a0357fe5b602001015160f81c60f81b9050611a1981611a74565b611a6e576040517f08c379a0000000000000000000000000000000000000000000000000000000008152600401808060200182810382526027815260200180611cdc6027913960400191505060405180910390fd5b50505050565b6000603060f81b827effffffffffffffffffffffffffffffffffffffffffffffffffffffffffffff191610158015611ad25750603960f81b827effffffffffffffffffffffffffffffffffffffffffffffffffffffffffffff191611155b80611b355750604160f81b827effffffffffffffffffffffffffffffffffffffffffffffffffffffffffffff191610158015611b345750605a60f81b827effffffffffffffffffffffffffffffffffffffffffffffffffffffffffffff191611155b5b80611b985750606160f81b827effffffffffffffffffffffffffffffffffffffffffffffffffffffffffffff191610158015611b975750607a60f81b827effffffffffffffffffffffffffffffffffffffffffffffffffffffffffffff191611155b5b9050919050565b50805460018160011615610100020316600290046000825580601f10611bc55750611be4565b601f016020900490600052602060002090810190611be39190611c67565b5b50565b828054600181600116156101000203166002900490600052602060002090601f016020900481019282601f10611c2857803560ff1916838001178555611c56565b82800160010185558215611c56579182015b82811115611c55578235825591602001919060010190611c3a565b5b509050611c639190611c67565b5090565b611c8991905b80821115611c85576000816000905550600101611c6d565b5090565b9056fe4f776e61626c653a206e6577206f776e657220697320746865207a65726f2061646472657373434858206164647265737320656e6473207769746820696e636f7272656374206368617261637465725369676e617475726520656e6473207769746820696e636f727265637420636861726163746572a2646970667358221220e60089b57ea484b85471c8d0cc09178e953d816e4eb39108d1fcbf7c3710dc9264736f6c63430006000033",
  "source": "pragma solidity 0.6.0;\r\n\r\nimport \"../interfaces/IBEP20.sol\";\r\nimport \"@openzeppelin/contracts/access/Ownable.sol\";\r\n\r\ncontract bCHXMapping is Ownable {\r\n    event AddressMapped(address indexed bscAddress, string chxAddress, string signature);\r\n    event AddressMappingRemoved(address indexed bscAddress, string chxAddress, string signature);\r\n\r\n    mapping (address => string) private bscToChxAddresses;\r\n    mapping (string => address) private chxToBscAddresses;\r\n    mapping (string => string) private chxToSignatures;\r\n\r\n    constructor()\r\n        public\r\n    {\r\n    }\r\n\r\n    function chxAddress(address _bscAddress)\r\n        external\r\n        view\r\n        returns (string memory) \r\n    {\r\n        return bscToChxAddresses[_bscAddress];\r\n    }\r\n\r\n    function bscAddress(string calldata _chxAddress)\r\n        external\r\n        view\r\n        returns (address) \r\n    {\r\n        return chxToBscAddresses[_chxAddress];\r\n    }\r\n\r\n    function signature(string calldata _chxAddress)\r\n        external\r\n        view\r\n        returns (string memory) \r\n    {\r\n        return chxToSignatures[_chxAddress];\r\n    }\r\n\r\n    function mapAddress(string calldata _chxAddress, string calldata _signature)\r\n        external\r\n    {\r\n        address _bscAddress = _msgSender();\r\n\r\n        require(bytes(bscToChxAddresses[_bscAddress]).length == 0);\r\n        require(chxToBscAddresses[_chxAddress] == address(0));\r\n        require(bytes(chxToSignatures[_chxAddress]).length == 0);\r\n        checkChxAddress(_chxAddress);\r\n        checkSignature(_signature);\r\n\r\n        bscToChxAddresses[_bscAddress] = _chxAddress;\r\n        chxToBscAddresses[_chxAddress] = _bscAddress;\r\n        chxToSignatures[_chxAddress] = _signature;\r\n\r\n        emit AddressMapped(_bscAddress, _chxAddress, _signature);\r\n    }\r\n\r\n    function removeMappedAddress(address _bscAddress)\r\n        external\r\n        onlyOwner\r\n    {\r\n        string memory _chxAddress = bscToChxAddresses[_bscAddress];\r\n        require(bytes(_chxAddress).length != 0);\r\n\r\n        string memory _signature = chxToSignatures[_chxAddress];\r\n        require(bytes(_signature).length != 0);\r\n        require(chxToBscAddresses[_chxAddress] == _bscAddress);\r\n        \r\n        delete bscToChxAddresses[_bscAddress];\r\n        delete chxToBscAddresses[_chxAddress];\r\n        delete chxToSignatures[_chxAddress];\r\n        \r\n        emit AddressMappingRemoved(_bscAddress, _chxAddress, _signature);\r\n    }\r\n\r\n    function isAlphanumericChar(bytes1 _char)\r\n        private\r\n        pure\r\n        returns (bool)\r\n    {\r\n        return (_char >= 0x30 && _char <= 0x39) || \r\n            (_char >= 0x41 && _char <= 0x5A) || \r\n            (_char >= 0x61 && _char <= 0x7A);\r\n    }\r\n\r\n    function checkChxAddress(string memory _chxAddress)\r\n        private \r\n        pure\r\n    {\r\n        bytes memory _strBytes = bytes(_chxAddress);\r\n        bytes memory _prefix = bytes(\"CH\");\r\n        require(_strBytes[0] == _prefix[0] && _strBytes[1] == _prefix[1], \"Invalid CHX address\");\r\n\r\n        bytes1 _lastChar = _strBytes[_strBytes.length - 1];\r\n        require(isAlphanumericChar(_lastChar), \"CHX address ends with incorrect character\");\r\n    }\r\n\r\n    function checkSignature(string memory _signature)\r\n        private \r\n        pure\r\n    {\r\n        bytes memory _strBytes = bytes(_signature);\r\n\r\n        bytes1 _firstChar = _strBytes[0];\r\n        require(isAlphanumericChar(_firstChar), \"Signature ends with incorrect character\");\r\n\r\n        bytes1 _lastChar = _strBytes[_strBytes.length - 1];\r\n        require(isAlphanumericChar(_lastChar), \"Signature ends with incorrect character\");\r\n    }\r\n\r\n    // Enable recovery of BNB sent by mistake to this contract's address.\r\n    function drainStrayBNB(uint _amount)\r\n        external\r\n        onlyOwner\r\n        returns (bool)\r\n    {\r\n        payable(owner()).transfer(_amount);\r\n        return true;\r\n    }\r\n\r\n    // Enable recovery of any BEP20 compatible token sent by mistake to this contract's address.\r\n    function drainStrayTokens(IBEP20 _token, uint _amount)\r\n        external\r\n        onlyOwner\r\n        returns (bool)\r\n    {\r\n        return _token.transfer(owner(), _amount);\r\n    }\r\n}\r\n",
  "sourcePath": "C:/Users/User/Source/Repos/IBCSmartContracts-1/src/contracts/bCHXMapping.sol",
  "compiler": {
    "name": "solc",
    "version": "0.6.0+commit.26b70077.Emscripten.clang"
  },
  "schemaVersion": "3.3.3",
  "updatedAt": "2021-03-18T12:37:25.204Z",
  "devdoc": {
    "methods": {
      "owner()": {
        "details": "Returns the address of the current owner."
      },
      "renounceOwnership()": {
        "details": "Leaves the contract without owner. It will not be possible to call `onlyOwner` functions anymore. Can only be called by the current owner.      * NOTE: Renouncing ownership will leave the contract without an owner, thereby removing any functionality that is only available to the owner."
      },
      "transferOwnership(address)": {
        "details": "Transfers ownership of the contract to a new account (`newOwner`). Can only be called by the current owner."
      }
    }
  },
  "userdoc": {
    "methods": {}
  }
}