{
  "contractName": "OwnAssetBridge",
  "abi": [
    {
      "inputs": [
        {
          "internalType": "uint256",
          "name": "_bridgeFee",
          "type": "uint256"
        },
        {
          "internalType": "uint256",
          "name": "_targetTransferFee",
          "type": "uint256"
        },
        {
          "internalType": "uint256",
          "name": "_nativeTransferFee",
          "type": "uint256"
        }
      ],
      "stateMutability": "nonpayable",
      "type": "constructor"
    },
    {
      "anonymous": false,
      "inputs": [
        {
          "indexed": true,
          "internalType": "address",
          "name": "token",
          "type": "address"
        },
        {
          "indexed": false,
          "internalType": "string",
          "name": "recipientAccountHash",
          "type": "string"
        },
        {
          "indexed": false,
          "internalType": "uint256",
          "name": "amount",
          "type": "uint256"
        }
      ],
      "name": "CrossChainTransfer",
      "type": "event"
    },
    {
      "anonymous": false,
      "inputs": [
        {
          "indexed": false,
          "internalType": "string",
          "name": "txHash",
          "type": "string"
        },
        {
          "indexed": false,
          "internalType": "address",
          "name": "recipient",
          "type": "address"
        }
      ],
      "name": "CrossChainTransfer",
      "type": "event"
    },
    {
      "anonymous": false,
      "inputs": [
        {
          "indexed": true,
          "internalType": "address",
          "name": "previousOwner",
          "type": "address"
        },
        {
          "indexed": true,
          "internalType": "address",
          "name": "newOwner",
          "type": "address"
        }
      ],
      "name": "OwnershipTransferred",
      "type": "event"
    },
    {
      "inputs": [
        {
          "internalType": "string",
          "name": "",
          "type": "string"
        }
      ],
      "name": "accountsForAssets",
      "outputs": [
        {
          "internalType": "string",
          "name": "",
          "type": "string"
        }
      ],
      "stateMutability": "view",
      "type": "function"
    },
    {
      "inputs": [
        {
          "internalType": "address",
          "name": "",
          "type": "address"
        }
      ],
      "name": "assetHashes",
      "outputs": [
        {
          "internalType": "string",
          "name": "",
          "type": "string"
        }
      ],
      "stateMutability": "view",
      "type": "function"
    },
    {
      "inputs": [],
      "name": "bridgeFee",
      "outputs": [
        {
          "internalType": "uint256",
          "name": "",
          "type": "uint256"
        }
      ],
      "stateMutability": "view",
      "type": "function"
    },
    {
      "inputs": [
        {
          "internalType": "string",
          "name": "",
          "type": "string"
        }
      ],
      "name": "erc20Tokens",
      "outputs": [
        {
          "internalType": "address",
          "name": "",
          "type": "address"
        }
      ],
      "stateMutability": "view",
      "type": "function"
    },
    {
      "inputs": [],
      "name": "governor",
      "outputs": [
        {
          "internalType": "address",
          "name": "",
          "type": "address"
        }
      ],
      "stateMutability": "view",
      "type": "function"
    },
    {
      "inputs": [],
      "name": "nativeTransferFee",
      "outputs": [
        {
          "internalType": "uint256",
          "name": "",
          "type": "uint256"
        }
      ],
      "stateMutability": "view",
      "type": "function"
    },
    {
      "inputs": [],
      "name": "owner",
      "outputs": [
        {
          "internalType": "address",
          "name": "",
          "type": "address"
        }
      ],
      "stateMutability": "view",
      "type": "function"
    },
    {
      "inputs": [
        {
          "internalType": "string",
          "name": "",
          "type": "string"
        }
      ],
      "name": "pendingCrossChainTransfers",
      "outputs": [
        {
          "internalType": "address",
          "name": "",
          "type": "address"
        }
      ],
      "stateMutability": "view",
      "type": "function"
    },
    {
      "inputs": [
        {
          "internalType": "string",
          "name": "",
          "type": "string"
        }
      ],
      "name": "pendingSignedTxs",
      "outputs": [
        {
          "internalType": "string",
          "name": "",
          "type": "string"
        }
      ],
      "stateMutability": "view",
      "type": "function"
    },
    {
      "inputs": [],
      "name": "renounceOwnership",
      "outputs": [],
      "stateMutability": "nonpayable",
      "type": "function"
    },
    {
      "inputs": [],
      "name": "targetTransferFee",
      "outputs": [
        {
          "internalType": "uint256",
          "name": "",
          "type": "uint256"
        }
      ],
      "stateMutability": "view",
      "type": "function"
    },
    {
      "inputs": [
        {
          "internalType": "address",
          "name": "newOwner",
          "type": "address"
        }
      ],
      "name": "transferOwnership",
      "outputs": [],
      "stateMutability": "nonpayable",
      "type": "function"
    },
    {
      "inputs": [
        {
          "internalType": "address",
          "name": "_token",
          "type": "address"
        },
        {
          "internalType": "string",
          "name": "_assetHash",
          "type": "string"
        },
        {
          "internalType": "string",
          "name": "_accountHash",
          "type": "string"
        }
      ],
      "name": "bridgeErc20Token",
      "outputs": [],
      "stateMutability": "payable",
      "type": "function"
    },
    {
      "inputs": [
        {
          "internalType": "string",
          "name": "_assetHash",
          "type": "string"
        },
        {
          "internalType": "string",
          "name": "_accountHash",
          "type": "string"
        },
        {
          "internalType": "string",
          "name": "_assetName",
          "type": "string"
        },
        {
          "internalType": "string",
          "name": "_assetSymbol",
          "type": "string"
        },
        {
          "internalType": "uint256",
          "name": "_totalSupply",
          "type": "uint256"
        }
      ],
      "name": "bridgeAsset",
      "outputs": [],
      "stateMutability": "payable",
      "type": "function"
    },
    {
      "inputs": [
        {
          "internalType": "address",
          "name": "_token",
          "type": "address"
        }
      ],
      "name": "removeBridge",
      "outputs": [],
      "stateMutability": "nonpayable",
      "type": "function"
    },
    {
      "inputs": [
        {
          "internalType": "address",
          "name": "_token",
          "type": "address"
        },
        {
          "internalType": "string",
          "name": "_recipientAccountHash",
          "type": "string"
        },
        {
          "internalType": "uint256",
          "name": "_amount",
          "type": "uint256"
        }
      ],
      "name": "transferToNativeChain",
      "outputs": [],
      "stateMutability": "payable",
      "type": "function"
    },
    {
      "inputs": [
        {
          "internalType": "string",
          "name": "_txHash",
          "type": "string"
        },
        {
          "internalType": "string",
          "name": "_signature",
          "type": "string"
        },
        {
          "internalType": "address",
          "name": "_recipient",
          "type": "address"
        }
      ],
      "name": "transferFromNativeChain",
      "outputs": [],
      "stateMutability": "payable",
      "type": "function"
    },
    {
      "inputs": [
        {
          "internalType": "string",
          "name": "_txHash",
          "type": "string"
        },
        {
          "internalType": "contract IERC20",
          "name": "_token",
          "type": "address"
        },
        {
          "internalType": "uint256",
          "name": "_amount",
          "type": "uint256"
        }
      ],
      "name": "confirmTransfer",
      "outputs": [],
      "stateMutability": "nonpayable",
      "type": "function"
    },
    {
      "inputs": [
        {
          "internalType": "string",
          "name": "_txHash",
          "type": "string"
        }
      ],
      "name": "revertTransferFromNativeChain",
      "outputs": [],
      "stateMutability": "nonpayable",
      "type": "function"
    },
    {
      "inputs": [
        {
          "internalType": "string",
          "name": "_txHash",
          "type": "string"
        },
        {
          "internalType": "contract IERC20",
          "name": "_token",
          "type": "address"
        },
        {
          "internalType": "address",
          "name": "_recipient",
          "type": "address"
        },
        {
          "internalType": "uint256",
          "name": "_amount",
          "type": "uint256"
        }
      ],
      "name": "revertTransferToNativeChain",
      "outputs": [],
      "stateMutability": "nonpayable",
      "type": "function"
    },
    {
      "inputs": [
        {
          "internalType": "address",
          "name": "_governor",
          "type": "address"
        }
      ],
      "name": "setGovernor",
      "outputs": [],
      "stateMutability": "nonpayable",
      "type": "function"
    },
    {
      "inputs": [
        {
          "internalType": "uint256",
          "name": "_amount",
          "type": "uint256"
        }
      ],
      "name": "setTargetTransferFee",
      "outputs": [],
      "stateMutability": "nonpayable",
      "type": "function"
    },
    {
      "inputs": [
        {
          "internalType": "uint256",
          "name": "_amount",
          "type": "uint256"
        }
      ],
      "name": "setNativeTransferFee",
      "outputs": [],
      "stateMutability": "nonpayable",
      "type": "function"
    },
    {
      "inputs": [
        {
          "internalType": "uint256",
          "name": "_amount",
          "type": "uint256"
        }
      ],
      "name": "setBridgeFee",
      "outputs": [],
      "stateMutability": "nonpayable",
      "type": "function"
    },
    {
      "inputs": [
        {
          "internalType": "uint256",
          "name": "_amount",
          "type": "uint256"
        }
      ],
      "name": "withdrawFee",
      "outputs": [
        {
          "internalType": "bool",
          "name": "",
          "type": "bool"
        }
      ],
      "stateMutability": "nonpayable",
      "type": "function"
    },
    {
      "inputs": [
        {
          "internalType": "contract IERC20",
          "name": "_token",
          "type": "address"
        },
        {
          "internalType": "uint256",
          "name": "_amount",
          "type": "uint256"
        }
      ],
      "name": "drainStrayTokens",
      "outputs": [
        {
          "internalType": "bool",
          "name": "",
          "type": "bool"
        }
      ],
      "stateMutability": "nonpayable",
      "type": "function"
    }
  ],
  "bytecode": "0x60806040523480156200001157600080fd5b506040516200617538038062006175833981810160405260608110156200003757600080fd5b8101908080519060200190929190805190602001909291908051906020019092919050505060006200006e6200017a60201b60201c565b9050806000806101000a81548173ffffffffffffffffffffffffffffffffffffffff021916908373ffffffffffffffffffffffffffffffffffffffff1602179055508073ffffffffffffffffffffffffffffffffffffffff16600073ffffffffffffffffffffffffffffffffffffffff167f8be0079c531659141344cd1fd0a4f28419497f9722a3daafe3b4186f6b6457e060405160405180910390a350826009819055508160078190555080600881905550620001316200017a60201b60201c565b600660006101000a81548173ffffffffffffffffffffffffffffffffffffffff021916908373ffffffffffffffffffffffffffffffffffffffff16021790555050505062000182565b600033905090565b615fe380620001926000396000f3fe608060405260043610620001a65760003560e01c8063907d1a5411620000e5578063be3576161162000097578063d02ce3ae116200006d578063d02ce3ae1462000deb578063e09e73a61462000f7c578063f2d3169c1462001073578063f2fde38b146200110057620001a6565b8063be3576161462000c48578063c42cf5351462000c9f578063c58d0b5b1462000cf457620001a6565b8063907d1a54146200098857806395d71e9414620009b65780639641cae514620009f55780639740a9e31462000a23578063998cdf831462000afa578063a66417721462000b3957620001a6565b80632c050408116200015d578063715018a61162000133578063715018a614620008a757806382b12dd714620008c15780638c785d5614620008ef5780638da5cb5b146200092e57620001a6565b80632c050408146200059657806333c5524014620006e157806348d125f1146200079857620001a6565b8063026a771014620001ab57806304df017d1462000254578063050b8c6614620002a95780630c340a2414620003205780631c6e4593146200037a5780631c83703214620004c5575b600080fd5b6200025260048036036060811015620001c357600080fd5b81019080803573ffffffffffffffffffffffffffffffffffffffff169060200190929190803590602001906401000000008111156200020157600080fd5b8201836020820111156200021457600080fd5b803590602001918460018302840111640100000000831117156200023757600080fd5b90919293919293908035906020019092919050505062001155565b005b3480156200026157600080fd5b50620002a7600480360360208110156200027a57600080fd5b81019080803573ffffffffffffffffffffffffffffffffffffffff16906020019092919050505062001496565b005b348015620002b657600080fd5b506200030660048036036040811015620002cf57600080fd5b81019080803573ffffffffffffffffffffffffffffffffffffffff1690602001909291908035906020019092919050505062001be1565b604051808215151515815260200191505060405180910390f35b3480156200032d57600080fd5b506200033862001e33565b604051808273ffffffffffffffffffffffffffffffffffffffff1673ffffffffffffffffffffffffffffffffffffffff16815260200191505060405180910390f35b3480156200038757600080fd5b506200044760048036036020811015620003a057600080fd5b8101908080359060200190640100000000811115620003be57600080fd5b820183602082011115620003d157600080fd5b80359060200191846001830284011164010000000083111715620003f457600080fd5b91908080601f016020809104026020016040519081016040528093929190818152602001838380828437600081840152601f19601f82011690508083019250505050505050919291929050505062001e59565b6040518080602001828103825283818151815260200191508051906020019080838360005b83811015620004895780820151818401526020810190506200046c565b50505050905090810190601f168015620004b75780820380516001836020036101000a031916815260200191505b509250505060405180910390f35b348015620004d257600080fd5b506200051860048036036020811015620004eb57600080fd5b81019080803573ffffffffffffffffffffffffffffffffffffffff16906020019092919050505062001f23565b6040518080602001828103825283818151815260200191508051906020019080838360005b838110156200055a5780820151818401526020810190506200053d565b50505050905090810190601f168015620005885780820380516001836020036101000a031916815260200191505b509250505060405180910390f35b348015620005a357600080fd5b506200066360048036036020811015620005bc57600080fd5b8101908080359060200190640100000000811115620005da57600080fd5b820183602082011115620005ed57600080fd5b803590602001918460018302840111640100000000831117156200061057600080fd5b91908080601f016020809104026020016040519081016040528093929190818152602001838380828437600081840152601f19601f82011690508083019250505050505050919291929050505062001fd7565b6040518080602001828103825283818151815260200191508051906020019080838360005b83811015620006a557808201518184015260208101905062000688565b50505050905090810190601f168015620006d35780820380516001836020036101000a031916815260200191505b509250505060405180910390f35b348015620006ee57600080fd5b5062000796600480360360608110156200070757600080fd5b81019080803590602001906401000000008111156200072557600080fd5b8201836020820111156200073857600080fd5b803590602001918460018302840111640100000000831117156200075b57600080fd5b9091929391929390803573ffffffffffffffffffffffffffffffffffffffff16906020019092919080359060200190929190505050620020a1565b005b348015620007a557600080fd5b506200086560048036036020811015620007be57600080fd5b8101908080359060200190640100000000811115620007dc57600080fd5b820183602082011115620007ef57600080fd5b803590602001918460018302840111640100000000831117156200081257600080fd5b91908080601f016020809104026020016040519081016040528093929190818152602001838380828437600081840152601f19601f8201169050808301925050505050505091929192905050506200241b565b604051808273ffffffffffffffffffffffffffffffffffffffff1673ffffffffffffffffffffffffffffffffffffffff16815260200191505060405180910390f35b348015620008b457600080fd5b50620008bf62002464565b005b348015620008ce57600080fd5b50620008d9620025ef565b6040518082815260200191505060405180910390f35b348015620008fc57600080fd5b506200092c600480360360208110156200091557600080fd5b8101908080359060200190929190505050620025f5565b005b3480156200093b57600080fd5b5062000946620026cb565b604051808273ffffffffffffffffffffffffffffffffffffffff1673ffffffffffffffffffffffffffffffffffffffff16815260200191505060405180910390f35b3480156200099557600080fd5b50620009a0620026f4565b6040518082815260200191505060405180910390f35b348015620009c357600080fd5b50620009f360048036036020811015620009dc57600080fd5b8101908080359060200190929190505050620026fa565b005b34801562000a0257600080fd5b5062000a0d620027d0565b6040518082815260200191505060405180910390f35b34801562000a3057600080fd5b5062000af86004803603608081101562000a4957600080fd5b810190808035906020019064010000000081111562000a6757600080fd5b82018360208201111562000a7a57600080fd5b8035906020019184600183028401116401000000008311171562000a9d57600080fd5b9091929391929390803573ffffffffffffffffffffffffffffffffffffffff169060200190929190803573ffffffffffffffffffffffffffffffffffffffff16906020019092919080359060200190929190505050620027d6565b005b34801562000b0757600080fd5b5062000b376004803603602081101562000b2057600080fd5b8101908080359060200190929190505050620029e1565b005b34801562000b4657600080fd5b5062000c066004803603602081101562000b5f57600080fd5b810190808035906020019064010000000081111562000b7d57600080fd5b82018360208201111562000b9057600080fd5b8035906020019184600183028401116401000000008311171562000bb357600080fd5b91908080601f016020809104026020016040519081016040528093929190818152602001838380828437600081840152601f19601f82011690508083019250505050505050919291929050505062002ab7565b604051808273ffffffffffffffffffffffffffffffffffffffff1673ffffffffffffffffffffffffffffffffffffffff16815260200191505060405180910390f35b34801562000c5557600080fd5b5062000c856004803603602081101562000c6e57600080fd5b810190808035906020019092919050505062002b00565b604051808215151515815260200191505060405180910390f35b34801562000cac57600080fd5b5062000cf26004803603602081101562000cc557600080fd5b81019080803573ffffffffffffffffffffffffffffffffffffffff16906020019092919050505062002c28565b005b62000de96004803603606081101562000d0c57600080fd5b81019080803573ffffffffffffffffffffffffffffffffffffffff1690602001909291908035906020019064010000000081111562000d4a57600080fd5b82018360208201111562000d5d57600080fd5b8035906020019184600183028401116401000000008311171562000d8057600080fd5b90919293919293908035906020019064010000000081111562000da257600080fd5b82018360208201111562000db557600080fd5b8035906020019184600183028401116401000000008311171562000dd857600080fd5b909192939192939050505062002d38565b005b62000f7a600480360360a081101562000e0357600080fd5b810190808035906020019064010000000081111562000e2157600080fd5b82018360208201111562000e3457600080fd5b8035906020019184600183028401116401000000008311171562000e5757600080fd5b90919293919293908035906020019064010000000081111562000e7957600080fd5b82018360208201111562000e8c57600080fd5b8035906020019184600183028401116401000000008311171562000eaf57600080fd5b90919293919293908035906020019064010000000081111562000ed157600080fd5b82018360208201111562000ee457600080fd5b8035906020019184600183028401116401000000008311171562000f0757600080fd5b90919293919293908035906020019064010000000081111562000f2957600080fd5b82018360208201111562000f3c57600080fd5b8035906020019184600183028401116401000000008311171562000f5f57600080fd5b909192939192939080359060200190929190505050620032f0565b005b620010716004803603606081101562000f9457600080fd5b810190808035906020019064010000000081111562000fb257600080fd5b82018360208201111562000fc557600080fd5b8035906020019184600183028401116401000000008311171562000fe857600080fd5b9091929391929390803590602001906401000000008111156200100a57600080fd5b8201836020820111156200101d57600080fd5b803590602001918460018302840111640100000000831117156200104057600080fd5b9091929391929390803573ffffffffffffffffffffffffffffffffffffffff16906020019092919050505062003771565b005b3480156200108057600080fd5b50620010fe600480360360208110156200109957600080fd5b8101908080359060200190640100000000811115620010b757600080fd5b820183602082011115620010ca57600080fd5b80359060200191846001830284011164010000000083111715620010ed57600080fd5b909192939192939050505062003ac3565b005b3480156200110d57600080fd5b5062001153600480360360208110156200112657600080fd5b81019080803573ffffffffffffffffffffffffffffffffffffffff16906020019092919050505062003cfd565b005b600854341015620011ce576040517f08c379a000000000000000000000000000000000000000000000000000000000815260040180806020018281038252601c8152602001807f496e73756666696369656e74204554482066656520697320706169640000000081525060200191505060405180910390fd5b6000600260008673ffffffffffffffffffffffffffffffffffffffff1673ffffffffffffffffffffffffffffffffffffffff168152602001908152602001600020805460018160011615610100020316600290049050141562001299576040517f08c379a00000000000000000000000000000000000000000000000000000000081526004018080602001828103825260148152602001807f546f6b656e206973206e6f74206272696467656400000000000000000000000081525060200191505060405180910390fd5b8373ffffffffffffffffffffffffffffffffffffffff166323b872dd620012bf62003f0f565b30846040518463ffffffff1660e01b8152600401808473ffffffffffffffffffffffffffffffffffffffff1673ffffffffffffffffffffffffffffffffffffffff1681526020018373ffffffffffffffffffffffffffffffffffffffff1673ffffffffffffffffffffffffffffffffffffffff1681526020018281526020019350505050602060405180830381600087803b1580156200135e57600080fd5b505af115801562001373573d6000803e3d6000fd5b505050506040513d60208110156200138a57600080fd5b81019080805190602001909291905050506200140e576040517f08c379a000000000000000000000000000000000000000000000000000000000815260040180806020018281038252600f8152602001807f5472616e73666572206661696c6564000000000000000000000000000000000081525060200191505060405180910390fd5b8373ffffffffffffffffffffffffffffffffffffffff167f0735266524c86c9dce5f6cba7aa27a20a8a1bda27bb9253902e1a295d09699a884848460405180806020018381526020018281038252858582818152602001925080828437600081840152601f19601f82011690508083019250505094505050505060405180910390a250505050565b600660009054906101000a900473ffffffffffffffffffffffffffffffffffffffff1673ffffffffffffffffffffffffffffffffffffffff16620014d962003f0f565b73ffffffffffffffffffffffffffffffffffffffff161462001563576040517f08c379a000000000000000000000000000000000000000000000000000000000815260040180806020018281038252601a8152602001807f43616c6c6572206973206e6f742074686520676f7665726e6f7200000000000081525060200191505060405180910390fd5b6060600260008373ffffffffffffffffffffffffffffffffffffffff1673ffffffffffffffffffffffffffffffffffffffff1681526020019081526020016000208054600181600116156101000203166002900480601f0160208091040260200160405190810160405280929190818152602001828054600181600116156101000203166002900480156200163c5780601f1062001610576101008083540402835291602001916200163c565b820191906000526020600020905b8154815290600101906020018083116200161e57829003601f168201915b50505050509050600081511415620016bc576040517f08c379a00000000000000000000000000000000000000000000000000000000081526004018080602001828103825260148152602001807f4173736574206973206e6f74206272696467656400000000000000000000000081525060200191505060405180910390fd5b8173ffffffffffffffffffffffffffffffffffffffff166001826040518082805190602001908083835b602083106200170b5780518252602082019150602081019050602083039250620016e6565b6001836020036101000a038019825116818451168082178552505050505050905001915050908152602001604051809103902060009054906101000a900473ffffffffffffffffffffffffffffffffffffffff1673ffffffffffffffffffffffffffffffffffffffff1614620017e9576040517f08c379a000000000000000000000000000000000000000000000000000000000815260040180806020018281038252601a8152602001807f455243323020746f6b656e206973206e6f74206272696467656400000000000081525060200191505060405180910390fd5b60006003826040518082805190602001908083835b60208310620018235780518252602082019150602081019050602083039250620017fe565b6001836020036101000a03801982511681845116808217855250505050505090500191505090815260200160405180910390208054600181600116156101000203166002900490501415620018e0576040517f08c379a00000000000000000000000000000000000000000000000000000000081526004018080602001828103825260188152602001807f4163636f756e74206973206e6f7420737065636966696564000000000000000081525060200191505060405180910390fd5b60008273ffffffffffffffffffffffffffffffffffffffff166370a08231306040518263ffffffff1660e01b8152600401808273ffffffffffffffffffffffffffffffffffffffff1673ffffffffffffffffffffffffffffffffffffffff16815260200191505060206040518083038186803b1580156200196057600080fd5b505afa15801562001975573d6000803e3d6000fd5b505050506040513d60208110156200198c57600080fd5b81019080805190602001909291905050509050600081148062001a3157508273ffffffffffffffffffffffffffffffffffffffff166318160ddd6040518163ffffffff1660e01b815260040160206040518083038186803b158015620019f157600080fd5b505afa15801562001a06573d6000803e3d6000fd5b505050506040513d602081101562001a1d57600080fd5b810190808051906020019092919050505081145b62001a88576040517f08c379a000000000000000000000000000000000000000000000000000000000815260040180806020018281038252602781526020018062005f876027913960400191505060405180910390fd5b6001826040518082805190602001908083835b6020831062001ac0578051825260208201915060208101905060208303925062001a9b565b6001836020036101000a038019825116818451168082178552505050505050905001915050908152602001604051809103902060006101000a81549073ffffffffffffffffffffffffffffffffffffffff0219169055600260008473ffffffffffffffffffffffffffffffffffffffff1673ffffffffffffffffffffffffffffffffffffffff168152602001908152602001600020600062001b63919062003f17565b6003826040518082805190602001908083835b6020831062001b9b578051825260208201915060208101905060208303925062001b76565b6001836020036101000a0380198251168184511680821785525050505050509050019150509081526020016040518091039020600062001bdc919062003f17565b505050565b600062001bed62003f0f565b73ffffffffffffffffffffffffffffffffffffffff166000809054906101000a900473ffffffffffffffffffffffffffffffffffffffff1673ffffffffffffffffffffffffffffffffffffffff161462001caf576040517f08c379a00000000000000000000000000000000000000000000000000000000081526004018080602001828103825260208152602001807f4f776e61626c653a2063616c6c6572206973206e6f7420746865206f776e657281525060200191505060405180910390fd5b6000600260008573ffffffffffffffffffffffffffffffffffffffff1673ffffffffffffffffffffffffffffffffffffffff1681526020019081526020016000208054600181600116156101000203166002900490501462001d5d576040517f08c379a000000000000000000000000000000000000000000000000000000000815260040180806020018281038252602681526020018062005f616026913960400191505060405180910390fd5b8273ffffffffffffffffffffffffffffffffffffffff1663a9059cbb62001d83620026cb565b846040518363ffffffff1660e01b8152600401808373ffffffffffffffffffffffffffffffffffffffff1673ffffffffffffffffffffffffffffffffffffffff16815260200182815260200192505050602060405180830381600087803b15801562001dee57600080fd5b505af115801562001e03573d6000803e3d6000fd5b505050506040513d602081101562001e1a57600080fd5b8101908080519060200190929190505050905092915050565b600660009054906101000a900473ffffffffffffffffffffffffffffffffffffffff1681565b6005818051602081018201805184825260208301602085012081835280955050505050506000915090508054600181600116156101000203166002900480601f01602080910402602001604051908101604052809291908181526020018280546001816001161561010002031660029004801562001f1b5780601f1062001eef5761010080835404028352916020019162001f1b565b820191906000526020600020905b81548152906001019060200180831162001efd57829003601f168201915b505050505081565b60026020528060005260406000206000915090508054600181600116156101000203166002900480601f01602080910402602001604051908101604052809291908181526020018280546001816001161561010002031660029004801562001fcf5780601f1062001fa35761010080835404028352916020019162001fcf565b820191906000526020600020905b81548152906001019060200180831162001fb157829003601f168201915b505050505081565b6003818051602081018201805184825260208301602085012081835280955050505050506000915090508054600181600116156101000203166002900480601f016020809104026020016040519081016040528092919081815260200182805460018160011615610100020316600290048015620020995780601f106200206d5761010080835404028352916020019162002099565b820191906000526020600020905b8154815290600101906020018083116200207b57829003601f168201915b505050505081565b620020ab62003f0f565b73ffffffffffffffffffffffffffffffffffffffff166000809054906101000a900473ffffffffffffffffffffffffffffffffffffffff1673ffffffffffffffffffffffffffffffffffffffff16146200216d576040517f08c379a00000000000000000000000000000000000000000000000000000000081526004018080602001828103825260208152602001807f4f776e61626c653a2063616c6c6572206973206e6f7420746865206f776e657281525060200191505060405180910390fd5b600060048585604051808383808284378083019250505092505050908152602001604051809103902060009054906101000a900473ffffffffffffffffffffffffffffffffffffffff169050600073ffffffffffffffffffffffffffffffffffffffff168173ffffffffffffffffffffffffffffffffffffffff1614156200225d576040517f08c379a00000000000000000000000000000000000000000000000000000000081526004018080602001828103825260188152602001807f526563697069656e7420646f6573206e6f74206578697374000000000000000081525060200191505060405180910390fd5b60048585604051808383808284378083019250505092505050908152602001604051809103902060006101000a81549073ffffffffffffffffffffffffffffffffffffffff02191690556005858560405180838380828437808301925050509250505090815260200160405180910390206000620022dc919062003f17565b8273ffffffffffffffffffffffffffffffffffffffff1663a9059cbb82846040518363ffffffff1660e01b8152600401808373ffffffffffffffffffffffffffffffffffffffff1673ffffffffffffffffffffffffffffffffffffffff16815260200182815260200192505050602060405180830381600087803b1580156200236457600080fd5b505af115801562002379573d6000803e3d6000fd5b505050506040513d60208110156200239057600080fd5b810190808051906020019092919050505062002414576040517f08c379a000000000000000000000000000000000000000000000000000000000815260040180806020018281038252600f8152602001807f5472616e73666572206661696c6564000000000000000000000000000000000081525060200191505060405180910390fd5b5050505050565b6001818051602081018201805184825260208301602085012081835280955050505050506000915054906101000a900473ffffffffffffffffffffffffffffffffffffffff1681565b6200246e62003f0f565b73ffffffffffffffffffffffffffffffffffffffff166000809054906101000a900473ffffffffffffffffffffffffffffffffffffffff1673ffffffffffffffffffffffffffffffffffffffff161462002530576040517f08c379a00000000000000000000000000000000000000000000000000000000081526004018080602001828103825260208152602001807f4f776e61626c653a2063616c6c6572206973206e6f7420746865206f776e657281525060200191505060405180910390fd5b600073ffffffffffffffffffffffffffffffffffffffff166000809054906101000a900473ffffffffffffffffffffffffffffffffffffffff1673ffffffffffffffffffffffffffffffffffffffff167f8be0079c531659141344cd1fd0a4f28419497f9722a3daafe3b4186f6b6457e060405160405180910390a360008060006101000a81548173ffffffffffffffffffffffffffffffffffffffff021916908373ffffffffffffffffffffffffffffffffffffffff160217905550565b60095481565b620025ff62003f0f565b73ffffffffffffffffffffffffffffffffffffffff166000809054906101000a900473ffffffffffffffffffffffffffffffffffffffff1673ffffffffffffffffffffffffffffffffffffffff1614620026c1576040517f08c379a00000000000000000000000000000000000000000000000000000000081526004018080602001828103825260208152602001807f4f776e61626c653a2063616c6c6572206973206e6f7420746865206f776e657281525060200191505060405180910390fd5b8060088190555050565b60008060009054906101000a900473ffffffffffffffffffffffffffffffffffffffff16905090565b60075481565b6200270462003f0f565b73ffffffffffffffffffffffffffffffffffffffff166000809054906101000a900473ffffffffffffffffffffffffffffffffffffffff1673ffffffffffffffffffffffffffffffffffffffff1614620027c6576040517f08c379a00000000000000000000000000000000000000000000000000000000081526004018080602001828103825260208152602001807f4f776e61626c653a2063616c6c6572206973206e6f7420746865206f776e657281525060200191505060405180910390fd5b8060078190555050565b60085481565b620027e062003f0f565b73ffffffffffffffffffffffffffffffffffffffff166000809054906101000a900473ffffffffffffffffffffffffffffffffffffffff1673ffffffffffffffffffffffffffffffffffffffff1614620028a2576040517f08c379a00000000000000000000000000000000000000000000000000000000081526004018080602001828103825260208152602001807f4f776e61626c653a2063616c6c6572206973206e6f7420746865206f776e657281525060200191505060405180910390fd5b8273ffffffffffffffffffffffffffffffffffffffff1663a9059cbb83836040518363ffffffff1660e01b8152600401808373ffffffffffffffffffffffffffffffffffffffff1673ffffffffffffffffffffffffffffffffffffffff16815260200182815260200192505050602060405180830381600087803b1580156200292a57600080fd5b505af11580156200293f573d6000803e3d6000fd5b505050506040513d60208110156200295657600080fd5b8101908080519060200190929190505050620029da576040517f08c379a000000000000000000000000000000000000000000000000000000000815260040180806020018281038252600f8152602001807f5472616e73666572206661696c6564000000000000000000000000000000000081525060200191505060405180910390fd5b5050505050565b620029eb62003f0f565b73ffffffffffffffffffffffffffffffffffffffff166000809054906101000a900473ffffffffffffffffffffffffffffffffffffffff1673ffffffffffffffffffffffffffffffffffffffff161462002aad576040517f08c379a00000000000000000000000000000000000000000000000000000000081526004018080602001828103825260208152602001807f4f776e61626c653a2063616c6c6572206973206e6f7420746865206f776e657281525060200191505060405180910390fd5b8060098190555050565b6004818051602081018201805184825260208301602085012081835280955050505050506000915054906101000a900473ffffffffffffffffffffffffffffffffffffffff1681565b600062002b0c62003f0f565b73ffffffffffffffffffffffffffffffffffffffff166000809054906101000a900473ffffffffffffffffffffffffffffffffffffffff1673ffffffffffffffffffffffffffffffffffffffff161462002bce576040517f08c379a00000000000000000000000000000000000000000000000000000000081526004018080602001828103825260208152602001807f4f776e61626c653a2063616c6c6572206973206e6f7420746865206f776e657281525060200191505060405180910390fd5b62002bd8620026cb565b73ffffffffffffffffffffffffffffffffffffffff166108fc839081150290604051600060405180830381858888f1935050505015801562002c1e573d6000803e3d6000fd5b5060019050919050565b62002c3262003f0f565b73ffffffffffffffffffffffffffffffffffffffff166000809054906101000a900473ffffffffffffffffffffffffffffffffffffffff1673ffffffffffffffffffffffffffffffffffffffff161462002cf4576040517f08c379a00000000000000000000000000000000000000000000000000000000081526004018080602001828103825260208152602001807f4f776e61626c653a2063616c6c6572206973206e6f7420746865206f776e657281525060200191505060405180910390fd5b80600660006101000a81548173ffffffffffffffffffffffffffffffffffffffff021916908373ffffffffffffffffffffffffffffffffffffffff16021790555050565b600660009054906101000a900473ffffffffffffffffffffffffffffffffffffffff1673ffffffffffffffffffffffffffffffffffffffff1662002d7b62003f0f565b73ffffffffffffffffffffffffffffffffffffffff161462002e05576040517f08c379a000000000000000000000000000000000000000000000000000000000815260040180806020018281038252601a8152602001807f43616c6c6572206973206e6f742074686520676f7665726e6f7200000000000081525060200191505060405180910390fd5b600073ffffffffffffffffffffffffffffffffffffffff1660018585604051808383808284378083019250505092505050908152602001604051809103902060009054906101000a900473ffffffffffffffffffffffffffffffffffffffff1673ffffffffffffffffffffffffffffffffffffffff161462002eef576040517f08c379a000000000000000000000000000000000000000000000000000000000815260040180806020018281038252601a8152602001807f455243323020746f6b656e20616c72656164792065786973747300000000000081525060200191505060405180910390fd5b6000600260008773ffffffffffffffffffffffffffffffffffffffff1673ffffffffffffffffffffffffffffffffffffffff1681526020019081526020016000208054600181600116156101000203166002900490501462002fb9576040517f08c379a00000000000000000000000000000000000000000000000000000000081526004018080602001828103825260148152602001807f417373657420616c72656164792065786973747300000000000000000000000081525060200191505060405180910390fd5b6000600385856040518083838082843780830192505050925050509081526020016040518091039020805460018160011615610100020316600290049050146200306b576040517f08c379a00000000000000000000000000000000000000000000000000000000081526004018080602001828103825260168152602001807f4163636f756e7420616c7265616479206578697374730000000000000000000081525060200191505060405180910390fd5b60008573ffffffffffffffffffffffffffffffffffffffff166370a08231306040518263ffffffff1660e01b8152600401808273ffffffffffffffffffffffffffffffffffffffff1673ffffffffffffffffffffffffffffffffffffffff16815260200191505060206040518083038186803b158015620030eb57600080fd5b505afa15801562003100573d6000803e3d6000fd5b505050506040513d60208110156200311757600080fd5b81019080805190602001909291905050501462003180576040517f08c379a000000000000000000000000000000000000000000000000000000000815260040180806020018281038252602b81526020018062005f10602b913960400191505060405180910390fd5b600954341015620031f9576040517f08c379a000000000000000000000000000000000000000000000000000000000815260040180806020018281038252601c8152602001807f496e73756666696369656e74204554482066656520697320706169640000000081525060200191505060405180910390fd5b8460018585604051808383808284378083019250505092505050908152602001604051809103902060006101000a81548173ffffffffffffffffffffffffffffffffffffffff021916908373ffffffffffffffffffffffffffffffffffffffff1602179055508383600260008873ffffffffffffffffffffffffffffffffffffffff1673ffffffffffffffffffffffffffffffffffffffff1681526020019081526020016000209190620032af92919062003f63565b5081816003868660405180838380828437808301925050509250505090815260200160405180910390209190620032e892919062003f63565b505050505050565b600660009054906101000a900473ffffffffffffffffffffffffffffffffffffffff1673ffffffffffffffffffffffffffffffffffffffff166200333362003f0f565b73ffffffffffffffffffffffffffffffffffffffff1614620033bd576040517f08c379a000000000000000000000000000000000000000000000000000000000815260040180806020018281038252601a8152602001807f43616c6c6572206973206e6f742074686520676f7665726e6f7200000000000081525060200191505060405180910390fd5b600073ffffffffffffffffffffffffffffffffffffffff1660018a8a604051808383808284378083019250505092505050908152602001604051809103902060009054906101000a900473ffffffffffffffffffffffffffffffffffffffff1673ffffffffffffffffffffffffffffffffffffffff1614620034a7576040517f08c379a000000000000000000000000000000000000000000000000000000000815260040180806020018281038252601a8152602001807f455243323020746f6b656e20616c72656164792065786973747300000000000081525060200191505060405180910390fd5b600060038a8a60405180838380828437808301925050509250505090815260200160405180910390208054600181600116156101000203166002900490501462003559576040517f08c379a00000000000000000000000000000000000000000000000000000000081526004018080602001828103825260168152602001807f4163636f756e7420616c7265616479206578697374730000000000000000000081525060200191505060405180910390fd5b600954341015620035d2576040517f08c379a000000000000000000000000000000000000000000000000000000000815260040180806020018281038252601c8152602001807f496e73756666696369656e74204554482066656520697320706169640000000081525060200191505060405180910390fd5b60008585858585604051620035e79062003fea565b8080602001806020018481526020018381038352888882818152602001925080828437600081840152601f19601f8201169050808301925050508381038252868682818152602001925080828437600081840152601f19601f820116905080830192505050975050505050505050604051809103906000f08015801562003672573d6000803e3d6000fd5b5090508060018b8b604051808383808284378083019250505092505050908152602001604051809103902060006101000a81548173ffffffffffffffffffffffffffffffffffffffff021916908373ffffffffffffffffffffffffffffffffffffffff1602179055508989600260008473ffffffffffffffffffffffffffffffffffffffff1673ffffffffffffffffffffffffffffffffffffffff16815260200190815260200160002091906200372b92919062003f63565b50878760038c8c604051808383808284378083019250505092505050908152602001604051809103902091906200376492919062003f63565b5050505050505050505050565b600754341015620037ea576040517f08c379a000000000000000000000000000000000000000000000000000000000815260040180806020018281038252601c8152602001807f496e73756666696369656e74204554482066656520697320706169640000000081525060200191505060405180910390fd5b600073ffffffffffffffffffffffffffffffffffffffff1660048686604051808383808284378083019250505092505050908152602001604051809103902060009054906101000a900473ffffffffffffffffffffffffffffffffffffffff1673ffffffffffffffffffffffffffffffffffffffff1614620038d4576040517f08c379a000000000000000000000000000000000000000000000000000000000815260040180806020018281038252601f8152602001807f526563697069656e7420697320616c72656164792064657465726d696e65640081525060200191505060405180910390fd5b60006005868660405180838380828437808301925050509250505090815260200160405180910390208054600181600116156101000203166002900490501462003986576040517f08c379a000000000000000000000000000000000000000000000000000000000815260040180806020018281038252601f8152602001807f5369676e617475726520697320616c72656164792064657465726d696e65640081525060200191505060405180910390fd5b8060048686604051808383808284378083019250505092505050908152602001604051809103902060006101000a81548173ffffffffffffffffffffffffffffffffffffffff021916908373ffffffffffffffffffffffffffffffffffffffff1602179055508282600587876040518083838082843780830192505050925050509081526020016040518091039020919062003a2492919062003f63565b507f5aded5f5ee5fb4eaf40251f842d09ea3bedc879618c6d74b5af5078ad765953685858360405180806020018373ffffffffffffffffffffffffffffffffffffffff1673ffffffffffffffffffffffffffffffffffffffff1681526020018281038252858582818152602001925080828437600081840152601f19601f82011690508083019250505094505050505060405180910390a15050505050565b62003acd62003f0f565b73ffffffffffffffffffffffffffffffffffffffff166000809054906101000a900473ffffffffffffffffffffffffffffffffffffffff1673ffffffffffffffffffffffffffffffffffffffff161462003b8f576040517f08c379a00000000000000000000000000000000000000000000000000000000081526004018080602001828103825260208152602001807f4f776e61626c653a2063616c6c6572206973206e6f7420746865206f776e657281525060200191505060405180910390fd5b600073ffffffffffffffffffffffffffffffffffffffff1660048383604051808383808284378083019250505092505050908152602001604051809103902060009054906101000a900473ffffffffffffffffffffffffffffffffffffffff1673ffffffffffffffffffffffffffffffffffffffff16141562003c7a576040517f08c379a00000000000000000000000000000000000000000000000000000000081526004018080602001828103825260118152602001807f547820646f6573206e6f7420657869737400000000000000000000000000000081525060200191505060405180910390fd5b60048282604051808383808284378083019250505092505050908152602001604051809103902060006101000a81549073ffffffffffffffffffffffffffffffffffffffff0219169055600582826040518083838082843780830192505050925050509081526020016040518091039020600062003cf9919062003f17565b5050565b62003d0762003f0f565b73ffffffffffffffffffffffffffffffffffffffff166000809054906101000a900473ffffffffffffffffffffffffffffffffffffffff1673ffffffffffffffffffffffffffffffffffffffff161462003dc9576040517f08c379a00000000000000000000000000000000000000000000000000000000081526004018080602001828103825260208152602001807f4f776e61626c653a2063616c6c6572206973206e6f7420746865206f776e657281525060200191505060405180910390fd5b600073ffffffffffffffffffffffffffffffffffffffff168173ffffffffffffffffffffffffffffffffffffffff16141562003e51576040517f08c379a000000000000000000000000000000000000000000000000000000000815260040180806020018281038252602681526020018062005f3b6026913960400191505060405180910390fd5b8073ffffffffffffffffffffffffffffffffffffffff166000809054906101000a900473ffffffffffffffffffffffffffffffffffffffff1673ffffffffffffffffffffffffffffffffffffffff167f8be0079c531659141344cd1fd0a4f28419497f9722a3daafe3b4186f6b6457e060405160405180910390a3806000806101000a81548173ffffffffffffffffffffffffffffffffffffffff021916908373ffffffffffffffffffffffffffffffffffffffff16021790555050565b600033905090565b50805460018160011615610100020316600290046000825580601f1062003f3f575062003f60565b601f01602090049060005260206000209081019062003f5f919062003ff8565b5b50565b828054600181600116156101000203166002900490600052602060002090601f016020900481019282601f1062003fa657803560ff191683800117855562003fd7565b8280016001018555821562003fd7579182015b8281111562003fd657823582559160200191906001019062003fb9565b5b50905062003fe6919062003ff8565b5090565b611eef806200402183390190565b6200401d91905b808211156200401957600081600090555060010162003fff565b5090565b9056fe60806040523480156200001157600080fd5b5060405162001eef38038062001eef833981810160405260608110156200003757600080fd5b81019080805160405193929190846401000000008211156200005857600080fd5b838201915060208201858111156200006f57600080fd5b82518660018202830111640100000000821117156200008d57600080fd5b8083526020830192505050908051906020019080838360005b83811015620000c3578082015181840152602081019050620000a6565b50505050905090810190601f168015620000f15780820380516001836020036101000a031916815260200191505b50604052602001805160405193929190846401000000008211156200011557600080fd5b838201915060208201858111156200012c57600080fd5b82518660018202830111640100000000821117156200014a57600080fd5b8083526020830192505050908051906020019080838360005b838110156200018057808201518184015260208101905062000163565b50505050905090810190601f168015620001ae5780820380516001836020036101000a031916815260200191505b506040526020018051906020019092919050505082828160039080519060200190620001dc92919062000563565b508060049080519060200190620001f592919062000563565b506012600560006101000a81548160ff021916908360ff1602179055505050600062000226620002ef60201b60201c565b905080600560016101000a81548173ffffffffffffffffffffffffffffffffffffffff021916908373ffffffffffffffffffffffffffffffffffffffff1602179055508073ffffffffffffffffffffffffffffffffffffffff16600073ffffffffffffffffffffffffffffffffffffffff167f8be0079c531659141344cd1fd0a4f28419497f9722a3daafe3b4186f6b6457e060405160405180910390a350620002e6620002d9620002ef60201b60201c565b82620002f760201b60201c565b50505062000612565b600033905090565b600073ffffffffffffffffffffffffffffffffffffffff168273ffffffffffffffffffffffffffffffffffffffff1614156200039b576040517f08c379a000000000000000000000000000000000000000000000000000000000815260040180806020018281038252601f8152602001807f45524332303a206d696e7420746f20746865207a65726f20616464726573730081525060200191505060405180910390fd5b620003af60008383620004d560201b60201c565b620003cb81600254620004da60201b6200151c1790919060201c565b60028190555062000429816000808573ffffffffffffffffffffffffffffffffffffffff1673ffffffffffffffffffffffffffffffffffffffff16815260200190815260200160002054620004da60201b6200151c1790919060201c565b6000808473ffffffffffffffffffffffffffffffffffffffff1673ffffffffffffffffffffffffffffffffffffffff168152602001908152602001600020819055508173ffffffffffffffffffffffffffffffffffffffff16600073ffffffffffffffffffffffffffffffffffffffff167fddf252ad1be2c89b69c2b068fc378daa952ba7f163c4a11628f55a4df523b3ef836040518082815260200191505060405180910390a35050565b505050565b60008082840190508381101562000559576040517f08c379a000000000000000000000000000000000000000000000000000000000815260040180806020018281038252601b8152602001807f536166654d6174683a206164646974696f6e206f766572666c6f77000000000081525060200191505060405180910390fd5b8091505092915050565b828054600181600116156101000203166002900490600052602060002090601f016020900481019282601f10620005a657805160ff1916838001178555620005d7565b82800160010185558215620005d7579182015b82811115620005d6578251825591602001919060010190620005b9565b5b509050620005e69190620005ea565b5090565b6200060f91905b808211156200060b576000816000905550600101620005f1565b5090565b90565b6118cd80620006226000396000f3fe608060405234801561001057600080fd5b50600436106100f55760003560e01c806370a0823111610097578063a457c2d711610066578063a457c2d7146104a6578063a9059cbb1461050c578063dd62ed3e14610572578063f2fde38b146105ea576100f5565b806370a0823114610377578063715018a6146103cf5780638da5cb5b146103d957806395d89b4114610423576100f5565b806323b872dd116100d357806323b872dd14610201578063313ce5671461028757806339509351146102ab57806340c10f1914610311576100f5565b806306fdde03146100fa578063095ea7b31461017d57806318160ddd146101e3575b600080fd5b61010261062e565b6040518080602001828103825283818151815260200191508051906020019080838360005b83811015610142578082015181840152602081019050610127565b50505050905090810190601f16801561016f5780820380516001836020036101000a031916815260200191505b509250505060405180910390f35b6101c96004803603604081101561019357600080fd5b81019080803573ffffffffffffffffffffffffffffffffffffffff169060200190929190803590602001909291905050506106d0565b604051808215151515815260200191505060405180910390f35b6101eb6106ee565b6040518082815260200191505060405180910390f35b61026d6004803603606081101561021757600080fd5b81019080803573ffffffffffffffffffffffffffffffffffffffff169060200190929190803573ffffffffffffffffffffffffffffffffffffffff169060200190929190803590602001909291905050506106f8565b604051808215151515815260200191505060405180910390f35b61028f6107d1565b604051808260ff1660ff16815260200191505060405180910390f35b6102f7600480360360408110156102c157600080fd5b81019080803573ffffffffffffffffffffffffffffffffffffffff169060200190929190803590602001909291905050506107e8565b604051808215151515815260200191505060405180910390f35b61035d6004803603604081101561032757600080fd5b81019080803573ffffffffffffffffffffffffffffffffffffffff1690602001909291908035906020019092919050505061089b565b604051808215151515815260200191505060405180910390f35b6103b96004803603602081101561038d57600080fd5b81019080803573ffffffffffffffffffffffffffffffffffffffff16906020019092919050505061097b565b6040518082815260200191505060405180910390f35b6103d76109c3565b005b6103e1610b4e565b604051808273ffffffffffffffffffffffffffffffffffffffff1673ffffffffffffffffffffffffffffffffffffffff16815260200191505060405180910390f35b61042b610b78565b6040518080602001828103825283818151815260200191508051906020019080838360005b8381101561046b578082015181840152602081019050610450565b50505050905090810190601f1680156104985780820380516001836020036101000a031916815260200191505b509250505060405180910390f35b6104f2600480360360408110156104bc57600080fd5b81019080803573ffffffffffffffffffffffffffffffffffffffff16906020019092919080359060200190929190505050610c1a565b604051808215151515815260200191505060405180910390f35b6105586004803603604081101561052257600080fd5b81019080803573ffffffffffffffffffffffffffffffffffffffff16906020019092919080359060200190929190505050610ce7565b604051808215151515815260200191505060405180910390f35b6105d46004803603604081101561058857600080fd5b81019080803573ffffffffffffffffffffffffffffffffffffffff169060200190929190803573ffffffffffffffffffffffffffffffffffffffff169060200190929190505050610d05565b6040518082815260200191505060405180910390f35b61062c6004803603602081101561060057600080fd5b81019080803573ffffffffffffffffffffffffffffffffffffffff169060200190929190505050610d8c565b005b606060038054600181600116156101000203166002900480601f0160208091040260200160405190810160405280929190818152602001828054600181600116156101000203166002900480156106c65780601f1061069b576101008083540402835291602001916106c6565b820191906000526020600020905b8154815290600101906020018083116106a957829003601f168201915b5050505050905090565b60006106e46106dd610f9c565b8484610fa4565b6001905092915050565b6000600254905090565b600061070584848461119b565b6107c684610711610f9c565b6107c18560405180606001604052806028815260200161180260289139600160008b73ffffffffffffffffffffffffffffffffffffffff1673ffffffffffffffffffffffffffffffffffffffff1681526020019081526020016000206000610777610f9c565b73ffffffffffffffffffffffffffffffffffffffff1673ffffffffffffffffffffffffffffffffffffffff1681526020019081526020016000205461145c9092919063ffffffff16565b610fa4565b600190509392505050565b6000600560009054906101000a900460ff16905090565b60006108916107f5610f9c565b8461088c8560016000610806610f9c565b73ffffffffffffffffffffffffffffffffffffffff1673ffffffffffffffffffffffffffffffffffffffff16815260200190815260200160002060008973ffffffffffffffffffffffffffffffffffffffff1673ffffffffffffffffffffffffffffffffffffffff1681526020019081526020016000205461151c90919063ffffffff16565b610fa4565b6001905092915050565b60006108a5610f9c565b73ffffffffffffffffffffffffffffffffffffffff16600560019054906101000a900473ffffffffffffffffffffffffffffffffffffffff1673ffffffffffffffffffffffffffffffffffffffff1614610967576040517f08c379a00000000000000000000000000000000000000000000000000000000081526004018080602001828103825260208152602001807f4f776e61626c653a2063616c6c6572206973206e6f7420746865206f776e657281525060200191505060405180910390fd5b61097183836115a4565b6001905092915050565b60008060008373ffffffffffffffffffffffffffffffffffffffff1673ffffffffffffffffffffffffffffffffffffffff168152602001908152602001600020549050919050565b6109cb610f9c565b73ffffffffffffffffffffffffffffffffffffffff16600560019054906101000a900473ffffffffffffffffffffffffffffffffffffffff1673ffffffffffffffffffffffffffffffffffffffff1614610a8d576040517f08c379a00000000000000000000000000000000000000000000000000000000081526004018080602001828103825260208152602001807f4f776e61626c653a2063616c6c6572206973206e6f7420746865206f776e657281525060200191505060405180910390fd5b600073ffffffffffffffffffffffffffffffffffffffff16600560019054906101000a900473ffffffffffffffffffffffffffffffffffffffff1673ffffffffffffffffffffffffffffffffffffffff167f8be0079c531659141344cd1fd0a4f28419497f9722a3daafe3b4186f6b6457e060405160405180910390a36000600560016101000a81548173ffffffffffffffffffffffffffffffffffffffff021916908373ffffffffffffffffffffffffffffffffffffffff160217905550565b6000600560019054906101000a900473ffffffffffffffffffffffffffffffffffffffff16905090565b606060048054600181600116156101000203166002900480601f016020809104026020016040519081016040528092919081815260200182805460018160011615610100020316600290048015610c105780601f10610be557610100808354040283529160200191610c10565b820191906000526020600020905b815481529060010190602001808311610bf357829003601f168201915b5050505050905090565b6000610cdd610c27610f9c565b84610cd8856040518060600160405280602581526020016118736025913960016000610c51610f9c565b73ffffffffffffffffffffffffffffffffffffffff1673ffffffffffffffffffffffffffffffffffffffff16815260200190815260200160002060008a73ffffffffffffffffffffffffffffffffffffffff1673ffffffffffffffffffffffffffffffffffffffff1681526020019081526020016000205461145c9092919063ffffffff16565b610fa4565b6001905092915050565b6000610cfb610cf4610f9c565b848461119b565b6001905092915050565b6000600160008473ffffffffffffffffffffffffffffffffffffffff1673ffffffffffffffffffffffffffffffffffffffff16815260200190815260200160002060008373ffffffffffffffffffffffffffffffffffffffff1673ffffffffffffffffffffffffffffffffffffffff16815260200190815260200160002054905092915050565b610d94610f9c565b73ffffffffffffffffffffffffffffffffffffffff16600560019054906101000a900473ffffffffffffffffffffffffffffffffffffffff1673ffffffffffffffffffffffffffffffffffffffff1614610e56576040517f08c379a00000000000000000000000000000000000000000000000000000000081526004018080602001828103825260208152602001807f4f776e61626c653a2063616c6c6572206973206e6f7420746865206f776e657281525060200191505060405180910390fd5b600073ffffffffffffffffffffffffffffffffffffffff168173ffffffffffffffffffffffffffffffffffffffff161415610edc576040517f08c379a00000000000000000000000000000000000000000000000000000000081526004018080602001828103825260268152602001806117946026913960400191505060405180910390fd5b8073ffffffffffffffffffffffffffffffffffffffff16600560019054906101000a900473ffffffffffffffffffffffffffffffffffffffff1673ffffffffffffffffffffffffffffffffffffffff167f8be0079c531659141344cd1fd0a4f28419497f9722a3daafe3b4186f6b6457e060405160405180910390a380600560016101000a81548173ffffffffffffffffffffffffffffffffffffffff021916908373ffffffffffffffffffffffffffffffffffffffff16021790555050565b600033905090565b600073ffffffffffffffffffffffffffffffffffffffff168373ffffffffffffffffffffffffffffffffffffffff16141561102a576040517f08c379a000000000000000000000000000000000000000000000000000000000815260040180806020018281038252602481526020018061184f6024913960400191505060405180910390fd5b600073ffffffffffffffffffffffffffffffffffffffff168273ffffffffffffffffffffffffffffffffffffffff1614156110b0576040517f08c379a00000000000000000000000000000000000000000000000000000000081526004018080602001828103825260228152602001806117ba6022913960400191505060405180910390fd5b80600160008573ffffffffffffffffffffffffffffffffffffffff1673ffffffffffffffffffffffffffffffffffffffff16815260200190815260200160002060008473ffffffffffffffffffffffffffffffffffffffff1673ffffffffffffffffffffffffffffffffffffffff168152602001908152602001600020819055508173ffffffffffffffffffffffffffffffffffffffff168373ffffffffffffffffffffffffffffffffffffffff167f8c5be1e5ebec7d5bd14f71427d1e84f3dd0314c0f7b2291e5b200ac8c7c3b925836040518082815260200191505060405180910390a3505050565b600073ffffffffffffffffffffffffffffffffffffffff168373ffffffffffffffffffffffffffffffffffffffff161415611221576040517f08c379a000000000000000000000000000000000000000000000000000000000815260040180806020018281038252602581526020018061182a6025913960400191505060405180910390fd5b600073ffffffffffffffffffffffffffffffffffffffff168273ffffffffffffffffffffffffffffffffffffffff1614156112a7576040517f08c379a00000000000000000000000000000000000000000000000000000000081526004018080602001828103825260238152602001806117716023913960400191505060405180910390fd5b6112b283838361176b565b61131d816040518060600160405280602681526020016117dc602691396000808773ffffffffffffffffffffffffffffffffffffffff1673ffffffffffffffffffffffffffffffffffffffff1681526020019081526020016000205461145c9092919063ffffffff16565b6000808573ffffffffffffffffffffffffffffffffffffffff1673ffffffffffffffffffffffffffffffffffffffff168152602001908152602001600020819055506113b0816000808573ffffffffffffffffffffffffffffffffffffffff1673ffffffffffffffffffffffffffffffffffffffff1681526020019081526020016000205461151c90919063ffffffff16565b6000808473ffffffffffffffffffffffffffffffffffffffff1673ffffffffffffffffffffffffffffffffffffffff168152602001908152602001600020819055508173ffffffffffffffffffffffffffffffffffffffff168373ffffffffffffffffffffffffffffffffffffffff167fddf252ad1be2c89b69c2b068fc378daa952ba7f163c4a11628f55a4df523b3ef836040518082815260200191505060405180910390a3505050565b6000838311158290611509576040517f08c379a00000000000000000000000000000000000000000000000000000000081526004018080602001828103825283818151815260200191508051906020019080838360005b838110156114ce5780820151818401526020810190506114b3565b50505050905090810190601f1680156114fb5780820380516001836020036101000a031916815260200191505b509250505060405180910390fd5b5060008385039050809150509392505050565b60008082840190508381101561159a576040517f08c379a000000000000000000000000000000000000000000000000000000000815260040180806020018281038252601b8152602001807f536166654d6174683a206164646974696f6e206f766572666c6f77000000000081525060200191505060405180910390fd5b8091505092915050565b600073ffffffffffffffffffffffffffffffffffffffff168273ffffffffffffffffffffffffffffffffffffffff161415611647576040517f08c379a000000000000000000000000000000000000000000000000000000000815260040180806020018281038252601f8152602001807f45524332303a206d696e7420746f20746865207a65726f20616464726573730081525060200191505060405180910390fd5b6116536000838361176b565b6116688160025461151c90919063ffffffff16565b6002819055506116bf816000808573ffffffffffffffffffffffffffffffffffffffff1673ffffffffffffffffffffffffffffffffffffffff1681526020019081526020016000205461151c90919063ffffffff16565b6000808473ffffffffffffffffffffffffffffffffffffffff1673ffffffffffffffffffffffffffffffffffffffff168152602001908152602001600020819055508173ffffffffffffffffffffffffffffffffffffffff16600073ffffffffffffffffffffffffffffffffffffffff167fddf252ad1be2c89b69c2b068fc378daa952ba7f163c4a11628f55a4df523b3ef836040518082815260200191505060405180910390a35050565b50505056fe45524332303a207472616e7366657220746f20746865207a65726f20616464726573734f776e61626c653a206e6577206f776e657220697320746865207a65726f206164647265737345524332303a20617070726f766520746f20746865207a65726f206164647265737345524332303a207472616e7366657220616d6f756e7420657863656564732062616c616e636545524332303a207472616e7366657220616d6f756e74206578636565647320616c6c6f77616e636545524332303a207472616e736665722066726f6d20746865207a65726f206164647265737345524332303a20617070726f76652066726f6d20746865207a65726f206164647265737345524332303a2064656372656173656420616c6c6f77616e63652062656c6f77207a65726fa2646970667358221220e7ce40a71978c6d28afd59fa1cba4de704427a04612b8c8c6872bafd03907c8064736f6c63430006000033546f6b656e732073686f756c64206e6f74206578697374206f6e2057654f776e20626c6f636b636861696e4f776e61626c653a206e6577206f776e657220697320746865207a65726f20616464726573734272696467656420455243323020746f6b656e2063616e6e6f7420626520647261696e65642e546f6b656e732063616e206578697374206f6e6c79206f6e206f6e6520626c6f636b636861696ea2646970667358221220204d14f93eed79ab166b960cd35cae7e29e30dc01d3be476c74b65c049310e1264736f6c63430006000033",
  "source": "pragma solidity 0.6.0;\r\n\r\nimport '@openzeppelin/contracts/token/ERC20/ERC20.sol';\r\nimport '@openzeppelin/contracts/access/Ownable.sol';\r\nimport '@openzeppelin/contracts/math/SafeMath.sol';\r\nimport './ERC20Mintable.sol';\r\n\r\n/**\r\n * @notice This contract is used to bridge WeOwn blockchain and any other blockchain running on EVM, primarily Ethereum. \r\n * After establishing bridge between asset on WeOwn blockchain and ERC20 token, cross-chain transfers are enabled and\r\n * users can move their holding between the blockchains. \r\n */\r\ncontract OwnAssetBridge is Ownable {\r\n    using SafeMath for uint;\r\n    enum RevertDirection{ FromNative, ToNative }\r\n\r\n    event CrossChainTransfer(address indexed token, string recipientAccountHash, uint amount);\r\n    event CrossChainTransfer(string txHash, address recipient);\r\n\r\n    mapping (string => address) public erc20Tokens;\r\n    mapping (address => string) public assetHashes;\r\n    mapping (string => string) public accountsForAssets;\r\n    mapping (string => address) public pendingCrossChainTransfers;\r\n    mapping (string => string) public pendingSignedTxs;\r\n\r\n    address public governor;\r\n    uint public targetTransferFee;\r\n    uint public nativeTransferFee;\r\n    uint public bridgeFee;\r\n\r\n    constructor(uint _bridgeFee, uint _targetTransferFee, uint _nativeTransferFee)\r\n        public\r\n    {\r\n        bridgeFee = _bridgeFee;\r\n        targetTransferFee = _targetTransferFee;\r\n        nativeTransferFee = _nativeTransferFee;\r\n        governor = _msgSender();\r\n    }\r\n\r\n    modifier onlyGovernor() {\r\n        require(_msgSender() == governor, \"Caller is not the governor\");\r\n        _;\r\n    }\r\n\r\n    ////////////////////////////////////////////////////////////////////////////////////////////////////\r\n    // Bridge management\r\n    ////////////////////////////////////////////////////////////////////////////////////////////////////\r\n\r\n    /**\r\n     * @notice Function that establishes bridge between existing ERC20 token and newly created asset on WeOwn blockchain.\r\n     * This function can only be called by the governor and all tokens should be circulating on target blockchain, while\r\n     * total supply is locked on WeOwn blockchain.\r\n     */\r\n    /// @param _token Address of ERC20 token\r\n    /// @param _assetHash Hash of WeOwn asset\r\n    /// @param _accountHash Hash of WeOwn account that will hold all locked tokens on WeOwn blockchain\r\n    function bridgeErc20Token(address _token, string calldata _assetHash, string calldata _accountHash)\r\n        external\r\n        onlyGovernor\r\n        payable\r\n    {\r\n        require(erc20Tokens[_assetHash] == address(0), \"ERC20 token already exists\");\r\n        require(bytes(assetHashes[_token]).length == 0, \"Asset already exists\");\r\n        require(bytes(accountsForAssets[_assetHash]).length == 0, \"Account already exists\");\r\n        require(IERC20(_token).balanceOf(address(this)) == 0, \"Tokens should not exist on WeOwn blockchain\");\r\n        require(msg.value >= bridgeFee, \"Insufficient ETH fee is paid\");\r\n\r\n        erc20Tokens[_assetHash] = _token;\r\n        assetHashes[_token] = _assetHash;\r\n        accountsForAssets[_assetHash] = _accountHash;\r\n    }\r\n\r\n    /**\r\n     * @notice Function that deploys new ERC20 token and establishes bridge between existing asset on WeOwn blockchain\r\n     * and newly created ERC20 token. This function can only be called by the governor and all tokens should be \r\n     * circulating on WeOwn blockchain, while total supply is locked on target blockchain.\r\n     */\r\n    /// @param _assetHash Hash of WeOwn asset\r\n    /// @param _accountHash Hash of WeOwn account that will hold all locked tokens on WeOwn blockchain\r\n    /// @param _assetName Name of ERC20 token that will be deployed. Needs to correspond to the name of WeOwn asset\r\n    /// @param _assetSymbol Symbol of ERC20 token that will be deployed. Needs to correspond to the symbol of WeOwn asset\r\n    /// @param _totalSupply Total supply of ERC20 token that will be deployed. Needs to correspond to the total supply of WeOwn asset\r\n    function bridgeAsset(\r\n        string calldata _assetHash, \r\n        string calldata _accountHash, \r\n        string calldata _assetName, \r\n        string calldata _assetSymbol, \r\n        uint _totalSupply)\r\n        external\r\n        onlyGovernor\r\n        payable\r\n    {\r\n        require(erc20Tokens[_assetHash] == address(0), \"ERC20 token already exists\");\r\n        require(bytes(accountsForAssets[_assetHash]).length == 0, \"Account already exists\");\r\n        require(msg.value >= bridgeFee, \"Insufficient ETH fee is paid\");\r\n\r\n        address token = address(new ERC20Mintable(_assetName, _assetSymbol, _totalSupply));\r\n\r\n        erc20Tokens[_assetHash] = token;\r\n        assetHashes[token] = _assetHash;\r\n        accountsForAssets[_assetHash] = _accountHash;\r\n    }\r\n\r\n    /**\r\n     * @notice Function that removes bridge between ERC20 token and asset on WeOwn blockchain. This function can only \r\n     * be called by the governor and all tokens should be circulating on target blockchain or on WeOwn blockchain.\r\n     */\r\n    /// @param _token Address of ERC20 token\r\n    function removeBridge(address _token)\r\n        external\r\n        onlyGovernor\r\n    {\r\n        string memory assetHash = assetHashes[_token];\r\n\r\n        require(bytes(assetHash).length != 0, \"Asset is not bridged\");\r\n        require(erc20Tokens[assetHash] == _token, \"ERC20 token is not bridged\");\r\n        require(bytes(accountsForAssets[assetHash]).length != 0, \"Account is not specified\");\r\n\r\n        uint bridgeBalance = IERC20(_token).balanceOf(address(this));\r\n        require(bridgeBalance == 0 || bridgeBalance == IERC20(_token).totalSupply(), \"Tokens can exist only on one blockchain\");\r\n\r\n        delete erc20Tokens[assetHash];\r\n        delete assetHashes[_token];\r\n        delete accountsForAssets[assetHash];\r\n    }\r\n\r\n    ////////////////////////////////////////////////////////////////////////////////////////////////////\r\n    // Cross-chain transfers\r\n    ////////////////////////////////////////////////////////////////////////////////////////////////////\r\n\r\n    /**\r\n     * @notice Function by which token holder on target blockchain can transfer tokens to WeOwn blockchain.\r\n     * ERC20 token needs to be bridged to WeOwn asset and user should previously approve this contract as\r\n     * spender of desired amount of tokens that should be cross-chain transferred.\r\n     */\r\n    /// @param _token Address of ERC20 token\r\n    /// @param _recipientAccountHash Hash of WeOwn account that should receive tokens\r\n    /// @param _amount Number of tokens that will be transferred\r\n    function transferToNativeChain(address _token, string calldata _recipientAccountHash, uint _amount)\r\n        external\r\n        payable\r\n    {\r\n        require(msg.value >= nativeTransferFee, \"Insufficient ETH fee is paid\");\r\n        require(bytes(assetHashes[_token]).length != 0, \"Token is not bridged\");\r\n        require(IERC20(_token).transferFrom(_msgSender(), address(this), _amount), \"Transfer failed\");\r\n\r\n        emit CrossChainTransfer(_token, _recipientAccountHash, _amount);\r\n    }\r\n\r\n    /**\r\n     * @notice Function by which asset holder on WeOwn blockchain can transfer tokens to target blockchain.\r\n     * Asset needs to be bridged to ERC20 token and asset transfer should be done on WeOwn blockchain.\r\n     */\r\n    /// @param _txHash Hash of tx on WeOwn blockchain which contains asset transfer\r\n    /// @param _signature Signature of tx hash, signed by WeOwn sender address\r\n    /// @param _recipient Address on target blockchain that should receive tokens\r\n    function transferFromNativeChain(string calldata _txHash, string calldata _signature, address _recipient)\r\n        external\r\n        payable\r\n    {\r\n        require(msg.value >= targetTransferFee, \"Insufficient ETH fee is paid\");\r\n        require(pendingCrossChainTransfers[_txHash] == address(0), \"Recipient is already determined\");\r\n        require(bytes(pendingSignedTxs[_txHash]).length == 0, \"Signature is already determined\");\r\n\r\n        pendingCrossChainTransfers[_txHash] = _recipient;\r\n        pendingSignedTxs[_txHash] = _signature;\r\n\r\n        emit CrossChainTransfer(_txHash, _recipient);\r\n    }\r\n\r\n    /**\r\n     * @notice Function by which contract owner confirms cross-chain transfer from WeOwn blockchain. If the tx with\r\n     * asset transfer on WeOwn blockchain is valid and correctly signed, tokens will be released to address on target blockchain.\r\n     */\r\n    /// @param _txHash Hash of tx on WeOwn blockchain which contains asset transfer\r\n    /// @param _token Address of ERC20 token\r\n    /// @param _amount Amount of tokens that will be released\r\n    function confirmTransfer(string calldata _txHash, IERC20 _token, uint _amount)\r\n        external\r\n        onlyOwner\r\n    {\r\n        address recipient = pendingCrossChainTransfers[_txHash];\r\n        require(recipient != address(0), \"Recipient does not exist\");\r\n\r\n        delete pendingCrossChainTransfers[_txHash];\r\n        delete pendingSignedTxs[_txHash];\r\n\r\n        require(_token.transfer(recipient, _amount), \"Transfer failed\");\r\n    }\r\n\r\n    /**\r\n     * @notice Function by which contract owner reverts cross-chain transfer from WeOwn blockchain. \r\n     */\r\n    /// @param _txHash Hash of tx on WeOwn blockchain which contains asset transfer\r\n    function revertTransferFromNativeChain(string calldata _txHash)\r\n        external\r\n        onlyOwner\r\n    {\r\n        require(pendingCrossChainTransfers[_txHash] != address(0), \"Tx does not exist\");\r\n\r\n        delete pendingCrossChainTransfers[_txHash];\r\n        delete pendingSignedTxs[_txHash];\r\n    }\r\n\r\n    /**\r\n     * @notice Function by which contract owner reverts cross-chain transfer from target blockchain. \r\n     */\r\n    /// @param _txHash Hash of tx on target blockchain that is reverted\r\n    /// @param _token Address of ERC20 token\r\n    /// @param _recipient Sender address to which tokens will be transferred back\r\n    /// @param _amount Amount of tokens that will be transferred back to sender address\r\n    function revertTransferToNativeChain(string calldata _txHash, IERC20 _token, address _recipient, uint _amount)\r\n        external\r\n        onlyOwner\r\n    {\r\n        require(_token.transfer(_recipient, _amount), \"Transfer failed\");\r\n    }\r\n\r\n    ////////////////////////////////////////////////////////////////////////////////////////////////////\r\n    // Owner administration\r\n    ////////////////////////////////////////////////////////////////////////////////////////////////////\r\n\r\n    /**\r\n     * @notice Function by which contract owner sets governor address - address that can perform bridging and unbridging\r\n     * of ERC20 token and WeOwn asset. \r\n     */\r\n    /// @param _governor New governor address\r\n    function setGovernor(address _governor)\r\n        external\r\n        onlyOwner\r\n    {\r\n        governor = _governor;\r\n    }\r\n\r\n    /**\r\n     * @notice Function by which contract owner sets fee that is paid for cross-chain transfer from WeOwn to target blockchain\r\n     */\r\n    /// @param _amount New fee amount\r\n    function setTargetTransferFee(uint _amount)\r\n        external\r\n        onlyOwner\r\n    {\r\n        targetTransferFee = _amount;\r\n    }\r\n\r\n    /**\r\n     * @notice Function by which contract owner sets fee that is paid for cross-chain transfer from target to WeOwn blockchain\r\n     */\r\n    /// @param _amount New fee amount\r\n    function setNativeTransferFee(uint _amount)\r\n        external\r\n        onlyOwner\r\n    {\r\n        nativeTransferFee = _amount;\r\n    }\r\n\r\n    /**\r\n     * @notice Function by which contract owner sets fee that is paid by governor when establishing bridge\r\n     */\r\n    /// @param _amount New fee amount\r\n    function setBridgeFee(uint _amount)\r\n        external\r\n        onlyOwner\r\n    {\r\n        bridgeFee = _amount;\r\n    }\r\n\r\n    /**\r\n     * @notice Function by which contract owner withdraws fee collected through bridging and cross-chain transfers\r\n     */\r\n    /// @param _amount Amount to be withdrawn\r\n    function withdrawFee(uint _amount)\r\n        external\r\n        onlyOwner\r\n        returns (bool)\r\n    {\r\n        payable(owner()).transfer(_amount);\r\n        return true;\r\n    }\r\n\r\n    ////////////////////////////////////////////////////////////////////////////////////////////////////\r\n    // Miscellaneous\r\n    ////////////////////////////////////////////////////////////////////////////////////////////////////\r\n\r\n    // Enable recovery of any ERC20 compatible token sent by mistake to this contract's address.\r\n    /**\r\n     * @notice Function by which contract owner can recover any mistakenly sent ERC20 tokens to contract's address.\r\n     * Condition is that ERC20 token is not bridged.\r\n     */\r\n     /// @param _token Address of ERC20 token\r\n    /// @param _amount Amount to be withdrawn\r\n    function drainStrayTokens(IERC20 _token, uint _amount)\r\n        external\r\n        onlyOwner\r\n        returns (bool)\r\n    {\r\n        require(bytes(assetHashes[address(_token)]).length == 0, \"Bridged ERC20 token cannot be drained.\");\r\n        return _token.transfer(owner(), _amount);\r\n    }\r\n}\r\n",
  "sourcePath": "C:/Users/User/Source/Repos/IBCSmartContracts-1/src/contracts/OwnAssetBridge.sol",
  "compiler": {
    "name": "solc",
    "version": "0.6.0+commit.26b70077.Emscripten.clang"
  },
  "schemaVersion": "3.3.3",
  "updatedAt": "2021-11-16T11:13:45.590Z",
  "devdoc": {
    "methods": {
      "bridgeAsset(string,string,string,string,uint256)": {
        "params": {
          "_accountHash": "Hash of WeOwn account that will hold all locked tokens on WeOwn blockchain",
          "_assetHash": "Hash of WeOwn asset",
          "_assetName": "Name of ERC20 token that will be deployed. Needs to correspond to the name of WeOwn asset",
          "_assetSymbol": "Symbol of ERC20 token that will be deployed. Needs to correspond to the symbol of WeOwn asset",
          "_totalSupply": "Total supply of ERC20 token that will be deployed. Needs to correspond to the total supply of WeOwn asset"
        }
      },
      "bridgeErc20Token(address,string,string)": {
        "params": {
          "_accountHash": "Hash of WeOwn account that will hold all locked tokens on WeOwn blockchain",
          "_assetHash": "Hash of WeOwn asset",
          "_token": "Address of ERC20 token"
        }
      },
      "confirmTransfer(string,address,uint256)": {
        "params": {
          "_amount": "Amount of tokens that will be released",
          "_token": "Address of ERC20 token",
          "_txHash": "Hash of tx on WeOwn blockchain which contains asset transfer"
        }
      },
      "drainStrayTokens(address,uint256)": {
        "params": {
          "_amount": "Amount to be withdrawn",
          "_token": "Address of ERC20 token"
        }
      },
      "owner()": {
        "details": "Returns the address of the current owner."
      },
      "removeBridge(address)": {
        "params": {
          "_token": "Address of ERC20 token"
        }
      },
      "renounceOwnership()": {
        "details": "Leaves the contract without owner. It will not be possible to call `onlyOwner` functions anymore. Can only be called by the current owner.      * NOTE: Renouncing ownership will leave the contract without an owner, thereby removing any functionality that is only available to the owner."
      },
      "revertTransferFromNativeChain(string)": {
        "params": {
          "_txHash": "Hash of tx on WeOwn blockchain which contains asset transfer"
        }
      },
      "revertTransferToNativeChain(string,address,address,uint256)": {
        "params": {
          "_amount": "Amount of tokens that will be transferred back to sender address",
          "_recipient": "Sender address to which tokens will be transferred back",
          "_token": "Address of ERC20 token",
          "_txHash": "Hash of tx on target blockchain that is reverted"
        }
      },
      "setBridgeFee(uint256)": {
        "params": {
          "_amount": "New fee amount"
        }
      },
      "setGovernor(address)": {
        "params": {
          "_governor": "New governor address"
        }
      },
      "setNativeTransferFee(uint256)": {
        "params": {
          "_amount": "New fee amount"
        }
      },
      "setTargetTransferFee(uint256)": {
        "params": {
          "_amount": "New fee amount"
        }
      },
      "transferFromNativeChain(string,string,address)": {
        "params": {
          "_recipient": "Address on target blockchain that should receive tokens",
          "_signature": "Signature of tx hash, signed by WeOwn sender address",
          "_txHash": "Hash of tx on WeOwn blockchain which contains asset transfer"
        }
      },
      "transferOwnership(address)": {
        "details": "Transfers ownership of the contract to a new account (`newOwner`). Can only be called by the current owner."
      },
      "transferToNativeChain(address,string,uint256)": {
        "params": {
          "_amount": "Number of tokens that will be transferred",
          "_recipientAccountHash": "Hash of WeOwn account that should receive tokens",
          "_token": "Address of ERC20 token"
        }
      },
      "withdrawFee(uint256)": {
        "params": {
          "_amount": "Amount to be withdrawn"
        }
      }
    }
  },
  "userdoc": {
    "methods": {},
    "notice": "This contract is used to bridge WeOwn blockchain and any other blockchain running on EVM, primarily Ethereum.  After establishing bridge between asset on WeOwn blockchain and ERC20 token, cross-chain transfers are enabled and users can move their holding between the blockchains. "
  }
}