{
  "contractName": "wCHXMapping",
  "abi": [
    {
      "inputs": [],
      "stateMutability": "nonpayable",
      "type": "constructor"
    },
    {
      "anonymous": false,
      "inputs": [
        {
          "indexed": true,
          "internalType": "address",
          "name": "ethAddress",
          "type": "address"
        },
        {
          "indexed": false,
          "internalType": "string",
          "name": "chxAddress",
          "type": "string"
        },
        {
          "indexed": false,
          "internalType": "string",
          "name": "signature",
          "type": "string"
        }
      ],
      "name": "AddressMapped",
      "type": "event"
    },
    {
      "anonymous": false,
      "inputs": [
        {
          "indexed": true,
          "internalType": "address",
          "name": "ethAddress",
          "type": "address"
        },
        {
          "indexed": false,
          "internalType": "string",
          "name": "chxAddress",
          "type": "string"
        },
        {
          "indexed": false,
          "internalType": "string",
          "name": "signature",
          "type": "string"
        }
      ],
      "name": "AddressMappingRemoved",
      "type": "event"
    },
    {
      "anonymous": false,
      "inputs": [
        {
          "indexed": true,
          "internalType": "address",
          "name": "previousOwner",
          "type": "address"
        },
        {
          "indexed": true,
          "internalType": "address",
          "name": "newOwner",
          "type": "address"
        }
      ],
      "name": "OwnershipTransferred",
      "type": "event"
    },
    {
      "inputs": [],
      "name": "owner",
      "outputs": [
        {
          "internalType": "address",
          "name": "",
          "type": "address"
        }
      ],
      "stateMutability": "view",
      "type": "function",
      "constant": true
    },
    {
      "inputs": [],
      "name": "renounceOwnership",
      "outputs": [],
      "stateMutability": "nonpayable",
      "type": "function"
    },
    {
      "inputs": [
        {
          "internalType": "address",
          "name": "newOwner",
          "type": "address"
        }
      ],
      "name": "transferOwnership",
      "outputs": [],
      "stateMutability": "nonpayable",
      "type": "function"
    },
    {
      "inputs": [
        {
          "internalType": "address",
          "name": "_ethAddress",
          "type": "address"
        }
      ],
      "name": "chxAddress",
      "outputs": [
        {
          "internalType": "string",
          "name": "",
          "type": "string"
        }
      ],
      "stateMutability": "view",
      "type": "function",
      "constant": true
    },
    {
      "inputs": [
        {
          "internalType": "string",
          "name": "_chxAddress",
          "type": "string"
        }
      ],
      "name": "ethAddress",
      "outputs": [
        {
          "internalType": "address",
          "name": "",
          "type": "address"
        }
      ],
      "stateMutability": "view",
      "type": "function",
      "constant": true
    },
    {
      "inputs": [
        {
          "internalType": "string",
          "name": "_chxAddress",
          "type": "string"
        }
      ],
      "name": "signature",
      "outputs": [
        {
          "internalType": "string",
          "name": "",
          "type": "string"
        }
      ],
      "stateMutability": "view",
      "type": "function",
      "constant": true
    },
    {
      "inputs": [
        {
          "internalType": "string",
          "name": "_chxAddress",
          "type": "string"
        },
        {
          "internalType": "string",
          "name": "_signature",
          "type": "string"
        }
      ],
      "name": "mapAddress",
      "outputs": [],
      "stateMutability": "nonpayable",
      "type": "function"
    },
    {
      "inputs": [
        {
          "internalType": "address",
          "name": "_ethAddress",
          "type": "address"
        }
      ],
      "name": "removeMappedAddress",
      "outputs": [],
      "stateMutability": "nonpayable",
      "type": "function"
    },
    {
      "inputs": [
        {
          "internalType": "uint256",
          "name": "_amount",
          "type": "uint256"
        }
      ],
      "name": "drainStrayEther",
      "outputs": [
        {
          "internalType": "bool",
          "name": "",
          "type": "bool"
        }
      ],
      "stateMutability": "nonpayable",
      "type": "function"
    },
    {
      "inputs": [
        {
          "internalType": "contract IERC20",
          "name": "_token",
          "type": "address"
        },
        {
          "internalType": "uint256",
          "name": "_amount",
          "type": "uint256"
        }
      ],
      "name": "drainStrayTokens",
      "outputs": [
        {
          "internalType": "bool",
          "name": "",
          "type": "bool"
        }
      ],
      "stateMutability": "nonpayable",
      "type": "function"
    }
  ],
  "bytecode": "0x608060405234801561001057600080fd5b5060006100216100c460201b60201c565b9050806000806101000a81548173ffffffffffffffffffffffffffffffffffffffff021916908373ffffffffffffffffffffffffffffffffffffffff1602179055508073ffffffffffffffffffffffffffffffffffffffff16600073ffffffffffffffffffffffffffffffffffffffff167f8be0079c531659141344cd1fd0a4f28419497f9722a3daafe3b4186f6b6457e060405160405180910390a3506100cc565b600033905090565b611cee806100db6000396000f3fe608060405234801561001057600080fd5b506004361061009e5760003560e01c80638da5cb5b116100665780638da5cb5b1461025a578063b0e353bd146102a4578063c864b77b14610396578063f2fde38b1461044f578063f9c0e3c2146104935761009e565b8063050b8c66146100a3578063401105441461010957806342bf41ae1461014d57806360b90acf14610193578063715018a614610250575b600080fd5b6100ef600480360360408110156100b957600080fd5b81019080803573ffffffffffffffffffffffffffffffffffffffff16906020019092919080359060200190929190505050610561565b604051808215151515815260200191505060405180910390f35b61014b6004803603602081101561011f57600080fd5b81019080803573ffffffffffffffffffffffffffffffffffffffff1690602001909291905050506106fd565b005b6101796004803603602081101561016357600080fd5b81019080803590602001909291905050506107d2565b604051808215151515815260200191505060405180910390f35b6101d5600480360360208110156101a957600080fd5b81019080803573ffffffffffffffffffffffffffffffffffffffff1690602001909291905050506108f4565b6040518080602001828103825283818151815260200191508051906020019080838360005b838110156102155780820151818401526020810190506101fa565b50505050905090810190601f1680156102425780820380516001836020036101000a031916815260200191505b509250505060405180910390f35b6102586109d5565b005b610262610b5d565b604051808273ffffffffffffffffffffffffffffffffffffffff1673ffffffffffffffffffffffffffffffffffffffff16815260200191505060405180910390f35b61031b600480360360208110156102ba57600080fd5b81019080803590602001906401000000008111156102d757600080fd5b8201836020820111156102e957600080fd5b8035906020019184600183028401116401000000008311171561030b57600080fd5b9091929391929390505050610b86565b6040518080602001828103825283818151815260200191508051906020019080838360005b8381101561035b578082015181840152602081019050610340565b50505050905090810190601f1680156103885780820380516001836020036101000a031916815260200191505b509250505060405180910390f35b61040d600480360360208110156103ac57600080fd5b81019080803590602001906401000000008111156103c957600080fd5b8201836020820111156103db57600080fd5b803590602001918460018302840111640100000000831117156103fd57600080fd5b9091929391929390505050610c50565b604051808273ffffffffffffffffffffffffffffffffffffffff1673ffffffffffffffffffffffffffffffffffffffff16815260200191505060405180910390f35b6104916004803603602081101561046557600080fd5b81019080803573ffffffffffffffffffffffffffffffffffffffff169060200190929190505050610ca2565b005b61055f600480360360408110156104a957600080fd5b81019080803590602001906401000000008111156104c657600080fd5b8201836020820111156104d857600080fd5b803590602001918460018302840111640100000000831117156104fa57600080fd5b90919293919293908035906020019064010000000081111561051b57600080fd5b82018360208201111561052d57600080fd5b8035906020019184600183028401116401000000008311171561054f57600080fd5b9091929391929390505050610eaf565b005b600061056b6111d1565b73ffffffffffffffffffffffffffffffffffffffff166000809054906101000a900473ffffffffffffffffffffffffffffffffffffffff1673ffffffffffffffffffffffffffffffffffffffff161461062c576040517f08c379a00000000000000000000000000000000000000000000000000000000081526004018080602001828103825260208152602001807f4f776e61626c653a2063616c6c6572206973206e6f7420746865206f776e657281525060200191505060405180910390fd5b8273ffffffffffffffffffffffffffffffffffffffff1663a9059cbb610650610b5d565b846040518363ffffffff1660e01b8152600401808373ffffffffffffffffffffffffffffffffffffffff1673ffffffffffffffffffffffffffffffffffffffff16815260200182815260200192505050602060405180830381600087803b1580156106ba57600080fd5b505af11580156106ce573d6000803e3d6000fd5b505050506040513d60208110156106e457600080fd5b8101908080519060200190929190505050905092915050565b6107056111d1565b73ffffffffffffffffffffffffffffffffffffffff166000809054906101000a900473ffffffffffffffffffffffffffffffffffffffff1673ffffffffffffffffffffffffffffffffffffffff16146107c6576040517f08c379a00000000000000000000000000000000000000000000000000000000081526004018080602001828103825260208152602001807f4f776e61626c653a2063616c6c6572206973206e6f7420746865206f776e657281525060200191505060405180910390fd5b6107cf816111d9565b50565b60006107dc6111d1565b73ffffffffffffffffffffffffffffffffffffffff166000809054906101000a900473ffffffffffffffffffffffffffffffffffffffff1673ffffffffffffffffffffffffffffffffffffffff161461089d576040517f08c379a00000000000000000000000000000000000000000000000000000000081526004018080602001828103825260208152602001807f4f776e61626c653a2063616c6c6572206973206e6f7420746865206f776e657281525060200191505060405180910390fd5b6108a5610b5d565b73ffffffffffffffffffffffffffffffffffffffff166108fc839081150290604051600060405180830381858888f193505050501580156108ea573d6000803e3d6000fd5b5060019050919050565b6060600160008373ffffffffffffffffffffffffffffffffffffffff1673ffffffffffffffffffffffffffffffffffffffff1681526020019081526020016000208054600181600116156101000203166002900480601f0160208091040260200160405190810160405280929190818152602001828054600181600116156101000203166002900480156109c95780601f1061099e576101008083540402835291602001916109c9565b820191906000526020600020905b8154815290600101906020018083116109ac57829003601f168201915b50505050509050919050565b6109dd6111d1565b73ffffffffffffffffffffffffffffffffffffffff166000809054906101000a900473ffffffffffffffffffffffffffffffffffffffff1673ffffffffffffffffffffffffffffffffffffffff1614610a9e576040517f08c379a00000000000000000000000000000000000000000000000000000000081526004018080602001828103825260208152602001807f4f776e61626c653a2063616c6c6572206973206e6f7420746865206f776e657281525060200191505060405180910390fd5b600073ffffffffffffffffffffffffffffffffffffffff166000809054906101000a900473ffffffffffffffffffffffffffffffffffffffff1673ffffffffffffffffffffffffffffffffffffffff167f8be0079c531659141344cd1fd0a4f28419497f9722a3daafe3b4186f6b6457e060405160405180910390a360008060006101000a81548173ffffffffffffffffffffffffffffffffffffffff021916908373ffffffffffffffffffffffffffffffffffffffff160217905550565b60008060009054906101000a900473ffffffffffffffffffffffffffffffffffffffff16905090565b60606003838360405180838380828437808301925050509250505090815260200160405180910390208054600181600116156101000203166002900480601f016020809104026020016040519081016040528092919081815260200182805460018160011615610100020316600290048015610c435780601f10610c1857610100808354040283529160200191610c43565b820191906000526020600020905b815481529060010190602001808311610c2657829003601f168201915b5050505050905092915050565b600060028383604051808383808284378083019250505092505050908152602001604051809103902060009054906101000a900473ffffffffffffffffffffffffffffffffffffffff16905092915050565b610caa6111d1565b73ffffffffffffffffffffffffffffffffffffffff166000809054906101000a900473ffffffffffffffffffffffffffffffffffffffff1673ffffffffffffffffffffffffffffffffffffffff1614610d6b576040517f08c379a00000000000000000000000000000000000000000000000000000000081526004018080602001828103825260208152602001807f4f776e61626c653a2063616c6c6572206973206e6f7420746865206f776e657281525060200191505060405180910390fd5b600073ffffffffffffffffffffffffffffffffffffffff168173ffffffffffffffffffffffffffffffffffffffff161415610df1576040517f08c379a0000000000000000000000000000000000000000000000000000000008152600401808060200182810382526026815260200180611c6a6026913960400191505060405180910390fd5b8073ffffffffffffffffffffffffffffffffffffffff166000809054906101000a900473ffffffffffffffffffffffffffffffffffffffff1673ffffffffffffffffffffffffffffffffffffffff167f8be0079c531659141344cd1fd0a4f28419497f9722a3daafe3b4186f6b6457e060405160405180910390a3806000806101000a81548173ffffffffffffffffffffffffffffffffffffffff021916908373ffffffffffffffffffffffffffffffffffffffff16021790555050565b6000610eb96111d1565b90506000600160008373ffffffffffffffffffffffffffffffffffffffff1673ffffffffffffffffffffffffffffffffffffffff16815260200190815260200160002080546001816001161561010002031660029004905014610f1b57600080fd5b600073ffffffffffffffffffffffffffffffffffffffff1660028686604051808383808284378083019250505092505050908152602001604051809103902060009054906101000a900473ffffffffffffffffffffffffffffffffffffffff1673ffffffffffffffffffffffffffffffffffffffff1614610f9b57600080fd5b600060038686604051808383808284378083019250505092505050908152602001604051809103902080546001816001161561010002031660029004905014610fe357600080fd5b61103085858080601f016020809104026020016040519081016040528093929190818152602001838380828437600081840152601f19601f820116905080830192505050505050506117ce565b8484600160008473ffffffffffffffffffffffffffffffffffffffff1673ffffffffffffffffffffffffffffffffffffffff168152602001908152602001600020919061107e929190611b7c565b508060028686604051808383808284378083019250505092505050908152602001604051809103902060006101000a81548173ffffffffffffffffffffffffffffffffffffffff021916908373ffffffffffffffffffffffffffffffffffffffff1602179055508282600387876040518083838082843780830192505050925050509081526020016040518091039020919061111b929190611b7c565b508073ffffffffffffffffffffffffffffffffffffffff167f7b1a72f0c8f7ac830f57239e929d94c02d63c9ad0154b9c73221df7817c2237e868686866040518080602001806020018381038352878782818152602001925080828437600081840152601f19601f8201169050808301925050508381038252858582818152602001925080828437600081840152601f19601f820116905080830192505050965050505050505060405180910390a25050505050565b600033905090565b6060600160008373ffffffffffffffffffffffffffffffffffffffff1673ffffffffffffffffffffffffffffffffffffffff1681526020019081526020016000208054600181600116156101000203166002900480601f0160208091040260200160405190810160405280929190818152602001828054600181600116156101000203166002900480156112ae5780601f10611283576101008083540402835291602001916112ae565b820191906000526020600020905b81548152906001019060200180831161129157829003601f168201915b505050505090506000815114156112c457600080fd5b60606003826040518082805190602001908083835b602083106112fc57805182526020820191506020810190506020830392506112d9565b6001836020036101000a03801982511681845116808217855250505050505090500191505090815260200160405180910390208054600181600116156101000203166002900480601f0160208091040260200160405190810160405280929190818152602001828054600181600116156101000203166002900480156113c35780601f10611398576101008083540402835291602001916113c3565b820191906000526020600020905b8154815290600101906020018083116113a657829003601f168201915b50505050509050600073ffffffffffffffffffffffffffffffffffffffff166002836040518082805190602001908083835b6020831061141857805182526020820191506020810190506020830392506113f5565b6001836020036101000a038019825116818451168082178552505050505050905001915050908152602001604051809103902060009054906101000a900473ffffffffffffffffffffffffffffffffffffffff1673ffffffffffffffffffffffffffffffffffffffff16141561148d57600080fd5b60008151141561149c57600080fd5b8273ffffffffffffffffffffffffffffffffffffffff166002836040518082805190602001908083835b602083106114e957805182526020820191506020810190506020830392506114c6565b6001836020036101000a038019825116818451168082178552505050505050905001915050908152602001604051809103902060009054906101000a900473ffffffffffffffffffffffffffffffffffffffff1673ffffffffffffffffffffffffffffffffffffffff161461155d57600080fd5b600160008473ffffffffffffffffffffffffffffffffffffffff1673ffffffffffffffffffffffffffffffffffffffff16815260200190815260200160002060006115a89190611bfc565b6002826040518082805190602001908083835b602083106115de57805182526020820191506020810190506020830392506115bb565b6001836020036101000a038019825116818451168082178552505050505050905001915050908152602001604051809103902060006101000a81549073ffffffffffffffffffffffffffffffffffffffff02191690556003826040518082805190602001908083835b6020831061166a5780518252602082019150602081019050602083039250611647565b6001836020036101000a038019825116818451168082178552505050505050905001915050908152602001604051809103902060006116a99190611bfc565b8273ffffffffffffffffffffffffffffffffffffffff167fa40592f52404e01bef5d3ecd36211c5b2fa10182ca5f13cb906757a4740cfb678383604051808060200180602001838103835285818151815260200191508051906020019080838360005b8381101561172757808201518184015260208101905061170c565b50505050905090810190601f1680156117545780820380516001836020036101000a031916815260200191505b50838103825284818151815260200191508051906020019080838360005b8381101561178d578082015181840152602081019050611772565b50505050905090810190601f1680156117ba5780820380516001836020036101000a031916815260200191505b5094505050505060405180910390a2505050565b6060819050606060026040519080825280601f01601f1916602001820160405280156118095781602001600182028038833980820191505090505b5090508160008151811061181957fe5b602001015160f81c60f81b8160008151811061183157fe5b60200101907effffffffffffffffffffffffffffffffffffffffffffffffffffffffffffff1916908160001a9053508160018151811061186d57fe5b602001015160f81c60f81b8160018151811061188557fe5b60200101907effffffffffffffffffffffffffffffffffffffffffffffffffffffffffffff1916908160001a90535060405160200180807f4348000000000000000000000000000000000000000000000000000000000000815250600201905060405160208183030381529060405280519060200120816040516020018082805190602001908083835b60208310611932578051825260208201915060208101905060208303925061190f565b6001836020036101000a03801982511681845116808217855250505050505090500191505060405160208183030381529060405280519060200120146119e0576040517f08c379a00000000000000000000000000000000000000000000000000000000081526004018080602001828103825260188152602001807f434858206164647265737320697320696e636f7272656374000000000000000081525060200191505060405180910390fd5b6000826001845103815181106119f257fe5b602001015160f81c60f81b9050603060f81b817effffffffffffffffffffffffffffffffffffffffffffffffffffffffffffff191610158015611a5b5750603960f81b817effffffffffffffffffffffffffffffffffffffffffffffffffffffffffffff191611155b80611abe5750604160f81b817effffffffffffffffffffffffffffffffffffffffffffffffffffffffffffff191610158015611abd5750605a60f81b817effffffffffffffffffffffffffffffffffffffffffffffffffffffffffffff191611155b5b80611b215750606160f81b817effffffffffffffffffffffffffffffffffffffffffffffffffffffffffffff191610158015611b205750607a60f81b817effffffffffffffffffffffffffffffffffffffffffffffffffffffffffffff191611155b5b611b76576040517f08c379a0000000000000000000000000000000000000000000000000000000008152600401808060200182810382526029815260200180611c906029913960400191505060405180910390fd5b50505050565b828054600181600116156101000203166002900490600052602060002090601f016020900481019282601f10611bbd57803560ff1916838001178555611beb565b82800160010185558215611beb579182015b82811115611bea578235825591602001919060010190611bcf565b5b509050611bf89190611c44565b5090565b50805460018160011615610100020316600290046000825580601f10611c225750611c41565b601f016020900490600052602060002090810190611c409190611c44565b5b50565b611c6691905b80821115611c62576000816000905550600101611c4a565b5090565b9056fe4f776e61626c653a206e6577206f776e657220697320746865207a65726f2061646472657373434858206164647265737320656e6473207769746820696e636f727265637420636861726163746572a2646970667358221220f8e1471838fbe42cac4341d6e7e237ab165173c6743a7e5ef6f55fc8d83e20cc64736f6c63430006000033",
  "source": "pragma solidity 0.6.0;\r\n\r\nimport \"@openzeppelin/contracts/token/ERC20/IERC20.sol\";\r\nimport \"@openzeppelin/contracts/access/Ownable.sol\";\r\n\r\ncontract wCHXMapping is Ownable {\r\n    event AddressMapped(address indexed ethAddress, string chxAddress, string signature);\r\n    event AddressMappingRemoved(address indexed ethAddress, string chxAddress, string signature);\r\n\r\n    mapping (address => string) private _mappedEthAddresses;\r\n    mapping (string => address) private _mappedChxAddresses;\r\n    mapping (string => string) private _mappedSignatures;\r\n\r\n    constructor()\r\n        public\r\n    {\r\n    }\r\n\r\n    function chxAddress(address _ethAddress)\r\n        external\r\n        view\r\n        returns (string memory) \r\n    {\r\n        return _mappedEthAddresses[_ethAddress];\r\n    }\r\n\r\n    function ethAddress(string calldata _chxAddress)\r\n        external\r\n        view\r\n        returns (address) \r\n    {\r\n        return _mappedChxAddresses[_chxAddress];\r\n    }\r\n\r\n    function signature(string calldata _chxAddress)\r\n        external\r\n        view\r\n        returns (string memory) \r\n    {\r\n        return _mappedSignatures[_chxAddress];\r\n    }\r\n\r\n    function mapAddress(string calldata _chxAddress, string calldata _signature)\r\n        external\r\n    {\r\n        address _ethAddress = _msgSender();\r\n\r\n        require(bytes(_mappedEthAddresses[_ethAddress]).length == 0);\r\n        require(_mappedChxAddresses[_chxAddress] == address(0));\r\n        require(bytes(_mappedSignatures[_chxAddress]).length == 0);\r\n        _checkChxAddress(_chxAddress);\r\n\r\n        _mappedEthAddresses[_ethAddress] = _chxAddress;\r\n        _mappedChxAddresses[_chxAddress] = _ethAddress;\r\n        _mappedSignatures[_chxAddress] = _signature;\r\n\r\n        emit AddressMapped(_ethAddress, _chxAddress, _signature);\r\n    }\r\n\r\n    function removeMappedAddress(address _ethAddress)\r\n        external\r\n        onlyOwner\r\n    {\r\n        _removeAddress(_ethAddress);\r\n    }\r\n\r\n    function _removeAddress(address _ethAddress)\r\n        private\r\n    {\r\n        string memory _chxAddress = _mappedEthAddresses[_ethAddress];\r\n        require(bytes(_chxAddress).length != 0);\r\n\r\n        string memory _signature = _mappedSignatures[_chxAddress];\r\n        require(_mappedChxAddresses[_chxAddress] != address(0));\r\n        require(bytes(_signature).length != 0);\r\n        require(_mappedChxAddresses[_chxAddress] == _ethAddress);\r\n        \r\n\r\n        delete _mappedEthAddresses[_ethAddress];\r\n        delete _mappedChxAddresses[_chxAddress];\r\n        delete _mappedSignatures[_chxAddress];\r\n        \r\n        emit AddressMappingRemoved(_ethAddress, _chxAddress, _signature);\r\n    }\r\n\r\n    function _checkChxAddress(string memory _chxAddress)\r\n        private \r\n    {\r\n        bytes memory _strBytes = bytes(_chxAddress);\r\n\r\n        bytes memory _begining = new bytes(2);\r\n        _begining[0] = _strBytes[0];\r\n        _begining[1] = _strBytes[1];\r\n        require(keccak256(abi.encodePacked(string(_begining))) == keccak256(abi.encodePacked(\"CH\")), \"CHX address is incorrect\");\r\n\r\n        bytes1 _lastChar = _strBytes[_strBytes.length - 1];\r\n        require(\r\n            (_lastChar >= 0x30 && _lastChar <= 0x39) || \r\n            (_lastChar >= 0x41 && _lastChar <= 0x5A) || \r\n            (_lastChar >= 0x61 && _lastChar <= 0x7A),\r\n            \"CHX address ends with incorrect character\"\r\n        );\r\n    }\r\n\r\n    // Enable recovery of ether sent by mistake to this contract's address.\r\n    function drainStrayEther(uint _amount)\r\n        external\r\n        onlyOwner\r\n        returns (bool)\r\n    {\r\n        payable(owner()).transfer(_amount);\r\n        return true;\r\n    }\r\n\r\n    // Enable recovery of any ERC20 compatible token sent by mistake to this contract's address.\r\n    function drainStrayTokens(IERC20 _token, uint _amount)\r\n        external\r\n        onlyOwner\r\n        returns (bool)\r\n    {\r\n        return _token.transfer(owner(), _amount);\r\n    }\r\n}\r\n",
  "sourcePath": "C:\\Users\\User\\Source\\Repos\\IBCSmartContracts\\src\\contracts\\wCHXMapping.sol",
  "compiler": {
    "name": "solc",
    "version": "0.6.0+commit.26b70077.Emscripten.clang"
  },
  "schemaVersion": "3.3.3",
  "updatedAt": "2021-01-21T14:47:05.160Z",
  "networkType": "ethereum",
  "devdoc": {
    "methods": {
      "owner()": {
        "details": "Returns the address of the current owner."
      },
      "renounceOwnership()": {
        "details": "Leaves the contract without owner. It will not be possible to call `onlyOwner` functions anymore. Can only be called by the current owner.     * NOTE: Renouncing ownership will leave the contract without an owner, thereby removing any functionality that is only available to the owner."
      },
      "transferOwnership(address)": {
        "details": "Transfers ownership of the contract to a new account (`newOwner`). Can only be called by the current owner."
      }
    }
  },
  "userdoc": {
    "methods": {}
  }
}