{
  "contractName": "wCHXToken",
  "abi": [
    {
      "inputs": [
        {
          "internalType": "address",
          "name": "_mappingContractAddress",
          "type": "address"
        }
      ],
      "stateMutability": "nonpayable",
      "type": "constructor"
    },
    {
      "anonymous": false,
      "inputs": [
        {
          "indexed": true,
          "internalType": "address",
          "name": "owner",
          "type": "address"
        },
        {
          "indexed": true,
          "internalType": "address",
          "name": "spender",
          "type": "address"
        },
        {
          "indexed": false,
          "internalType": "uint256",
          "name": "value",
          "type": "uint256"
        }
      ],
      "name": "Approval",
      "type": "event"
    },
    {
      "anonymous": false,
      "inputs": [
        {
          "indexed": true,
          "internalType": "address",
          "name": "previousOwner",
          "type": "address"
        },
        {
          "indexed": true,
          "internalType": "address",
          "name": "newOwner",
          "type": "address"
        }
      ],
      "name": "OwnershipTransferred",
      "type": "event"
    },
    {
      "anonymous": false,
      "inputs": [
        {
          "indexed": true,
          "internalType": "address",
          "name": "from",
          "type": "address"
        },
        {
          "indexed": true,
          "internalType": "address",
          "name": "to",
          "type": "address"
        },
        {
          "indexed": false,
          "internalType": "uint256",
          "name": "value",
          "type": "uint256"
        }
      ],
      "name": "Transfer",
      "type": "event"
    },
    {
      "anonymous": false,
      "inputs": [
        {
          "indexed": false,
          "internalType": "address",
          "name": "ethAddress",
          "type": "address"
        },
        {
          "indexed": false,
          "internalType": "string",
          "name": "chxAddress",
          "type": "string"
        },
        {
          "indexed": false,
          "internalType": "uint256",
          "name": "amount",
          "type": "uint256"
        }
      ],
      "name": "UnwrapChx",
      "type": "event"
    },
    {
      "anonymous": false,
      "inputs": [
        {
          "indexed": false,
          "internalType": "address",
          "name": "ethAddress",
          "type": "address"
        },
        {
          "indexed": false,
          "internalType": "string",
          "name": "chxAddress",
          "type": "string"
        },
        {
          "indexed": false,
          "internalType": "uint256",
          "name": "amount",
          "type": "uint256"
        }
      ],
      "name": "WrapChx",
      "type": "event"
    },
    {
      "inputs": [],
      "name": "addressMapping",
      "outputs": [
        {
          "internalType": "contract wCHXMapping",
          "name": "",
          "type": "address"
        }
      ],
      "stateMutability": "view",
      "type": "function"
    },
    {
      "inputs": [
        {
          "internalType": "address",
          "name": "owner",
          "type": "address"
        },
        {
          "internalType": "address",
          "name": "spender",
          "type": "address"
        }
      ],
      "name": "allowance",
      "outputs": [
        {
          "internalType": "uint256",
          "name": "",
          "type": "uint256"
        }
      ],
      "stateMutability": "view",
      "type": "function"
    },
    {
      "inputs": [
        {
          "internalType": "address",
          "name": "spender",
          "type": "address"
        },
        {
          "internalType": "uint256",
          "name": "amount",
          "type": "uint256"
        }
      ],
      "name": "approve",
      "outputs": [
        {
          "internalType": "bool",
          "name": "",
          "type": "bool"
        }
      ],
      "stateMutability": "nonpayable",
      "type": "function"
    },
    {
      "inputs": [
        {
          "internalType": "address",
          "name": "account",
          "type": "address"
        }
      ],
      "name": "balanceOf",
      "outputs": [
        {
          "internalType": "uint256",
          "name": "",
          "type": "uint256"
        }
      ],
      "stateMutability": "view",
      "type": "function"
    },
    {
      "inputs": [],
      "name": "cap",
      "outputs": [
        {
          "internalType": "uint256",
          "name": "",
          "type": "uint256"
        }
      ],
      "stateMutability": "view",
      "type": "function"
    },
    {
      "inputs": [],
      "name": "decimals",
      "outputs": [
        {
          "internalType": "uint8",
          "name": "",
          "type": "uint8"
        }
      ],
      "stateMutability": "view",
      "type": "function"
    },
    {
      "inputs": [
        {
          "internalType": "address",
          "name": "spender",
          "type": "address"
        },
        {
          "internalType": "uint256",
          "name": "subtractedValue",
          "type": "uint256"
        }
      ],
      "name": "decreaseAllowance",
      "outputs": [
        {
          "internalType": "bool",
          "name": "",
          "type": "bool"
        }
      ],
      "stateMutability": "nonpayable",
      "type": "function"
    },
    {
      "inputs": [
        {
          "internalType": "address",
          "name": "spender",
          "type": "address"
        },
        {
          "internalType": "uint256",
          "name": "addedValue",
          "type": "uint256"
        }
      ],
      "name": "increaseAllowance",
      "outputs": [
        {
          "internalType": "bool",
          "name": "",
          "type": "bool"
        }
      ],
      "stateMutability": "nonpayable",
      "type": "function"
    },
    {
      "inputs": [],
      "name": "minWrapAmount",
      "outputs": [
        {
          "internalType": "uint256",
          "name": "",
          "type": "uint256"
        }
      ],
      "stateMutability": "view",
      "type": "function"
    },
    {
      "inputs": [],
      "name": "name",
      "outputs": [
        {
          "internalType": "string",
          "name": "",
          "type": "string"
        }
      ],
      "stateMutability": "view",
      "type": "function"
    },
    {
      "inputs": [],
      "name": "owner",
      "outputs": [
        {
          "internalType": "address",
          "name": "",
          "type": "address"
        }
      ],
      "stateMutability": "view",
      "type": "function"
    },
    {
      "inputs": [],
      "name": "renounceOwnership",
      "outputs": [],
      "stateMutability": "nonpayable",
      "type": "function"
    },
    {
      "inputs": [],
      "name": "symbol",
      "outputs": [
        {
          "internalType": "string",
          "name": "",
          "type": "string"
        }
      ],
      "stateMutability": "view",
      "type": "function"
    },
    {
      "inputs": [],
      "name": "totalSupply",
      "outputs": [
        {
          "internalType": "uint256",
          "name": "",
          "type": "uint256"
        }
      ],
      "stateMutability": "view",
      "type": "function"
    },
    {
      "inputs": [
        {
          "internalType": "address",
          "name": "newOwner",
          "type": "address"
        }
      ],
      "name": "transferOwnership",
      "outputs": [],
      "stateMutability": "nonpayable",
      "type": "function"
    },
    {
      "inputs": [
        {
          "internalType": "address",
          "name": "_ethAddress",
          "type": "address"
        }
      ],
      "name": "pendingUnwrapBalanceOf",
      "outputs": [
        {
          "internalType": "uint256",
          "name": "",
          "type": "uint256"
        }
      ],
      "stateMutability": "view",
      "type": "function"
    },
    {
      "inputs": [
        {
          "internalType": "address",
          "name": "_recipient",
          "type": "address"
        },
        {
          "internalType": "uint256",
          "name": "_amount",
          "type": "uint256"
        }
      ],
      "name": "transfer",
      "outputs": [
        {
          "internalType": "bool",
          "name": "",
          "type": "bool"
        }
      ],
      "stateMutability": "nonpayable",
      "type": "function"
    },
    {
      "inputs": [
        {
          "internalType": "address",
          "name": "_sender",
          "type": "address"
        },
        {
          "internalType": "address",
          "name": "_recipient",
          "type": "address"
        },
        {
          "internalType": "uint256",
          "name": "_amount",
          "type": "uint256"
        }
      ],
      "name": "transferFrom",
      "outputs": [
        {
          "internalType": "bool",
          "name": "",
          "type": "bool"
        }
      ],
      "stateMutability": "nonpayable",
      "type": "function"
    },
    {
      "inputs": [
        {
          "internalType": "string",
          "name": "_chxAddress",
          "type": "string"
        },
        {
          "internalType": "uint256",
          "name": "_amount",
          "type": "uint256"
        }
      ],
      "name": "burnUnwrapedTokens",
      "outputs": [],
      "stateMutability": "nonpayable",
      "type": "function"
    },
    {
      "inputs": [
        {
          "internalType": "string",
          "name": "_chxAddress",
          "type": "string"
        },
        {
          "internalType": "uint256",
          "name": "_revertAmount",
          "type": "uint256"
        },
        {
          "internalType": "uint256",
          "name": "_feeAmount",
          "type": "uint256"
        }
      ],
      "name": "revertUnwrapedTokens",
      "outputs": [],
      "stateMutability": "nonpayable",
      "type": "function"
    },
    {
      "inputs": [
        {
          "internalType": "string",
          "name": "_chxAddress",
          "type": "string"
        },
        {
          "internalType": "uint256",
          "name": "_amount",
          "type": "uint256"
        }
      ],
      "name": "wrap",
      "outputs": [],
      "stateMutability": "nonpayable",
      "type": "function"
    },
    {
      "inputs": [
        {
          "internalType": "uint256",
          "name": "_amount",
          "type": "uint256"
        }
      ],
      "name": "setMinWrapAmount",
      "outputs": [],
      "stateMutability": "nonpayable",
      "type": "function"
    },
    {
      "inputs": [
        {
          "internalType": "uint256",
          "name": "_amount",
          "type": "uint256"
        }
      ],
      "name": "drainStrayEther",
      "outputs": [
        {
          "internalType": "bool",
          "name": "",
          "type": "bool"
        }
      ],
      "stateMutability": "nonpayable",
      "type": "function"
    },
    {
      "inputs": [
        {
          "internalType": "contract IERC20",
          "name": "_token",
          "type": "address"
        },
        {
          "internalType": "uint256",
          "name": "_amount",
          "type": "uint256"
        }
      ],
      "name": "drainStrayTokens",
      "outputs": [
        {
          "internalType": "bool",
          "name": "",
          "type": "bool"
        }
      ],
      "stateMutability": "nonpayable",
      "type": "function"
    }
  ],
  "bytecode": "0x60806040523480156200001157600080fd5b506040516200371638038062003716833981810160405260208110156200003757600080fd5b8101908080519060200190929190505050660600a68ed1851c6040518060400160405280600b81526020017f57726170706564204348580000000000000000000000000000000000000000008152506040518060400160405280600481526020017f77434858000000000000000000000000000000000000000000000000000000008152508160039080519060200190620000d49291906200036c565b508060049080519060200190620000ed9291906200036c565b506012600560006101000a81548160ff021916908360ff16021790555050506000811162000183576040517f08c379a00000000000000000000000000000000000000000000000000000000081526004018080602001828103825260158152602001807f45524332304361707065643a206361702069732030000000000000000000000081525060200191505060405180910390fd5b806006819055505060006200019d620002bb60201b60201c565b905080600760006101000a81548173ffffffffffffffffffffffffffffffffffffffff021916908373ffffffffffffffffffffffffffffffffffffffff1602179055508073ffffffffffffffffffffffffffffffffffffffff16600073ffffffffffffffffffffffffffffffffffffffff167f8be0079c531659141344cd1fd0a4f28419497f9722a3daafe3b4186f6b6457e060405160405180910390a35080600860006101000a81548173ffffffffffffffffffffffffffffffffffffffff021916908373ffffffffffffffffffffffffffffffffffffffff1602179055506200028f6007620002c360201b60201c565b620002ae629896806103e8620002e160201b62002fb91790919060201c565b600981905550506200041b565b600033905090565b80600560006101000a81548160ff021916908360ff16021790555050565b600080831415620002f6576000905062000366565b60008284029050828482816200030857fe5b041462000361576040517f08c379a0000000000000000000000000000000000000000000000000000000008152600401808060200182810382526021815260200180620036f56021913960400191505060405180910390fd5b809150505b92915050565b828054600181600116156101000203166002900490600052602060002090601f016020900481019282601f10620003af57805160ff1916838001178555620003e0565b82800160010185558215620003e0579182015b82811115620003df578251825591602001919060010190620003c2565b5b509050620003ef9190620003f3565b5090565b6200041891905b8082111562000414576000816000905550600101620003fa565b5090565b90565b6132ca806200042b6000396000f3fe608060405234801561001057600080fd5b50600436106101585760003560e01c80638da5cb5b116100c3578063af80b1131161007c578063af80b11314610777578063c57d4b93146107cf578063d1eecc3414610819578063dd62ed3e1461089c578063e991fb2714610914578063f2fde38b1461093257610158565b80638da5cb5b1461052357806392103e1e1461056d57806395d89b41146105fa5780639cc65a551461067d578063a457c2d7146106ab578063a9059cbb1461071157610158565b8063355274ea11610115578063355274ea1461037457806339509351146103925780633df82e4e146103f857806342bf41ae1461047b57806370a08231146104c1578063715018a61461051957610158565b8063050b8c661461015d57806306fdde03146101c3578063095ea7b31461024657806318160ddd146102ac57806323b872dd146102ca578063313ce56714610350575b600080fd5b6101a96004803603604081101561017357600080fd5b81019080803573ffffffffffffffffffffffffffffffffffffffff16906020019092919080359060200190929190505050610976565b604051808215151515815260200191505060405180910390f35b6101cb610bb5565b6040518080602001828103825283818151815260200191508051906020019080838360005b8381101561020b5780820151818401526020810190506101f0565b50505050905090810190601f1680156102385780820380516001836020036101000a031916815260200191505b509250505060405180910390f35b6102926004803603604081101561025c57600080fd5b81019080803573ffffffffffffffffffffffffffffffffffffffff16906020019092919080359060200190929190505050610c57565b604051808215151515815260200191505060405180910390f35b6102b4610c75565b6040518082815260200191505060405180910390f35b610336600480360360608110156102e057600080fd5b81019080803573ffffffffffffffffffffffffffffffffffffffff169060200190929190803573ffffffffffffffffffffffffffffffffffffffff16906020019092919080359060200190929190505050610c7f565b604051808215151515815260200191505060405180910390f35b610358610d79565b604051808260ff1660ff16815260200191505060405180910390f35b61037c610d90565b6040518082815260200191505060405180910390f35b6103de600480360360408110156103a857600080fd5b81019080803573ffffffffffffffffffffffffffffffffffffffff16906020019092919080359060200190929190505050610d9a565b604051808215151515815260200191505060405180910390f35b6104796004803603604081101561040e57600080fd5b810190808035906020019064010000000081111561042b57600080fd5b82018360208201111561043d57600080fd5b8035906020019184600183028401116401000000008311171561045f57600080fd5b909192939192939080359060200190929190505050610e4d565b005b6104a76004803603602081101561049157600080fd5b810190808035906020019092919050505061112a565b604051808215151515815260200191505060405180910390f35b610503600480360360208110156104d757600080fd5b81019080803573ffffffffffffffffffffffffffffffffffffffff16906020019092919050505061124d565b6040518082815260200191505060405180910390f35b610521611295565b005b61052b611420565b604051808273ffffffffffffffffffffffffffffffffffffffff1673ffffffffffffffffffffffffffffffffffffffff16815260200191505060405180910390f35b6105f86004803603606081101561058357600080fd5b81019080803590602001906401000000008111156105a057600080fd5b8201836020820111156105b257600080fd5b803590602001918460018302840111640100000000831117156105d457600080fd5b9091929391929390803590602001909291908035906020019092919050505061144a565b005b61060261175b565b6040518080602001828103825283818151815260200191508051906020019080838360005b83811015610642578082015181840152602081019050610627565b50505050905090810190601f16801561066f5780820380516001836020036101000a031916815260200191505b509250505060405180910390f35b6106a96004803603602081101561069357600080fd5b81019080803590602001909291905050506117fd565b005b6106f7600480360360408110156106c157600080fd5b81019080803573ffffffffffffffffffffffffffffffffffffffff169060200190929190803590602001909291905050506118d1565b604051808215151515815260200191505060405180910390f35b61075d6004803603604081101561072757600080fd5b81019080803573ffffffffffffffffffffffffffffffffffffffff1690602001909291908035906020019092919050505061199e565b604051808215151515815260200191505060405180910390f35b6107b96004803603602081101561078d57600080fd5b81019080803573ffffffffffffffffffffffffffffffffffffffff169060200190929190505050611aab565b6040518082815260200191505060405180910390f35b6107d7611af4565b604051808273ffffffffffffffffffffffffffffffffffffffff1673ffffffffffffffffffffffffffffffffffffffff16815260200191505060405180910390f35b61089a6004803603604081101561082f57600080fd5b810190808035906020019064010000000081111561084c57600080fd5b82018360208201111561085e57600080fd5b8035906020019184600183028401116401000000008311171561088057600080fd5b909192939192939080359060200190929190505050611b1a565b005b6108fe600480360360408110156108b257600080fd5b81019080803573ffffffffffffffffffffffffffffffffffffffff169060200190929190803573ffffffffffffffffffffffffffffffffffffffff169060200190929190505050611e07565b6040518082815260200191505060405180910390f35b61091c611e8e565b6040518082815260200191505060405180910390f35b6109746004803603602081101561094857600080fd5b81019080803573ffffffffffffffffffffffffffffffffffffffff169060200190929190505050611e94565b005b60006109806120a4565b73ffffffffffffffffffffffffffffffffffffffff16600760009054906101000a900473ffffffffffffffffffffffffffffffffffffffff1673ffffffffffffffffffffffffffffffffffffffff1614610a42576040517f08c379a00000000000000000000000000000000000000000000000000000000081526004018080602001828103825260208152602001807f4f776e61626c653a2063616c6c6572206973206e6f7420746865206f776e657281525060200191505060405180910390fd5b3073ffffffffffffffffffffffffffffffffffffffff168373ffffffffffffffffffffffffffffffffffffffff161415610ae4576040517f08c379a00000000000000000000000000000000000000000000000000000000081526004018080602001828103825260168152602001807f774348582063616e6e6f7420626520647261696e65640000000000000000000081525060200191505060405180910390fd5b8273ffffffffffffffffffffffffffffffffffffffff1663a9059cbb610b08611420565b846040518363ffffffff1660e01b8152600401808373ffffffffffffffffffffffffffffffffffffffff1673ffffffffffffffffffffffffffffffffffffffff16815260200182815260200192505050602060405180830381600087803b158015610b7257600080fd5b505af1158015610b86573d6000803e3d6000fd5b505050506040513d6020811015610b9c57600080fd5b8101908080519060200190929190505050905092915050565b606060038054600181600116156101000203166002900480601f016020809104026020016040519081016040528092919081815260200182805460018160011615610100020316600290048015610c4d5780601f10610c2257610100808354040283529160200191610c4d565b820191906000526020600020905b815481529060010190602001808311610c3057829003601f168201915b5050505050905090565b6000610c6b610c646120a4565b84846120ac565b6001905092915050565b6000600254905090565b6000610c8c8484846122a3565b6000610c99858585612608565b9050808015610cd357503073ffffffffffffffffffffffffffffffffffffffff168473ffffffffffffffffffffffffffffffffffffffff16145b15610d6e57610d2a83600a60008873ffffffffffffffffffffffffffffffffffffffff1673ffffffffffffffffffffffffffffffffffffffff168152602001908152602001600020546126e190919063ffffffff16565b600a60008773ffffffffffffffffffffffffffffffffffffffff1673ffffffffffffffffffffffffffffffffffffffff168152602001908152602001600020819055505b809150509392505050565b6000600560009054906101000a900460ff16905090565b6000600654905090565b6000610e43610da76120a4565b84610e3e8560016000610db86120a4565b73ffffffffffffffffffffffffffffffffffffffff1673ffffffffffffffffffffffffffffffffffffffff16815260200190815260200160002060008973ffffffffffffffffffffffffffffffffffffffff1673ffffffffffffffffffffffffffffffffffffffff168152602001908152602001600020546126e190919063ffffffff16565b6120ac565b6001905092915050565b610e556120a4565b73ffffffffffffffffffffffffffffffffffffffff16600760009054906101000a900473ffffffffffffffffffffffffffffffffffffffff1673ffffffffffffffffffffffffffffffffffffffff1614610f17576040517f08c379a00000000000000000000000000000000000000000000000000000000081526004018080602001828103825260208152602001807f4f776e61626c653a2063616c6c6572206973206e6f7420746865206f776e657281525060200191505060405180910390fd5b6000600860009054906101000a900473ffffffffffffffffffffffffffffffffffffffff1673ffffffffffffffffffffffffffffffffffffffff1663c864b77b85856040518363ffffffff1660e01b815260040180806020018281038252848482818152602001925080828437600081840152601f19601f820116905080830192505050935050505060206040518083038186803b158015610fb857600080fd5b505afa158015610fcc573d6000803e3d6000fd5b505050506040513d6020811015610fe257600080fd5b81019080805190602001909291905050509050600073ffffffffffffffffffffffffffffffffffffffff168173ffffffffffffffffffffffffffffffffffffffff16141561107b576040517f08c379a00000000000000000000000000000000000000000000000000000000081526004018080602001828103825260288152602001806130856028913960400191505060405180910390fd5b7f2468f62c8dd25e8a8a9eab630f96124ba96abd008e4407bec46dc4598ae339a781858585604051808573ffffffffffffffffffffffffffffffffffffffff1673ffffffffffffffffffffffffffffffffffffffff168152602001806020018381526020018281038252858582818152602001925080828437600081840152601f19601f8201169050808301925050509550505050505060405180910390a16111248183612769565b50505050565b60006111346120a4565b73ffffffffffffffffffffffffffffffffffffffff16600760009054906101000a900473ffffffffffffffffffffffffffffffffffffffff1673ffffffffffffffffffffffffffffffffffffffff16146111f6576040517f08c379a00000000000000000000000000000000000000000000000000000000081526004018080602001828103825260208152602001807f4f776e61626c653a2063616c6c6572206973206e6f7420746865206f776e657281525060200191505060405180910390fd5b6111fe611420565b73ffffffffffffffffffffffffffffffffffffffff166108fc839081150290604051600060405180830381858888f19350505050158015611243573d6000803e3d6000fd5b5060019050919050565b60008060008373ffffffffffffffffffffffffffffffffffffffff1673ffffffffffffffffffffffffffffffffffffffff168152602001908152602001600020549050919050565b61129d6120a4565b73ffffffffffffffffffffffffffffffffffffffff16600760009054906101000a900473ffffffffffffffffffffffffffffffffffffffff1673ffffffffffffffffffffffffffffffffffffffff161461135f576040517f08c379a00000000000000000000000000000000000000000000000000000000081526004018080602001828103825260208152602001807f4f776e61626c653a2063616c6c6572206973206e6f7420746865206f776e657281525060200191505060405180910390fd5b600073ffffffffffffffffffffffffffffffffffffffff16600760009054906101000a900473ffffffffffffffffffffffffffffffffffffffff1673ffffffffffffffffffffffffffffffffffffffff167f8be0079c531659141344cd1fd0a4f28419497f9722a3daafe3b4186f6b6457e060405160405180910390a36000600760006101000a81548173ffffffffffffffffffffffffffffffffffffffff021916908373ffffffffffffffffffffffffffffffffffffffff160217905550565b6000600760009054906101000a900473ffffffffffffffffffffffffffffffffffffffff16905090565b6114526120a4565b73ffffffffffffffffffffffffffffffffffffffff16600760009054906101000a900473ffffffffffffffffffffffffffffffffffffffff1673ffffffffffffffffffffffffffffffffffffffff1614611514576040517f08c379a00000000000000000000000000000000000000000000000000000000081526004018080602001828103825260208152602001807f4f776e61626c653a2063616c6c6572206973206e6f7420746865206f776e657281525060200191505060405180910390fd5b6000600860009054906101000a900473ffffffffffffffffffffffffffffffffffffffff1673ffffffffffffffffffffffffffffffffffffffff1663c864b77b86866040518363ffffffff1660e01b815260040180806020018281038252848482818152602001925080828437600081840152601f19601f820116905080830192505050935050505060206040518083038186803b1580156115b557600080fd5b505afa1580156115c9573d6000803e3d6000fd5b505050506040513d60208110156115df57600080fd5b81019080805190602001909291905050509050600073ffffffffffffffffffffffffffffffffffffffff168173ffffffffffffffffffffffffffffffffffffffff161415611678576040517f08c379a00000000000000000000000000000000000000000000000000000000081526004018080602001828103825260288152602001806130856028913960400191505060405180910390fd5b600061168d83856126e190919063ffffffff16565b90506116fb816040518060600160405280602b815260200161313f602b9139600a60008673ffffffffffffffffffffffffffffffffffffffff1673ffffffffffffffffffffffffffffffffffffffff168152602001908152602001600020546129309092919063ffffffff16565b600a60008473ffffffffffffffffffffffffffffffffffffffff1673ffffffffffffffffffffffffffffffffffffffff1681526020019081526020016000208190555061174830846129f0565b611753308386612bb4565b505050505050565b606060048054600181600116156101000203166002900480601f0160208091040260200160405190810160405280929190818152602001828054600181600116156101000203166002900480156117f35780601f106117c8576101008083540402835291602001916117f3565b820191906000526020600020905b8154815290600101906020018083116117d657829003601f168201915b5050505050905090565b6118056120a4565b73ffffffffffffffffffffffffffffffffffffffff16600760009054906101000a900473ffffffffffffffffffffffffffffffffffffffff1673ffffffffffffffffffffffffffffffffffffffff16146118c7576040517f08c379a00000000000000000000000000000000000000000000000000000000081526004018080602001828103825260208152602001807f4f776e61626c653a2063616c6c6572206973206e6f7420746865206f776e657281525060200191505060405180910390fd5b8060098190555050565b60006119946118de6120a4565b8461198f8560405180606001604052806025815260200161327060259139600160006119086120a4565b73ffffffffffffffffffffffffffffffffffffffff1673ffffffffffffffffffffffffffffffffffffffff16815260200190815260200160002060008a73ffffffffffffffffffffffffffffffffffffffff1673ffffffffffffffffffffffffffffffffffffffff168152602001908152602001600020546129309092919063ffffffff16565b6120ac565b6001905092915050565b60006119b26119ab6120a4565b84846122a3565b60006119be8484612e75565b90508080156119f857503073ffffffffffffffffffffffffffffffffffffffff168473ffffffffffffffffffffffffffffffffffffffff16145b15611aa157611a5683600a6000611a0d6120a4565b73ffffffffffffffffffffffffffffffffffffffff1673ffffffffffffffffffffffffffffffffffffffff168152602001908152602001600020546126e190919063ffffffff16565b600a6000611a626120a4565b73ffffffffffffffffffffffffffffffffffffffff1673ffffffffffffffffffffffffffffffffffffffff168152602001908152602001600020819055505b8091505092915050565b6000600a60008373ffffffffffffffffffffffffffffffffffffffff1673ffffffffffffffffffffffffffffffffffffffff168152602001908152602001600020549050919050565b600860009054906101000a900473ffffffffffffffffffffffffffffffffffffffff1681565b611b226120a4565b73ffffffffffffffffffffffffffffffffffffffff16600760009054906101000a900473ffffffffffffffffffffffffffffffffffffffff1673ffffffffffffffffffffffffffffffffffffffff1614611be4576040517f08c379a00000000000000000000000000000000000000000000000000000000081526004018080602001828103825260208152602001807f4f776e61626c653a2063616c6c6572206973206e6f7420746865206f776e657281525060200191505060405180910390fd5b6000600860009054906101000a900473ffffffffffffffffffffffffffffffffffffffff1673ffffffffffffffffffffffffffffffffffffffff1663c864b77b85856040518363ffffffff1660e01b815260040180806020018281038252848482818152602001925080828437600081840152601f19601f820116905080830192505050935050505060206040518083038186803b158015611c8557600080fd5b505afa158015611c99573d6000803e3d6000fd5b505050506040513d6020811015611caf57600080fd5b81019080805190602001909291905050509050600073ffffffffffffffffffffffffffffffffffffffff168173ffffffffffffffffffffffffffffffffffffffff161415611d48576040517f08c379a00000000000000000000000000000000000000000000000000000000081526004018080602001828103825260288152602001806130856028913960400191505060405180910390fd5b611db4826040518060600160405280602a8152602001613246602a9139600a60008573ffffffffffffffffffffffffffffffffffffffff1673ffffffffffffffffffffffffffffffffffffffff168152602001908152602001600020546129309092919063ffffffff16565b600a60008373ffffffffffffffffffffffffffffffffffffffff1673ffffffffffffffffffffffffffffffffffffffff16815260200190815260200160002081905550611e0130836129f0565b50505050565b6000600160008473ffffffffffffffffffffffffffffffffffffffff1673ffffffffffffffffffffffffffffffffffffffff16815260200190815260200160002060008373ffffffffffffffffffffffffffffffffffffffff1673ffffffffffffffffffffffffffffffffffffffff16815260200190815260200160002054905092915050565b60095481565b611e9c6120a4565b73ffffffffffffffffffffffffffffffffffffffff16600760009054906101000a900473ffffffffffffffffffffffffffffffffffffffff1673ffffffffffffffffffffffffffffffffffffffff1614611f5e576040517f08c379a00000000000000000000000000000000000000000000000000000000081526004018080602001828103825260208152602001807f4f776e61626c653a2063616c6c6572206973206e6f7420746865206f776e657281525060200191505060405180910390fd5b600073ffffffffffffffffffffffffffffffffffffffff168173ffffffffffffffffffffffffffffffffffffffff161415611fe4576040517f08c379a00000000000000000000000000000000000000000000000000000000081526004018080602001828103825260268152602001806130d16026913960400191505060405180910390fd5b8073ffffffffffffffffffffffffffffffffffffffff16600760009054906101000a900473ffffffffffffffffffffffffffffffffffffffff1673ffffffffffffffffffffffffffffffffffffffff167f8be0079c531659141344cd1fd0a4f28419497f9722a3daafe3b4186f6b6457e060405160405180910390a380600760006101000a81548173ffffffffffffffffffffffffffffffffffffffff021916908373ffffffffffffffffffffffffffffffffffffffff16021790555050565b600033905090565b600073ffffffffffffffffffffffffffffffffffffffff168373ffffffffffffffffffffffffffffffffffffffff161415612132576040517f08c379a00000000000000000000000000000000000000000000000000000000081526004018080602001828103825260248152602001806132226024913960400191505060405180910390fd5b600073ffffffffffffffffffffffffffffffffffffffff168273ffffffffffffffffffffffffffffffffffffffff1614156121b8576040517f08c379a00000000000000000000000000000000000000000000000000000000081526004018080602001828103825260228152602001806130f76022913960400191505060405180910390fd5b80600160008573ffffffffffffffffffffffffffffffffffffffff1673ffffffffffffffffffffffffffffffffffffffff16815260200190815260200160002060008473ffffffffffffffffffffffffffffffffffffffff1673ffffffffffffffffffffffffffffffffffffffff168152602001908152602001600020819055508173ffffffffffffffffffffffffffffffffffffffff168373ffffffffffffffffffffffffffffffffffffffff167f8c5be1e5ebec7d5bd14f71427d1e84f3dd0314c0f7b2291e5b200ac8c7c3b925836040518082815260200191505060405180910390a3505050565b3073ffffffffffffffffffffffffffffffffffffffff168273ffffffffffffffffffffffffffffffffffffffff16141561260357600954811015612332576040517f08c379a000000000000000000000000000000000000000000000000000000000815260040180806020018281038252602981526020018061316a6029913960400191505060405180910390fd5b6060600860009054906101000a900473ffffffffffffffffffffffffffffffffffffffff1673ffffffffffffffffffffffffffffffffffffffff166360b90acf856040518263ffffffff1660e01b8152600401808273ffffffffffffffffffffffffffffffffffffffff1673ffffffffffffffffffffffffffffffffffffffff16815260200191505060006040518083038186803b1580156123d357600080fd5b505afa1580156123e7573d6000803e3d6000fd5b505050506040513d6000823e3d601f19601f82011682018060405250602081101561241157600080fd5b810190808051604051939291908464010000000082111561243157600080fd5b8382019150602082018581111561244757600080fd5b825186600182028301116401000000008211171561246457600080fd5b8083526020830192505050908051906020019080838360005b8381101561249857808201518184015260208101905061247d565b50505050905090810190601f1680156124c55780820380516001836020036101000a031916815260200191505b506040525050509050600081511415612529576040517f08c379a00000000000000000000000000000000000000000000000000000000081526004018080602001828103825260248152602001806130ad6024913960400191505060405180910390fd5b7f5050e3f95833615c462f69b2eb9210cf8e7148cb88b542c0c05066a539560e86848284604051808473ffffffffffffffffffffffffffffffffffffffff1673ffffffffffffffffffffffffffffffffffffffff16815260200180602001838152602001828103825284818151815260200191508051906020019080838360005b838110156125c55780820151818401526020810190506125aa565b50505050905090810190601f1680156125f25780820380516001836020036101000a031916815260200191505b5094505050505060405180910390a1505b505050565b6000612615848484612bb4565b6126d6846126216120a4565b6126d1856040518060600160405280602881526020016131b460289139600160008b73ffffffffffffffffffffffffffffffffffffffff1673ffffffffffffffffffffffffffffffffffffffff16815260200190815260200160002060006126876120a4565b73ffffffffffffffffffffffffffffffffffffffff1673ffffffffffffffffffffffffffffffffffffffff168152602001908152602001600020546129309092919063ffffffff16565b6120ac565b600190509392505050565b60008082840190508381101561275f576040517f08c379a000000000000000000000000000000000000000000000000000000000815260040180806020018281038252601b8152602001807f536166654d6174683a206164646974696f6e206f766572666c6f77000000000081525060200191505060405180910390fd5b8091505092915050565b600073ffffffffffffffffffffffffffffffffffffffff168273ffffffffffffffffffffffffffffffffffffffff16141561280c576040517f08c379a000000000000000000000000000000000000000000000000000000000815260040180806020018281038252601f8152602001807f45524332303a206d696e7420746f20746865207a65726f20616464726573730081525060200191505060405180910390fd5b61281860008383612e93565b61282d816002546126e190919063ffffffff16565b600281905550612884816000808573ffffffffffffffffffffffffffffffffffffffff1673ffffffffffffffffffffffffffffffffffffffff168152602001908152602001600020546126e190919063ffffffff16565b6000808473ffffffffffffffffffffffffffffffffffffffff1673ffffffffffffffffffffffffffffffffffffffff168152602001908152602001600020819055508173ffffffffffffffffffffffffffffffffffffffff16600073ffffffffffffffffffffffffffffffffffffffff167fddf252ad1be2c89b69c2b068fc378daa952ba7f163c4a11628f55a4df523b3ef836040518082815260200191505060405180910390a35050565b60008383111582906129dd576040517f08c379a00000000000000000000000000000000000000000000000000000000081526004018080602001828103825283818151815260200191508051906020019080838360005b838110156129a2578082015181840152602081019050612987565b50505050905090810190601f1680156129cf5780820380516001836020036101000a031916815260200191505b509250505060405180910390fd5b5060008385039050809150509392505050565b600073ffffffffffffffffffffffffffffffffffffffff168273ffffffffffffffffffffffffffffffffffffffff161415612a76576040517f08c379a00000000000000000000000000000000000000000000000000000000081526004018080602001828103825260218152602001806131dc6021913960400191505060405180910390fd5b612a8282600083612e93565b612aed81604051806060016040528060228152602001613063602291396000808673ffffffffffffffffffffffffffffffffffffffff1673ffffffffffffffffffffffffffffffffffffffff168152602001908152602001600020546129309092919063ffffffff16565b6000808473ffffffffffffffffffffffffffffffffffffffff1673ffffffffffffffffffffffffffffffffffffffff16815260200190815260200160002081905550612b4481600254612f6a90919063ffffffff16565b600281905550600073ffffffffffffffffffffffffffffffffffffffff168273ffffffffffffffffffffffffffffffffffffffff167fddf252ad1be2c89b69c2b068fc378daa952ba7f163c4a11628f55a4df523b3ef836040518082815260200191505060405180910390a35050565b600073ffffffffffffffffffffffffffffffffffffffff168373ffffffffffffffffffffffffffffffffffffffff161415612c3a576040517f08c379a00000000000000000000000000000000000000000000000000000000081526004018080602001828103825260258152602001806131fd6025913960400191505060405180910390fd5b600073ffffffffffffffffffffffffffffffffffffffff168273ffffffffffffffffffffffffffffffffffffffff161415612cc0576040517f08c379a00000000000000000000000000000000000000000000000000000000081526004018080602001828103825260238152602001806130406023913960400191505060405180910390fd5b612ccb838383612e93565b612d3681604051806060016040528060268152602001613119602691396000808773ffffffffffffffffffffffffffffffffffffffff1673ffffffffffffffffffffffffffffffffffffffff168152602001908152602001600020546129309092919063ffffffff16565b6000808573ffffffffffffffffffffffffffffffffffffffff1673ffffffffffffffffffffffffffffffffffffffff16815260200190815260200160002081905550612dc9816000808573ffffffffffffffffffffffffffffffffffffffff1673ffffffffffffffffffffffffffffffffffffffff168152602001908152602001600020546126e190919063ffffffff16565b6000808473ffffffffffffffffffffffffffffffffffffffff1673ffffffffffffffffffffffffffffffffffffffff168152602001908152602001600020819055508173ffffffffffffffffffffffffffffffffffffffff168373ffffffffffffffffffffffffffffffffffffffff167fddf252ad1be2c89b69c2b068fc378daa952ba7f163c4a11628f55a4df523b3ef836040518082815260200191505060405180910390a3505050565b6000612e89612e826120a4565b8484612bb4565b6001905092915050565b612e9e838383612fb4565b600073ffffffffffffffffffffffffffffffffffffffff168373ffffffffffffffffffffffffffffffffffffffff161415612f6557600654612ef082612ee2610c75565b6126e190919063ffffffff16565b1115612f64576040517f08c379a00000000000000000000000000000000000000000000000000000000081526004018080602001828103825260198152602001807f45524332304361707065643a206361702065786365656465640000000000000081525060200191505060405180910390fd5b5b505050565b6000612fac83836040518060400160405280601e81526020017f536166654d6174683a207375627472616374696f6e206f766572666c6f770000815250612930565b905092915050565b505050565b600080831415612fcc5760009050613039565b6000828402905082848281612fdd57fe5b0414613034576040517f08c379a00000000000000000000000000000000000000000000000000000000081526004018080602001828103825260218152602001806131936021913960400191505060405180910390fd5b809150505b9291505056fe45524332303a207472616e7366657220746f20746865207a65726f206164647265737345524332303a206275726e20616d6f756e7420657863656564732062616c616e63654348582061646472657373206973206e6f74206d617070656420746f20455448206164647265737341646472657373206973206e6f74206d617070656420746f2043485820616464726573734f776e61626c653a206e6577206f776e657220697320746865207a65726f206164647265737345524332303a20617070726f766520746f20746865207a65726f206164647265737345524332303a207472616e7366657220616d6f756e7420657863656564732062616c616e6365546f74616c20616d6f756e74206578636565647320756e77726170656420746f6b656e2062616c616e6365416d6f756e74206d7573742062652067726561746572207468616e206d696e57726170416d6f756e74536166654d6174683a206d756c7469706c69636174696f6e206f766572666c6f7745524332303a207472616e7366657220616d6f756e74206578636565647320616c6c6f77616e636545524332303a206275726e2066726f6d20746865207a65726f206164647265737345524332303a207472616e736665722066726f6d20746865207a65726f206164647265737345524332303a20617070726f76652066726f6d20746865207a65726f20616464726573734275726e20616d6f756e74206578636565647320756e77726170656420746f6b656e2062616c616e636545524332303a2064656372656173656420616c6c6f77616e63652062656c6f77207a65726fa2646970667358221220ebd8f70d4713658c7a1582a348dd36d7ae25a0d5885cce963d9b60a049a324d764736f6c63430006000033536166654d6174683a206d756c7469706c69636174696f6e206f766572666c6f77",
  "source": "pragma solidity 0.6.0;\r\n\r\nimport '@openzeppelin/contracts/token/ERC20/ERC20.sol';\r\nimport '@openzeppelin/contracts/token/ERC20/ERC20Capped.sol';\r\nimport '@openzeppelin/contracts/access/Ownable.sol';\r\nimport '@openzeppelin/contracts/math/SafeMath.sol';\r\nimport './wCHXMapping.sol';\r\n\r\ncontract wCHXToken is ERC20Capped, Ownable {\r\n    using SafeMath for uint;\r\n    event UnwrapChx(address ethAddress, string chxAddress, uint amount);\r\n    event WrapChx(address ethAddress, string chxAddress, uint amount);\r\n\r\n    wCHXMapping public addressMapping;\r\n    uint public minWrapAmount;\r\n    mapping (address => uint) private pendingUnwrapBalances;\r\n\r\n    constructor(address _mappingContractAddress)\r\n        ERC20(\"Wrapped CHX\", \"wCHX\")\r\n        ERC20Capped(uint(1689565220930844))\r\n        public\r\n    {\r\n        addressMapping = wCHXMapping(_mappingContractAddress);\r\n        _setupDecimals(7);\r\n        minWrapAmount = uint(1000).mul(1e7);\r\n    }\r\n\r\n    function pendingUnwrapBalanceOf(address _ethAddress) \r\n        external \r\n        view \r\n        returns (uint) \r\n    {\r\n        return pendingUnwrapBalances[_ethAddress];\r\n    }\r\n\r\n    ////////////////////////////////////////////////////////////////////////////////////////////////////\r\n    // Transfers\r\n    ////////////////////////////////////////////////////////////////////////////////////////////////////\r\n\r\n    function transfer(address _recipient, uint _amount)\r\n        public\r\n        override\r\n        returns (bool)\r\n    {\r\n        validateAndLogUnwrap(_msgSender(), _recipient, _amount);\r\n\r\n        bool isSuccess = super.transfer(_recipient, _amount);\r\n\r\n        if (isSuccess && _recipient == address(this)) {\r\n            pendingUnwrapBalances[_msgSender()] = pendingUnwrapBalances[_msgSender()].add(_amount);\r\n        }\r\n\r\n        return isSuccess;\r\n    }\r\n\r\n    function transferFrom(address _sender, address _recipient, uint256 _amount)\r\n        public\r\n        override\r\n        returns (bool)\r\n    {\r\n        validateAndLogUnwrap(_sender, _recipient, _amount);\r\n\r\n        bool isSuccess = super.transferFrom(_sender, _recipient, _amount);\r\n\r\n        if (isSuccess && _recipient == address(this)) {\r\n            pendingUnwrapBalances[_sender] = pendingUnwrapBalances[_sender].add(_amount);\r\n        }\r\n\r\n        return isSuccess;\r\n    }\r\n\r\n    function validateAndLogUnwrap(address _sender, address _recipient, uint256 _amount) \r\n        private\r\n    {\r\n        if (_recipient == address(this)) {\r\n            require(_amount >= minWrapAmount, \"Amount must be greater than minWrapAmount\");\r\n            string memory chxAddress = addressMapping.chxAddress(_sender);\r\n            require(bytes(chxAddress).length != 0, \"Address is not mapped to CHX address\");\r\n            emit UnwrapChx(_sender, chxAddress, _amount);\r\n        }\r\n    }\r\n\r\n    ////////////////////////////////////////////////////////////////////////////////////////////////////\r\n    // Wrapping logic\r\n    ////////////////////////////////////////////////////////////////////////////////////////////////////\r\n\r\n    function burnUnwrapedTokens(string calldata _chxAddress, uint _amount)\r\n        external\r\n        onlyOwner\r\n    {\r\n        address ethAddress = addressMapping.ethAddress(_chxAddress);\r\n        require(ethAddress != address(0), \"CHX address is not mapped to ETH address\");\r\n\r\n        pendingUnwrapBalances[ethAddress] = pendingUnwrapBalances[ethAddress].sub(_amount, \"Burn amount exceeds unwraped token balance\");\r\n        _burn(address(this), _amount);\r\n    }\r\n\r\n    function revertUnwrapedTokens(string calldata _chxAddress, uint _revertAmount, uint _feeAmount)\r\n        external\r\n        onlyOwner\r\n    {\r\n        address ethAddress = addressMapping.ethAddress(_chxAddress);\r\n        require(ethAddress != address(0), \"CHX address is not mapped to ETH address\");\r\n\r\n        uint totalAmount = _revertAmount.add(_feeAmount);\r\n        pendingUnwrapBalances[ethAddress] = pendingUnwrapBalances[ethAddress].sub(totalAmount, \"Total amount exceeds unwraped token balance\");\r\n        _burn(address(this), _feeAmount);\r\n        _transfer(address(this), ethAddress, _revertAmount);\r\n    }\r\n\r\n    function wrap(string calldata _chxAddress, uint _amount)\r\n        external\r\n        onlyOwner\r\n    {\r\n        address ethAddress = addressMapping.ethAddress(_chxAddress);\r\n        require(ethAddress != address(0), \"CHX address is not mapped to ETH address\");\r\n        emit WrapChx(ethAddress, _chxAddress, _amount);\r\n\r\n        _mint(ethAddress, _amount);\r\n    }\r\n\r\n    function setMinWrapAmount(uint _amount)\r\n        external\r\n        onlyOwner\r\n    {\r\n        minWrapAmount = _amount;\r\n    }\r\n\r\n    ////////////////////////////////////////////////////////////////////////////////////////////////////\r\n    // Miscellaneous\r\n    ////////////////////////////////////////////////////////////////////////////////////////////////////\r\n\r\n    // Enable recovery of ether sent by mistake to this contract's address.\r\n    function drainStrayEther(uint _amount)\r\n        external\r\n        onlyOwner\r\n        returns (bool)\r\n    {\r\n        payable(owner()).transfer(_amount);\r\n        return true;\r\n    }\r\n\r\n    // Enable recovery of any ERC20 compatible token sent by mistake to this contract's address.\r\n    function drainStrayTokens(IERC20 _token, uint _amount)\r\n        external\r\n        onlyOwner\r\n        returns (bool)\r\n    {\r\n        require(address(_token) != address(this), \"wCHX cannot be drained\");\r\n        return _token.transfer(owner(), _amount);\r\n    }\r\n}\r\n",
  "sourcePath": "C:/Users/User/Source/Repos/IBCSmartContracts-1/src/contracts/wCHXToken.sol",
  "compiler": {
    "name": "solc",
    "version": "0.6.0+commit.26b70077.Emscripten.clang"
  },
  "schemaVersion": "3.3.3",
  "updatedAt": "2021-11-17T10:59:18.633Z",
  "devdoc": {
    "methods": {
      "allowance(address,address)": {
        "details": "See {IERC20-allowance}."
      },
      "approve(address,uint256)": {
        "details": "See {IERC20-approve}.      * Requirements:      * - `spender` cannot be the zero address."
      },
      "balanceOf(address)": {
        "details": "See {IERC20-balanceOf}."
      },
      "cap()": {
        "details": "Returns the cap on the token's total supply."
      },
      "decimals()": {
        "details": "Returns the number of decimals used to get its user representation. For example, if `decimals` equals `2`, a balance of `505` tokens should be displayed to a user as `5,05` (`505 / 10 ** 2`).      * Tokens usually opt for a value of 18, imitating the relationship between Ether and Wei. This is the value {ERC20} uses, unless {_setupDecimals} is called.      * NOTE: This information is only used for _display_ purposes: it in no way affects any of the arithmetic of the contract, including {IERC20-balanceOf} and {IERC20-transfer}."
      },
      "decreaseAllowance(address,uint256)": {
        "details": "Atomically decreases the allowance granted to `spender` by the caller.      * This is an alternative to {approve} that can be used as a mitigation for problems described in {IERC20-approve}.      * Emits an {Approval} event indicating the updated allowance.      * Requirements:      * - `spender` cannot be the zero address. - `spender` must have allowance for the caller of at least `subtractedValue`."
      },
      "increaseAllowance(address,uint256)": {
        "details": "Atomically increases the allowance granted to `spender` by the caller.      * This is an alternative to {approve} that can be used as a mitigation for problems described in {IERC20-approve}.      * Emits an {Approval} event indicating the updated allowance.      * Requirements:      * - `spender` cannot be the zero address."
      },
      "name()": {
        "details": "Returns the name of the token."
      },
      "owner()": {
        "details": "Returns the address of the current owner."
      },
      "renounceOwnership()": {
        "details": "Leaves the contract without owner. It will not be possible to call `onlyOwner` functions anymore. Can only be called by the current owner.      * NOTE: Renouncing ownership will leave the contract without an owner, thereby removing any functionality that is only available to the owner."
      },
      "symbol()": {
        "details": "Returns the symbol of the token, usually a shorter version of the name."
      },
      "totalSupply()": {
        "details": "See {IERC20-totalSupply}."
      },
      "transferOwnership(address)": {
        "details": "Transfers ownership of the contract to a new account (`newOwner`). Can only be called by the current owner."
      }
    }
  },
  "userdoc": {
    "methods": {
      "burnUnwrapedTokens(string,uint256)": {
        "notice": "/////////////////////////////////////////////////////////////////////////////////////////////////"
      },
      "drainStrayEther(uint256)": {
        "notice": "/////////////////////////////////////////////////////////////////////////////////////////////////"
      },
      "transfer(address,uint256)": {
        "notice": "/////////////////////////////////////////////////////////////////////////////////////////////////"
      }
    }
  }
}