{
  "contractName": "wCHXToken",
  "abi": [
    {
      "inputs": [
        {
          "internalType": "address",
          "name": "_mappingContractAddress",
          "type": "address"
        }
      ],
      "stateMutability": "nonpayable",
      "type": "constructor"
    },
    {
      "anonymous": false,
      "inputs": [
        {
          "indexed": true,
          "internalType": "address",
          "name": "owner",
          "type": "address"
        },
        {
          "indexed": true,
          "internalType": "address",
          "name": "spender",
          "type": "address"
        },
        {
          "indexed": false,
          "internalType": "uint256",
          "name": "value",
          "type": "uint256"
        }
      ],
      "name": "Approval",
      "type": "event"
    },
    {
      "anonymous": false,
      "inputs": [
        {
          "indexed": true,
          "internalType": "address",
          "name": "previousOwner",
          "type": "address"
        },
        {
          "indexed": true,
          "internalType": "address",
          "name": "newOwner",
          "type": "address"
        }
      ],
      "name": "OwnershipTransferred",
      "type": "event"
    },
    {
      "anonymous": false,
      "inputs": [
        {
          "indexed": true,
          "internalType": "address",
          "name": "from",
          "type": "address"
        },
        {
          "indexed": true,
          "internalType": "address",
          "name": "to",
          "type": "address"
        },
        {
          "indexed": false,
          "internalType": "uint256",
          "name": "value",
          "type": "uint256"
        }
      ],
      "name": "Transfer",
      "type": "event"
    },
    {
      "anonymous": false,
      "inputs": [
        {
          "indexed": false,
          "internalType": "address",
          "name": "ethAddress",
          "type": "address"
        },
        {
          "indexed": false,
          "internalType": "string",
          "name": "chxAddress",
          "type": "string"
        },
        {
          "indexed": false,
          "internalType": "uint256",
          "name": "amount",
          "type": "uint256"
        }
      ],
      "name": "UnwrapChx",
      "type": "event"
    },
    {
      "anonymous": false,
      "inputs": [
        {
          "indexed": false,
          "internalType": "address",
          "name": "ethAddress",
          "type": "address"
        },
        {
          "indexed": false,
          "internalType": "string",
          "name": "chxAddress",
          "type": "string"
        },
        {
          "indexed": false,
          "internalType": "uint256",
          "name": "amount",
          "type": "uint256"
        }
      ],
      "name": "WrapChx",
      "type": "event"
    },
    {
      "inputs": [],
      "name": "addressMapping",
      "outputs": [
        {
          "internalType": "contract wCHXMapping",
          "name": "",
          "type": "address"
        }
      ],
      "stateMutability": "view",
      "type": "function"
    },
    {
      "inputs": [
        {
          "internalType": "address",
          "name": "owner",
          "type": "address"
        },
        {
          "internalType": "address",
          "name": "spender",
          "type": "address"
        }
      ],
      "name": "allowance",
      "outputs": [
        {
          "internalType": "uint256",
          "name": "",
          "type": "uint256"
        }
      ],
      "stateMutability": "view",
      "type": "function"
    },
    {
      "inputs": [
        {
          "internalType": "address",
          "name": "spender",
          "type": "address"
        },
        {
          "internalType": "uint256",
          "name": "amount",
          "type": "uint256"
        }
      ],
      "name": "approve",
      "outputs": [
        {
          "internalType": "bool",
          "name": "",
          "type": "bool"
        }
      ],
      "stateMutability": "nonpayable",
      "type": "function"
    },
    {
      "inputs": [
        {
          "internalType": "address",
          "name": "account",
          "type": "address"
        }
      ],
      "name": "balanceOf",
      "outputs": [
        {
          "internalType": "uint256",
          "name": "",
          "type": "uint256"
        }
      ],
      "stateMutability": "view",
      "type": "function"
    },
    {
      "inputs": [],
      "name": "cap",
      "outputs": [
        {
          "internalType": "uint256",
          "name": "",
          "type": "uint256"
        }
      ],
      "stateMutability": "view",
      "type": "function"
    },
    {
      "inputs": [],
      "name": "decimals",
      "outputs": [
        {
          "internalType": "uint8",
          "name": "",
          "type": "uint8"
        }
      ],
      "stateMutability": "view",
      "type": "function"
    },
    {
      "inputs": [
        {
          "internalType": "address",
          "name": "spender",
          "type": "address"
        },
        {
          "internalType": "uint256",
          "name": "subtractedValue",
          "type": "uint256"
        }
      ],
      "name": "decreaseAllowance",
      "outputs": [
        {
          "internalType": "bool",
          "name": "",
          "type": "bool"
        }
      ],
      "stateMutability": "nonpayable",
      "type": "function"
    },
    {
      "inputs": [
        {
          "internalType": "address",
          "name": "spender",
          "type": "address"
        },
        {
          "internalType": "uint256",
          "name": "addedValue",
          "type": "uint256"
        }
      ],
      "name": "increaseAllowance",
      "outputs": [
        {
          "internalType": "bool",
          "name": "",
          "type": "bool"
        }
      ],
      "stateMutability": "nonpayable",
      "type": "function"
    },
    {
      "inputs": [],
      "name": "name",
      "outputs": [
        {
          "internalType": "string",
          "name": "",
          "type": "string"
        }
      ],
      "stateMutability": "view",
      "type": "function"
    },
    {
      "inputs": [],
      "name": "owner",
      "outputs": [
        {
          "internalType": "address",
          "name": "",
          "type": "address"
        }
      ],
      "stateMutability": "view",
      "type": "function"
    },
    {
      "inputs": [],
      "name": "renounceOwnership",
      "outputs": [],
      "stateMutability": "nonpayable",
      "type": "function"
    },
    {
      "inputs": [],
      "name": "symbol",
      "outputs": [
        {
          "internalType": "string",
          "name": "",
          "type": "string"
        }
      ],
      "stateMutability": "view",
      "type": "function"
    },
    {
      "inputs": [],
      "name": "totalSupply",
      "outputs": [
        {
          "internalType": "uint256",
          "name": "",
          "type": "uint256"
        }
      ],
      "stateMutability": "view",
      "type": "function"
    },
    {
      "inputs": [
        {
          "internalType": "address",
          "name": "newOwner",
          "type": "address"
        }
      ],
      "name": "transferOwnership",
      "outputs": [],
      "stateMutability": "nonpayable",
      "type": "function"
    },
    {
      "inputs": [],
      "name": "minWrapAmount",
      "outputs": [
        {
          "internalType": "uint256",
          "name": "",
          "type": "uint256"
        }
      ],
      "stateMutability": "view",
      "type": "function"
    },
    {
      "inputs": [
        {
          "internalType": "address",
          "name": "_ethAddress",
          "type": "address"
        }
      ],
      "name": "pendingUnwrapBalance",
      "outputs": [
        {
          "internalType": "uint256",
          "name": "",
          "type": "uint256"
        }
      ],
      "stateMutability": "view",
      "type": "function"
    },
    {
      "inputs": [
        {
          "internalType": "address",
          "name": "_recipient",
          "type": "address"
        },
        {
          "internalType": "uint256",
          "name": "_amount",
          "type": "uint256"
        }
      ],
      "name": "transfer",
      "outputs": [
        {
          "internalType": "bool",
          "name": "",
          "type": "bool"
        }
      ],
      "stateMutability": "nonpayable",
      "type": "function"
    },
    {
      "inputs": [
        {
          "internalType": "address",
          "name": "_sender",
          "type": "address"
        },
        {
          "internalType": "address",
          "name": "_recipient",
          "type": "address"
        },
        {
          "internalType": "uint256",
          "name": "_amount",
          "type": "uint256"
        }
      ],
      "name": "transferFrom",
      "outputs": [
        {
          "internalType": "bool",
          "name": "",
          "type": "bool"
        }
      ],
      "stateMutability": "nonpayable",
      "type": "function"
    },
    {
      "inputs": [
        {
          "internalType": "string",
          "name": "_chxAddress",
          "type": "string"
        },
        {
          "internalType": "uint256",
          "name": "_amount",
          "type": "uint256"
        }
      ],
      "name": "burnUnwrapedTokens",
      "outputs": [],
      "stateMutability": "nonpayable",
      "type": "function"
    },
    {
      "inputs": [
        {
          "internalType": "string",
          "name": "_chxAddress",
          "type": "string"
        },
        {
          "internalType": "uint256",
          "name": "_revertAmount",
          "type": "uint256"
        },
        {
          "internalType": "uint256",
          "name": "_feeAmount",
          "type": "uint256"
        }
      ],
      "name": "revertUnwrapedTokens",
      "outputs": [],
      "stateMutability": "nonpayable",
      "type": "function"
    },
    {
      "inputs": [
        {
          "internalType": "string",
          "name": "_chxAddress",
          "type": "string"
        },
        {
          "internalType": "uint256",
          "name": "_amount",
          "type": "uint256"
        }
      ],
      "name": "wrap",
      "outputs": [],
      "stateMutability": "nonpayable",
      "type": "function"
    },
    {
      "inputs": [
        {
          "internalType": "uint256",
          "name": "_amount",
          "type": "uint256"
        }
      ],
      "name": "setMinWrapAmount",
      "outputs": [],
      "stateMutability": "nonpayable",
      "type": "function"
    },
    {
      "inputs": [
        {
          "internalType": "uint256",
          "name": "_amount",
          "type": "uint256"
        }
      ],
      "name": "drainStrayEther",
      "outputs": [
        {
          "internalType": "bool",
          "name": "",
          "type": "bool"
        }
      ],
      "stateMutability": "nonpayable",
      "type": "function"
    },
    {
      "inputs": [
        {
          "internalType": "contract IERC20",
          "name": "_token",
          "type": "address"
        },
        {
          "internalType": "uint256",
          "name": "_amount",
          "type": "uint256"
        }
      ],
      "name": "drainStrayTokens",
      "outputs": [
        {
          "internalType": "bool",
          "name": "",
          "type": "bool"
        }
      ],
      "stateMutability": "nonpayable",
      "type": "function"
    }
  ],
  "bytecode": "0x60806040523480156200001157600080fd5b506040516200385738038062003857833981810160405260208110156200003757600080fd5b8101908080519060200190929190505050660600a68ed1851c6040518060400160405280600b81526020017f57726170706564204348580000000000000000000000000000000000000000008152506040518060400160405280600481526020017f77434858000000000000000000000000000000000000000000000000000000008152508160039080519060200190620000d49291906200036c565b508060049080519060200190620000ed9291906200036c565b506012600560006101000a81548160ff021916908360ff16021790555050506000811162000183576040517f08c379a00000000000000000000000000000000000000000000000000000000081526004018080602001828103825260158152602001807f45524332304361707065643a206361702069732030000000000000000000000081525060200191505060405180910390fd5b806006819055505060006200019d620002bb60201b60201c565b905080600760006101000a81548173ffffffffffffffffffffffffffffffffffffffff021916908373ffffffffffffffffffffffffffffffffffffffff1602179055508073ffffffffffffffffffffffffffffffffffffffff16600073ffffffffffffffffffffffffffffffffffffffff167f8be0079c531659141344cd1fd0a4f28419497f9722a3daafe3b4186f6b6457e060405160405180910390a35080600860006101000a81548173ffffffffffffffffffffffffffffffffffffffff021916908373ffffffffffffffffffffffffffffffffffffffff1602179055506200028f6007620002c360201b60201c565b620002ae629896806103e8620002e160201b620030f61790919060201c565b600981905550506200041b565b600033905090565b80600560006101000a81548160ff021916908360ff16021790555050565b600080831415620002f6576000905062000366565b60008284029050828482816200030857fe5b041462000361576040517f08c379a0000000000000000000000000000000000000000000000000000000008152600401808060200182810382526021815260200180620038366021913960400191505060405180910390fd5b809150505b92915050565b828054600181600116156101000203166002900490600052602060002090601f016020900481019282601f10620003af57805160ff1916838001178555620003e0565b82800160010185558215620003e0579182015b82811115620003df578251825591602001919060010190620003c2565b5b509050620003ef9190620003f3565b5090565b6200041891905b8082111562000414576000816000905550600101620003fa565b5090565b90565b61340b806200042b6000396000f3fe608060405234801561001057600080fd5b50600436106101585760003560e01c8063715018a6116100c3578063a9059cbb1161007c578063a9059cbb146107ed578063c57d4b9314610853578063d1eecc341461089d578063dd62ed3e14610962578063e991fb27146109da578063f2fde38b146109f857610158565b8063715018a6146105b35780638da5cb5b146105bd57806392103e1e1461060757806395d89b41146106d65780639cc65a5514610759578063a457c2d71461078757610158565b8063313ce56711610115578063313ce567146103a8578063355274ea146103cc57806339509351146103ea5780633df82e4e1461045057806342bf41ae1461051557806370a082311461055b57610158565b8063050b8c661461015d57806306fdde03146101c3578063095ea7b31461024657806316f9051f146102ac57806318160ddd1461030457806323b872dd14610322575b600080fd5b6101a96004803603604081101561017357600080fd5b81019080803573ffffffffffffffffffffffffffffffffffffffff16906020019092919080359060200190929190505050610a3c565b604051808215151515815260200191505060405180910390f35b6101cb610c7b565b6040518080602001828103825283818151815260200191508051906020019080838360005b8381101561020b5780820151818401526020810190506101f0565b50505050905090810190601f1680156102385780820380516001836020036101000a031916815260200191505b509250505060405180910390f35b6102926004803603604081101561025c57600080fd5b81019080803573ffffffffffffffffffffffffffffffffffffffff16906020019092919080359060200190929190505050610d1d565b604051808215151515815260200191505060405180910390f35b6102ee600480360360208110156102c257600080fd5b81019080803573ffffffffffffffffffffffffffffffffffffffff169060200190929190505050610d3b565b6040518082815260200191505060405180910390f35b61030c610d84565b6040518082815260200191505060405180910390f35b61038e6004803603606081101561033857600080fd5b81019080803573ffffffffffffffffffffffffffffffffffffffff169060200190929190803573ffffffffffffffffffffffffffffffffffffffff16906020019092919080359060200190929190505050610d8e565b604051808215151515815260200191505060405180910390f35b6103b0610e51565b604051808260ff1660ff16815260200191505060405180910390f35b6103d4610e68565b6040518082815260200191505060405180910390f35b6104366004803603604081101561040057600080fd5b81019080803573ffffffffffffffffffffffffffffffffffffffff16906020019092919080359060200190929190505050610e72565b604051808215151515815260200191505060405180910390f35b6105136004803603604081101561046657600080fd5b810190808035906020019064010000000081111561048357600080fd5b82018360208201111561049557600080fd5b803590602001918460018302840111640100000000831117156104b757600080fd5b91908080601f016020809104026020016040519081016040528093929190818152602001838380828437600081840152601f19601f82011690508083019250505050505050919291929080359060200190929190505050610f25565b005b6105416004803603602081101561052b57600080fd5b8101908080359060200190929190505050611273565b604051808215151515815260200191505060405180910390f35b61059d6004803603602081101561057157600080fd5b81019080803573ffffffffffffffffffffffffffffffffffffffff169060200190929190505050611396565b6040518082815260200191505060405180910390f35b6105bb6113de565b005b6105c5611569565b604051808273ffffffffffffffffffffffffffffffffffffffff1673ffffffffffffffffffffffffffffffffffffffff16815260200191505060405180910390f35b6106d46004803603606081101561061d57600080fd5b810190808035906020019064010000000081111561063a57600080fd5b82018360208201111561064c57600080fd5b8035906020019184600183028401116401000000008311171561066e57600080fd5b91908080601f016020809104026020016040519081016040528093929190818152602001838380828437600081840152601f19601f8201169050808301925050505050505091929192908035906020019092919080359060200190929190505050611593565b005b6106de6118dc565b6040518080602001828103825283818151815260200191508051906020019080838360005b8381101561071e578082015181840152602081019050610703565b50505050905090810190601f16801561074b5780820380516001836020036101000a031916815260200191505b509250505060405180910390f35b6107856004803603602081101561076f57600080fd5b810190808035906020019092919050505061197e565b005b6107d36004803603604081101561079d57600080fd5b81019080803573ffffffffffffffffffffffffffffffffffffffff16906020019092919080359060200190929190505050611a52565b604051808215151515815260200191505060405180910390f35b6108396004803603604081101561080357600080fd5b81019080803573ffffffffffffffffffffffffffffffffffffffff16906020019092919080359060200190929190505050611b1f565b604051808215151515815260200191505060405180910390f35b61085b611bf5565b604051808273ffffffffffffffffffffffffffffffffffffffff1673ffffffffffffffffffffffffffffffffffffffff16815260200191505060405180910390f35b610960600480360360408110156108b357600080fd5b81019080803590602001906401000000008111156108d057600080fd5b8201836020820111156108e257600080fd5b8035906020019184600183028401116401000000008311171561090457600080fd5b91908080601f016020809104026020016040519081016040528093929190818152602001838380828437600081840152601f19601f82011690508083019250505050505050919291929080359060200190929190505050611c1b565b005b6109c46004803603604081101561097857600080fd5b81019080803573ffffffffffffffffffffffffffffffffffffffff169060200190929190803573ffffffffffffffffffffffffffffffffffffffff169060200190929190505050611f40565b6040518082815260200191505060405180910390f35b6109e2611fc7565b6040518082815260200191505060405180910390f35b610a3a60048036036020811015610a0e57600080fd5b81019080803573ffffffffffffffffffffffffffffffffffffffff169060200190929190505050611fd1565b005b6000610a466121e1565b73ffffffffffffffffffffffffffffffffffffffff16600760009054906101000a900473ffffffffffffffffffffffffffffffffffffffff1673ffffffffffffffffffffffffffffffffffffffff1614610b08576040517f08c379a00000000000000000000000000000000000000000000000000000000081526004018080602001828103825260208152602001807f4f776e61626c653a2063616c6c6572206973206e6f7420746865206f776e657281525060200191505060405180910390fd5b3073ffffffffffffffffffffffffffffffffffffffff168373ffffffffffffffffffffffffffffffffffffffff161415610baa576040517f08c379a000000000000000000000000000000000000000000000000000000000815260040180806020018281038252601b8152602001807f77434858546f6b656e2063616e6e6f7420626520647261696e6564000000000081525060200191505060405180910390fd5b8273ffffffffffffffffffffffffffffffffffffffff1663a9059cbb610bce611569565b846040518363ffffffff1660e01b8152600401808373ffffffffffffffffffffffffffffffffffffffff1673ffffffffffffffffffffffffffffffffffffffff16815260200182815260200192505050602060405180830381600087803b158015610c3857600080fd5b505af1158015610c4c573d6000803e3d6000fd5b505050506040513d6020811015610c6257600080fd5b8101908080519060200190929190505050905092915050565b606060038054600181600116156101000203166002900480601f016020809104026020016040519081016040528092919081815260200182805460018160011615610100020316600290048015610d135780601f10610ce857610100808354040283529160200191610d13565b820191906000526020600020905b815481529060010190602001808311610cf657829003601f168201915b5050505050905090565b6000610d31610d2a6121e1565b84846121e9565b6001905092915050565b6000600a60008373ffffffffffffffffffffffffffffffffffffffff1673ffffffffffffffffffffffffffffffffffffffff168152602001908152602001600020549050919050565b6000600254905090565b6000610d9b8484846123e0565b6000610da8858585612745565b90508015610e4657610e0283600a60008873ffffffffffffffffffffffffffffffffffffffff1673ffffffffffffffffffffffffffffffffffffffff1681526020019081526020016000205461281e90919063ffffffff16565b600a60008773ffffffffffffffffffffffffffffffffffffffff1673ffffffffffffffffffffffffffffffffffffffff168152602001908152602001600020819055505b809150509392505050565b6000600560009054906101000a900460ff16905090565b6000600654905090565b6000610f1b610e7f6121e1565b84610f168560016000610e906121e1565b73ffffffffffffffffffffffffffffffffffffffff1673ffffffffffffffffffffffffffffffffffffffff16815260200190815260200160002060008973ffffffffffffffffffffffffffffffffffffffff1673ffffffffffffffffffffffffffffffffffffffff1681526020019081526020016000205461281e90919063ffffffff16565b6121e9565b6001905092915050565b610f2d6121e1565b73ffffffffffffffffffffffffffffffffffffffff16600760009054906101000a900473ffffffffffffffffffffffffffffffffffffffff1673ffffffffffffffffffffffffffffffffffffffff1614610fef576040517f08c379a00000000000000000000000000000000000000000000000000000000081526004018080602001828103825260208152602001807f4f776e61626c653a2063616c6c6572206973206e6f7420746865206f776e657281525060200191505060405180910390fd5b6000600860009054906101000a900473ffffffffffffffffffffffffffffffffffffffff1673ffffffffffffffffffffffffffffffffffffffff1663c864b77b846040518263ffffffff1660e01b81526004018080602001828103825283818151815260200191508051906020019080838360005b8381101561107f578082015181840152602081019050611064565b50505050905090810190601f1680156110ac5780820380516001836020036101000a031916815260200191505b509250505060206040518083038186803b1580156110c957600080fd5b505afa1580156110dd573d6000803e3d6000fd5b505050506040513d60208110156110f357600080fd5b81019080805190602001909291905050509050600073ffffffffffffffffffffffffffffffffffffffff168173ffffffffffffffffffffffffffffffffffffffff16141561118c576040517f08c379a00000000000000000000000000000000000000000000000000000000081526004018080602001828103825260288152602001806131c26028913960400191505060405180910390fd5b7f2468f62c8dd25e8a8a9eab630f96124ba96abd008e4407bec46dc4598ae339a7818484604051808473ffffffffffffffffffffffffffffffffffffffff1673ffffffffffffffffffffffffffffffffffffffff16815260200180602001838152602001828103825284818151815260200191508051906020019080838360005b8381101561122857808201518184015260208101905061120d565b50505050905090810190601f1680156112555780820380516001836020036101000a031916815260200191505b5094505050505060405180910390a161126e81836128a6565b505050565b600061127d6121e1565b73ffffffffffffffffffffffffffffffffffffffff16600760009054906101000a900473ffffffffffffffffffffffffffffffffffffffff1673ffffffffffffffffffffffffffffffffffffffff161461133f576040517f08c379a00000000000000000000000000000000000000000000000000000000081526004018080602001828103825260208152602001807f4f776e61626c653a2063616c6c6572206973206e6f7420746865206f776e657281525060200191505060405180910390fd5b611347611569565b73ffffffffffffffffffffffffffffffffffffffff166108fc839081150290604051600060405180830381858888f1935050505015801561138c573d6000803e3d6000fd5b5060019050919050565b60008060008373ffffffffffffffffffffffffffffffffffffffff1673ffffffffffffffffffffffffffffffffffffffff168152602001908152602001600020549050919050565b6113e66121e1565b73ffffffffffffffffffffffffffffffffffffffff16600760009054906101000a900473ffffffffffffffffffffffffffffffffffffffff1673ffffffffffffffffffffffffffffffffffffffff16146114a8576040517f08c379a00000000000000000000000000000000000000000000000000000000081526004018080602001828103825260208152602001807f4f776e61626c653a2063616c6c6572206973206e6f7420746865206f776e657281525060200191505060405180910390fd5b600073ffffffffffffffffffffffffffffffffffffffff16600760009054906101000a900473ffffffffffffffffffffffffffffffffffffffff1673ffffffffffffffffffffffffffffffffffffffff167f8be0079c531659141344cd1fd0a4f28419497f9722a3daafe3b4186f6b6457e060405160405180910390a36000600760006101000a81548173ffffffffffffffffffffffffffffffffffffffff021916908373ffffffffffffffffffffffffffffffffffffffff160217905550565b6000600760009054906101000a900473ffffffffffffffffffffffffffffffffffffffff16905090565b61159b6121e1565b73ffffffffffffffffffffffffffffffffffffffff16600760009054906101000a900473ffffffffffffffffffffffffffffffffffffffff1673ffffffffffffffffffffffffffffffffffffffff161461165d576040517f08c379a00000000000000000000000000000000000000000000000000000000081526004018080602001828103825260208152602001807f4f776e61626c653a2063616c6c6572206973206e6f7420746865206f776e657281525060200191505060405180910390fd5b6000600860009054906101000a900473ffffffffffffffffffffffffffffffffffffffff1673ffffffffffffffffffffffffffffffffffffffff1663c864b77b856040518263ffffffff1660e01b81526004018080602001828103825283818151815260200191508051906020019080838360005b838110156116ed5780820151818401526020810190506116d2565b50505050905090810190601f16801561171a5780820380516001836020036101000a031916815260200191505b509250505060206040518083038186803b15801561173757600080fd5b505afa15801561174b573d6000803e3d6000fd5b505050506040513d602081101561176157600080fd5b81019080805190602001909291905050509050600073ffffffffffffffffffffffffffffffffffffffff168173ffffffffffffffffffffffffffffffffffffffff1614156117fa576040517f08c379a00000000000000000000000000000000000000000000000000000000081526004018080602001828103825260288152602001806131c26028913960400191505060405180910390fd5b600061180f838561281e90919063ffffffff16565b905061187d816040518060600160405280602b815260200161327c602b9139600a60008673ffffffffffffffffffffffffffffffffffffffff1673ffffffffffffffffffffffffffffffffffffffff16815260200190815260200160002054612a6d9092919063ffffffff16565b600a60008473ffffffffffffffffffffffffffffffffffffffff1673ffffffffffffffffffffffffffffffffffffffff168152602001908152602001600020819055506118ca3084612b2d565b6118d5308386612cf1565b5050505050565b606060048054600181600116156101000203166002900480601f0160208091040260200160405190810160405280929190818152602001828054600181600116156101000203166002900480156119745780601f1061194957610100808354040283529160200191611974565b820191906000526020600020905b81548152906001019060200180831161195757829003601f168201915b5050505050905090565b6119866121e1565b73ffffffffffffffffffffffffffffffffffffffff16600760009054906101000a900473ffffffffffffffffffffffffffffffffffffffff1673ffffffffffffffffffffffffffffffffffffffff1614611a48576040517f08c379a00000000000000000000000000000000000000000000000000000000081526004018080602001828103825260208152602001807f4f776e61626c653a2063616c6c6572206973206e6f7420746865206f776e657281525060200191505060405180910390fd5b8060098190555050565b6000611b15611a5f6121e1565b84611b10856040518060600160405280602581526020016133b16025913960016000611a896121e1565b73ffffffffffffffffffffffffffffffffffffffff1673ffffffffffffffffffffffffffffffffffffffff16815260200190815260200160002060008a73ffffffffffffffffffffffffffffffffffffffff1673ffffffffffffffffffffffffffffffffffffffff16815260200190815260200160002054612a6d9092919063ffffffff16565b6121e9565b6001905092915050565b6000611b33611b2c6121e1565b84846123e0565b6000611b3f8484612fb2565b90508015611beb57611ba083600a6000611b576121e1565b73ffffffffffffffffffffffffffffffffffffffff1673ffffffffffffffffffffffffffffffffffffffff1681526020019081526020016000205461281e90919063ffffffff16565b600a6000611bac6121e1565b73ffffffffffffffffffffffffffffffffffffffff1673ffffffffffffffffffffffffffffffffffffffff168152602001908152602001600020819055505b8091505092915050565b600860009054906101000a900473ffffffffffffffffffffffffffffffffffffffff1681565b611c236121e1565b73ffffffffffffffffffffffffffffffffffffffff16600760009054906101000a900473ffffffffffffffffffffffffffffffffffffffff1673ffffffffffffffffffffffffffffffffffffffff1614611ce5576040517f08c379a00000000000000000000000000000000000000000000000000000000081526004018080602001828103825260208152602001807f4f776e61626c653a2063616c6c6572206973206e6f7420746865206f776e657281525060200191505060405180910390fd5b6000600860009054906101000a900473ffffffffffffffffffffffffffffffffffffffff1673ffffffffffffffffffffffffffffffffffffffff1663c864b77b846040518263ffffffff1660e01b81526004018080602001828103825283818151815260200191508051906020019080838360005b83811015611d75578082015181840152602081019050611d5a565b50505050905090810190601f168015611da25780820380516001836020036101000a031916815260200191505b509250505060206040518083038186803b158015611dbf57600080fd5b505afa158015611dd3573d6000803e3d6000fd5b505050506040513d6020811015611de957600080fd5b81019080805190602001909291905050509050600073ffffffffffffffffffffffffffffffffffffffff168173ffffffffffffffffffffffffffffffffffffffff161415611e82576040517f08c379a00000000000000000000000000000000000000000000000000000000081526004018080602001828103825260288152602001806131c26028913960400191505060405180910390fd5b611eee826040518060600160405280602a8152602001613387602a9139600a60008573ffffffffffffffffffffffffffffffffffffffff1673ffffffffffffffffffffffffffffffffffffffff16815260200190815260200160002054612a6d9092919063ffffffff16565b600a60008373ffffffffffffffffffffffffffffffffffffffff1673ffffffffffffffffffffffffffffffffffffffff16815260200190815260200160002081905550611f3b3083612b2d565b505050565b6000600160008473ffffffffffffffffffffffffffffffffffffffff1673ffffffffffffffffffffffffffffffffffffffff16815260200190815260200160002060008373ffffffffffffffffffffffffffffffffffffffff1673ffffffffffffffffffffffffffffffffffffffff16815260200190815260200160002054905092915050565b6000600954905090565b611fd96121e1565b73ffffffffffffffffffffffffffffffffffffffff16600760009054906101000a900473ffffffffffffffffffffffffffffffffffffffff1673ffffffffffffffffffffffffffffffffffffffff161461209b576040517f08c379a00000000000000000000000000000000000000000000000000000000081526004018080602001828103825260208152602001807f4f776e61626c653a2063616c6c6572206973206e6f7420746865206f776e657281525060200191505060405180910390fd5b600073ffffffffffffffffffffffffffffffffffffffff168173ffffffffffffffffffffffffffffffffffffffff161415612121576040517f08c379a000000000000000000000000000000000000000000000000000000000815260040180806020018281038252602681526020018061320e6026913960400191505060405180910390fd5b8073ffffffffffffffffffffffffffffffffffffffff16600760009054906101000a900473ffffffffffffffffffffffffffffffffffffffff1673ffffffffffffffffffffffffffffffffffffffff167f8be0079c531659141344cd1fd0a4f28419497f9722a3daafe3b4186f6b6457e060405160405180910390a380600760006101000a81548173ffffffffffffffffffffffffffffffffffffffff021916908373ffffffffffffffffffffffffffffffffffffffff16021790555050565b600033905090565b600073ffffffffffffffffffffffffffffffffffffffff168373ffffffffffffffffffffffffffffffffffffffff16141561226f576040517f08c379a00000000000000000000000000000000000000000000000000000000081526004018080602001828103825260248152602001806133636024913960400191505060405180910390fd5b600073ffffffffffffffffffffffffffffffffffffffff168273ffffffffffffffffffffffffffffffffffffffff1614156122f5576040517f08c379a00000000000000000000000000000000000000000000000000000000081526004018080602001828103825260228152602001806132346022913960400191505060405180910390fd5b80600160008573ffffffffffffffffffffffffffffffffffffffff1673ffffffffffffffffffffffffffffffffffffffff16815260200190815260200160002060008473ffffffffffffffffffffffffffffffffffffffff1673ffffffffffffffffffffffffffffffffffffffff168152602001908152602001600020819055508173ffffffffffffffffffffffffffffffffffffffff168373ffffffffffffffffffffffffffffffffffffffff167f8c5be1e5ebec7d5bd14f71427d1e84f3dd0314c0f7b2291e5b200ac8c7c3b925836040518082815260200191505060405180910390a3505050565b3073ffffffffffffffffffffffffffffffffffffffff168273ffffffffffffffffffffffffffffffffffffffff1614156127405760095481101561246f576040517f08c379a000000000000000000000000000000000000000000000000000000000815260040180806020018281038252602d8152602001806132f0602d913960400191505060405180910390fd5b6060600860009054906101000a900473ffffffffffffffffffffffffffffffffffffffff1673ffffffffffffffffffffffffffffffffffffffff166360b90acf856040518263ffffffff1660e01b8152600401808273ffffffffffffffffffffffffffffffffffffffff1673ffffffffffffffffffffffffffffffffffffffff16815260200191505060006040518083038186803b15801561251057600080fd5b505afa158015612524573d6000803e3d6000fd5b505050506040513d6000823e3d601f19601f82011682018060405250602081101561254e57600080fd5b810190808051604051939291908464010000000082111561256e57600080fd5b8382019150602082018581111561258457600080fd5b82518660018202830111640100000000821117156125a157600080fd5b8083526020830192505050908051906020019080838360005b838110156125d55780820151818401526020810190506125ba565b50505050905090810190601f1680156126025780820380516001836020036101000a031916815260200191505b506040525050509050600081511415612666576040517f08c379a00000000000000000000000000000000000000000000000000000000081526004018080602001828103825260248152602001806131ea6024913960400191505060405180910390fd5b7f5050e3f95833615c462f69b2eb9210cf8e7148cb88b542c0c05066a539560e86848284604051808473ffffffffffffffffffffffffffffffffffffffff1673ffffffffffffffffffffffffffffffffffffffff16815260200180602001838152602001828103825284818151815260200191508051906020019080838360005b838110156127025780820151818401526020810190506126e7565b50505050905090810190601f16801561272f5780820380516001836020036101000a031916815260200191505b5094505050505060405180910390a1505b505050565b6000612752848484612cf1565b6128138461275e6121e1565b61280e856040518060600160405280602881526020016132c860289139600160008b73ffffffffffffffffffffffffffffffffffffffff1673ffffffffffffffffffffffffffffffffffffffff16815260200190815260200160002060006127c46121e1565b73ffffffffffffffffffffffffffffffffffffffff1673ffffffffffffffffffffffffffffffffffffffff16815260200190815260200160002054612a6d9092919063ffffffff16565b6121e9565b600190509392505050565b60008082840190508381101561289c576040517f08c379a000000000000000000000000000000000000000000000000000000000815260040180806020018281038252601b8152602001807f536166654d6174683a206164646974696f6e206f766572666c6f77000000000081525060200191505060405180910390fd5b8091505092915050565b600073ffffffffffffffffffffffffffffffffffffffff168273ffffffffffffffffffffffffffffffffffffffff161415612949576040517f08c379a000000000000000000000000000000000000000000000000000000000815260040180806020018281038252601f8152602001807f45524332303a206d696e7420746f20746865207a65726f20616464726573730081525060200191505060405180910390fd5b61295560008383612fd0565b61296a8160025461281e90919063ffffffff16565b6002819055506129c1816000808573ffffffffffffffffffffffffffffffffffffffff1673ffffffffffffffffffffffffffffffffffffffff1681526020019081526020016000205461281e90919063ffffffff16565b6000808473ffffffffffffffffffffffffffffffffffffffff1673ffffffffffffffffffffffffffffffffffffffff168152602001908152602001600020819055508173ffffffffffffffffffffffffffffffffffffffff16600073ffffffffffffffffffffffffffffffffffffffff167fddf252ad1be2c89b69c2b068fc378daa952ba7f163c4a11628f55a4df523b3ef836040518082815260200191505060405180910390a35050565b6000838311158290612b1a576040517f08c379a00000000000000000000000000000000000000000000000000000000081526004018080602001828103825283818151815260200191508051906020019080838360005b83811015612adf578082015181840152602081019050612ac4565b50505050905090810190601f168015612b0c5780820380516001836020036101000a031916815260200191505b509250505060405180910390fd5b5060008385039050809150509392505050565b600073ffffffffffffffffffffffffffffffffffffffff168273ffffffffffffffffffffffffffffffffffffffff161415612bb3576040517f08c379a000000000000000000000000000000000000000000000000000000000815260040180806020018281038252602181526020018061331d6021913960400191505060405180910390fd5b612bbf82600083612fd0565b612c2a816040518060600160405280602281526020016131a0602291396000808673ffffffffffffffffffffffffffffffffffffffff1673ffffffffffffffffffffffffffffffffffffffff16815260200190815260200160002054612a6d9092919063ffffffff16565b6000808473ffffffffffffffffffffffffffffffffffffffff1673ffffffffffffffffffffffffffffffffffffffff16815260200190815260200160002081905550612c81816002546130a790919063ffffffff16565b600281905550600073ffffffffffffffffffffffffffffffffffffffff168273ffffffffffffffffffffffffffffffffffffffff167fddf252ad1be2c89b69c2b068fc378daa952ba7f163c4a11628f55a4df523b3ef836040518082815260200191505060405180910390a35050565b600073ffffffffffffffffffffffffffffffffffffffff168373ffffffffffffffffffffffffffffffffffffffff161415612d77576040517f08c379a000000000000000000000000000000000000000000000000000000000815260040180806020018281038252602581526020018061333e6025913960400191505060405180910390fd5b600073ffffffffffffffffffffffffffffffffffffffff168273ffffffffffffffffffffffffffffffffffffffff161415612dfd576040517f08c379a000000000000000000000000000000000000000000000000000000000815260040180806020018281038252602381526020018061317d6023913960400191505060405180910390fd5b612e08838383612fd0565b612e7381604051806060016040528060268152602001613256602691396000808773ffffffffffffffffffffffffffffffffffffffff1673ffffffffffffffffffffffffffffffffffffffff16815260200190815260200160002054612a6d9092919063ffffffff16565b6000808573ffffffffffffffffffffffffffffffffffffffff1673ffffffffffffffffffffffffffffffffffffffff16815260200190815260200160002081905550612f06816000808573ffffffffffffffffffffffffffffffffffffffff1673ffffffffffffffffffffffffffffffffffffffff1681526020019081526020016000205461281e90919063ffffffff16565b6000808473ffffffffffffffffffffffffffffffffffffffff1673ffffffffffffffffffffffffffffffffffffffff168152602001908152602001600020819055508173ffffffffffffffffffffffffffffffffffffffff168373ffffffffffffffffffffffffffffffffffffffff167fddf252ad1be2c89b69c2b068fc378daa952ba7f163c4a11628f55a4df523b3ef836040518082815260200191505060405180910390a3505050565b6000612fc6612fbf6121e1565b8484612cf1565b6001905092915050565b612fdb8383836130f1565b600073ffffffffffffffffffffffffffffffffffffffff168373ffffffffffffffffffffffffffffffffffffffff1614156130a25760065461302d8261301f610d84565b61281e90919063ffffffff16565b11156130a1576040517f08c379a00000000000000000000000000000000000000000000000000000000081526004018080602001828103825260198152602001807f45524332304361707065643a206361702065786365656465640000000000000081525060200191505060405180910390fd5b5b505050565b60006130e983836040518060400160405280601e81526020017f536166654d6174683a207375627472616374696f6e206f766572666c6f770000815250612a6d565b905092915050565b505050565b6000808314156131095760009050613176565b600082840290508284828161311a57fe5b0414613171576040517f08c379a00000000000000000000000000000000000000000000000000000000081526004018080602001828103825260218152602001806132a76021913960400191505060405180910390fd5b809150505b9291505056fe45524332303a207472616e7366657220746f20746865207a65726f206164647265737345524332303a206275726e20616d6f756e7420657863656564732062616c616e63654348582061646472657373206973206e6f74206d617070656420746f20455448206164647265737341646472657373206973206e6f74206d617070656420746f2043485820616464726573734f776e61626c653a206e6577206f776e657220697320746865207a65726f206164647265737345524332303a20617070726f766520746f20746865207a65726f206164647265737345524332303a207472616e7366657220616d6f756e7420657863656564732062616c616e6365546f74616c20616d6f756e74206578636565647320756e77726170656420746f6b656e2062616c616e6365536166654d6174683a206d756c7469706c69636174696f6e206f766572666c6f7745524332303a207472616e7366657220616d6f756e74206578636565647320616c6c6f77616e6365416d6f756e74206e6565647320746f2062652067726561746572207468616e206d696e57726170416d6f756e7445524332303a206275726e2066726f6d20746865207a65726f206164647265737345524332303a207472616e736665722066726f6d20746865207a65726f206164647265737345524332303a20617070726f76652066726f6d20746865207a65726f20616464726573734275726e20616d6f756e74206578636565647320756e77726170656420746f6b656e2062616c616e636545524332303a2064656372656173656420616c6c6f77616e63652062656c6f77207a65726fa26469706673582212200dcedfe76f1de9ff961be82b472980258b3ab1297a68e38ff63e85cfd34e81ee64736f6c63430006000033536166654d6174683a206d756c7469706c69636174696f6e206f766572666c6f77",
  "source": "pragma solidity 0.6.0;\r\n\r\nimport '@openzeppelin/contracts/token/ERC20/ERC20.sol';\r\nimport '@openzeppelin/contracts/token/ERC20/ERC20Capped.sol';\r\nimport '@openzeppelin/contracts/access/Ownable.sol';\r\nimport '@openzeppelin/contracts/math/SafeMath.sol';\r\nimport './wCHXMapping.sol';\r\n\r\ncontract wCHXToken is ERC20Capped, Ownable {\r\n    using SafeMath for uint;\r\n    event UnwrapChx(address ethAddress, string chxAddress, uint amount);\r\n    event WrapChx(address ethAddress, string chxAddress, uint amount);\r\n\r\n    wCHXMapping public addressMapping;\r\n    uint private _minWrapAmount;\r\n    mapping (address => uint) private _pendingUnwrapBalances;\r\n\r\n    constructor(address _mappingContractAddress)\r\n        ERC20(\"Wrapped CHX\", \"wCHX\")\r\n        ERC20Capped(uint(1689565220930844))\r\n        public\r\n    {\r\n        addressMapping = wCHXMapping(_mappingContractAddress);\r\n        _setupDecimals(7);\r\n        _minWrapAmount = uint(1000).mul(1e7);\r\n    }\r\n\r\n    function minWrapAmount() \r\n        external \r\n        view \r\n        returns (uint) \r\n    {\r\n        return _minWrapAmount;\r\n    }\r\n\r\n    function pendingUnwrapBalance(address _ethAddress) \r\n        external \r\n        view \r\n        returns (uint) \r\n    {\r\n        return _pendingUnwrapBalances[_ethAddress];\r\n    }\r\n\r\n    ////////////////////////////////////////////////////////////////////////////////////////////////////\r\n    // Transfers\r\n    ////////////////////////////////////////////////////////////////////////////////////////////////////\r\n\r\n    function transfer(address _recipient, uint _amount)\r\n        public\r\n        override\r\n        returns (bool)\r\n    {\r\n        validateAndLogUnwrap(_msgSender(), _recipient, _amount);\r\n\r\n        bool transferResult = super.transfer(_recipient, _amount);\r\n\r\n        if (transferResult) \r\n        {\r\n            _pendingUnwrapBalances[_msgSender()] = _pendingUnwrapBalances[_msgSender()].add(_amount);\r\n        }\r\n\r\n        return transferResult;\r\n    }\r\n\r\n    function transferFrom(address _sender, address _recipient, uint256 _amount)\r\n        public\r\n        override\r\n        returns (bool)\r\n    {\r\n        validateAndLogUnwrap(_sender, _recipient, _amount);\r\n\r\n        bool transferResult = super.transferFrom(_sender, _recipient, _amount);\r\n\r\n        if (transferResult) \r\n        {\r\n            _pendingUnwrapBalances[_sender] = _pendingUnwrapBalances[_sender].add(_amount);\r\n        }\r\n\r\n        return transferResult;\r\n    }\r\n\r\n    function validateAndLogUnwrap(address _sender, address _recipient, uint256 _amount) \r\n        private\r\n    {\r\n        if (_recipient == address(this)) {\r\n            require(_amount >= _minWrapAmount, \"Amount needs to be greater than minWrapAmount\");\r\n            string memory chxAddress = addressMapping.chxAddress(_sender);\r\n            require(bytes(chxAddress).length != 0, \"Address is not mapped to CHX address\");\r\n            emit UnwrapChx(_sender, chxAddress, _amount);\r\n        }\r\n    }\r\n\r\n    ////////////////////////////////////////////////////////////////////////////////////////////////////\r\n    // Wrapping logic\r\n    ////////////////////////////////////////////////////////////////////////////////////////////////////\r\n\r\n    function burnUnwrapedTokens(string memory _chxAddress, uint _amount)\r\n        public\r\n        onlyOwner\r\n    {\r\n        address ethAddress = addressMapping.ethAddress(_chxAddress);\r\n        require(ethAddress != address(0), \"CHX address is not mapped to ETH address\");\r\n\r\n        _pendingUnwrapBalances[ethAddress] = _pendingUnwrapBalances[ethAddress].sub(_amount, \"Burn amount exceeds unwraped token balance\");\r\n        _burn(address(this), _amount);\r\n    }\r\n\r\n    function revertUnwrapedTokens(string memory _chxAddress, uint _revertAmount, uint _feeAmount)\r\n        public\r\n        onlyOwner\r\n    {\r\n        address ethAddress = addressMapping.ethAddress(_chxAddress);\r\n        require(ethAddress != address(0), \"CHX address is not mapped to ETH address\");\r\n\r\n        uint totalAmount = _revertAmount.add(_feeAmount);\r\n        _pendingUnwrapBalances[ethAddress] = _pendingUnwrapBalances[ethAddress].sub(totalAmount, \"Total amount exceeds unwraped token balance\");\r\n        _burn(address(this), _feeAmount);\r\n        _transfer(address(this), ethAddress, _revertAmount);\r\n    }\r\n\r\n    function wrap(string memory _chxAddress, uint _amount)\r\n        public\r\n        onlyOwner\r\n    {\r\n        address ethAddress = addressMapping.ethAddress(_chxAddress);\r\n        require(ethAddress != address(0), \"CHX address is not mapped to ETH address\");\r\n        emit WrapChx(ethAddress, _chxAddress, _amount);\r\n\r\n        _mint(ethAddress, _amount);\r\n    }\r\n\r\n    function setMinWrapAmount(uint _amount)\r\n        public\r\n        onlyOwner\r\n    {\r\n        _minWrapAmount = _amount;\r\n    }\r\n\r\n    ////////////////////////////////////////////////////////////////////////////////////////////////////\r\n    // Miscellaneous\r\n    ////////////////////////////////////////////////////////////////////////////////////////////////////\r\n\r\n    // Enable recovery of ether sent by mistake to this contract's address.\r\n    function drainStrayEther(uint _amount)\r\n        external\r\n        onlyOwner\r\n        returns (bool)\r\n    {\r\n        payable(owner()).transfer(_amount);\r\n        return true;\r\n    }\r\n\r\n    // Enable recovery of any ERC20 compatible token sent by mistake to this contract's address.\r\n    function drainStrayTokens(IERC20 _token, uint _amount)\r\n        external\r\n        onlyOwner\r\n        returns (bool)\r\n    {\r\n        require(address(_token) != address(this), \"wCHXToken cannot be drained\");\r\n        return _token.transfer(owner(), _amount);\r\n    }\r\n}\r\n",
  "sourcePath": "C:/Users/User/Source/Repos/IBCSmartContracts/src/contracts/wCHXToken.sol",
  "compiler": {
    "name": "solc",
    "version": "0.6.0+commit.26b70077.Emscripten.clang"
  },
  "schemaVersion": "3.3.3",
  "updatedAt": "2021-02-16T13:13:51.388Z",
  "devdoc": {
    "methods": {
      "allowance(address,address)": {
        "details": "See {IERC20-allowance}."
      },
      "approve(address,uint256)": {
        "details": "See {IERC20-approve}.     * Requirements:     * - `spender` cannot be the zero address."
      },
      "balanceOf(address)": {
        "details": "See {IERC20-balanceOf}."
      },
      "cap()": {
        "details": "Returns the cap on the token's total supply."
      },
      "decimals()": {
        "details": "Returns the number of decimals used to get its user representation. For example, if `decimals` equals `2`, a balance of `505` tokens should be displayed to a user as `5,05` (`505 / 10 ** 2`).     * Tokens usually opt for a value of 18, imitating the relationship between Ether and Wei. This is the value {ERC20} uses, unless {_setupDecimals} is called.     * NOTE: This information is only used for _display_ purposes: it in no way affects any of the arithmetic of the contract, including {IERC20-balanceOf} and {IERC20-transfer}."
      },
      "decreaseAllowance(address,uint256)": {
        "details": "Atomically decreases the allowance granted to `spender` by the caller.     * This is an alternative to {approve} that can be used as a mitigation for problems described in {IERC20-approve}.     * Emits an {Approval} event indicating the updated allowance.     * Requirements:     * - `spender` cannot be the zero address. - `spender` must have allowance for the caller of at least `subtractedValue`."
      },
      "increaseAllowance(address,uint256)": {
        "details": "Atomically increases the allowance granted to `spender` by the caller.     * This is an alternative to {approve} that can be used as a mitigation for problems described in {IERC20-approve}.     * Emits an {Approval} event indicating the updated allowance.     * Requirements:     * - `spender` cannot be the zero address."
      },
      "name()": {
        "details": "Returns the name of the token."
      },
      "owner()": {
        "details": "Returns the address of the current owner."
      },
      "renounceOwnership()": {
        "details": "Leaves the contract without owner. It will not be possible to call `onlyOwner` functions anymore. Can only be called by the current owner.     * NOTE: Renouncing ownership will leave the contract without an owner, thereby removing any functionality that is only available to the owner."
      },
      "symbol()": {
        "details": "Returns the symbol of the token, usually a shorter version of the name."
      },
      "totalSupply()": {
        "details": "See {IERC20-totalSupply}."
      },
      "transferOwnership(address)": {
        "details": "Transfers ownership of the contract to a new account (`newOwner`). Can only be called by the current owner."
      }
    }
  },
  "userdoc": {
    "methods": {
      "burnUnwrapedTokens(string,uint256)": {
        "notice": "/////////////////////////////////////////////////////////////////////////////////////////////////"
      },
      "drainStrayEther(uint256)": {
        "notice": "/////////////////////////////////////////////////////////////////////////////////////////////////"
      },
      "transfer(address,uint256)": {
        "notice": "/////////////////////////////////////////////////////////////////////////////////////////////////"
      }
    }
  }
}