{
  "contractName": "wCHXToken",
  "abi": [
    {
      "inputs": [
        {
          "internalType": "address",
          "name": "_mappingContractAddress",
          "type": "address"
        }
      ],
      "stateMutability": "nonpayable",
      "type": "constructor"
    },
    {
      "anonymous": false,
      "inputs": [
        {
          "indexed": true,
          "internalType": "address",
          "name": "owner",
          "type": "address"
        },
        {
          "indexed": true,
          "internalType": "address",
          "name": "spender",
          "type": "address"
        },
        {
          "indexed": false,
          "internalType": "uint256",
          "name": "value",
          "type": "uint256"
        }
      ],
      "name": "Approval",
      "type": "event"
    },
    {
      "anonymous": false,
      "inputs": [
        {
          "indexed": true,
          "internalType": "address",
          "name": "previousOwner",
          "type": "address"
        },
        {
          "indexed": true,
          "internalType": "address",
          "name": "newOwner",
          "type": "address"
        }
      ],
      "name": "OwnershipTransferred",
      "type": "event"
    },
    {
      "anonymous": false,
      "inputs": [
        {
          "indexed": true,
          "internalType": "address",
          "name": "from",
          "type": "address"
        },
        {
          "indexed": true,
          "internalType": "address",
          "name": "to",
          "type": "address"
        },
        {
          "indexed": false,
          "internalType": "uint256",
          "name": "value",
          "type": "uint256"
        }
      ],
      "name": "Transfer",
      "type": "event"
    },
    {
      "anonymous": false,
      "inputs": [
        {
          "indexed": false,
          "internalType": "address",
          "name": "ethAddress",
          "type": "address"
        },
        {
          "indexed": false,
          "internalType": "string",
          "name": "chxAddress",
          "type": "string"
        },
        {
          "indexed": false,
          "internalType": "uint256",
          "name": "amount",
          "type": "uint256"
        }
      ],
      "name": "UnwrapChx",
      "type": "event"
    },
    {
      "inputs": [],
      "name": "addressMapping",
      "outputs": [
        {
          "internalType": "contract wCHXMapping",
          "name": "",
          "type": "address"
        }
      ],
      "stateMutability": "view",
      "type": "function"
    },
    {
      "inputs": [
        {
          "internalType": "address",
          "name": "owner",
          "type": "address"
        },
        {
          "internalType": "address",
          "name": "spender",
          "type": "address"
        }
      ],
      "name": "allowance",
      "outputs": [
        {
          "internalType": "uint256",
          "name": "",
          "type": "uint256"
        }
      ],
      "stateMutability": "view",
      "type": "function"
    },
    {
      "inputs": [
        {
          "internalType": "address",
          "name": "spender",
          "type": "address"
        },
        {
          "internalType": "uint256",
          "name": "amount",
          "type": "uint256"
        }
      ],
      "name": "approve",
      "outputs": [
        {
          "internalType": "bool",
          "name": "",
          "type": "bool"
        }
      ],
      "stateMutability": "nonpayable",
      "type": "function"
    },
    {
      "inputs": [
        {
          "internalType": "address",
          "name": "account",
          "type": "address"
        }
      ],
      "name": "balanceOf",
      "outputs": [
        {
          "internalType": "uint256",
          "name": "",
          "type": "uint256"
        }
      ],
      "stateMutability": "view",
      "type": "function"
    },
    {
      "inputs": [],
      "name": "cap",
      "outputs": [
        {
          "internalType": "uint256",
          "name": "",
          "type": "uint256"
        }
      ],
      "stateMutability": "view",
      "type": "function"
    },
    {
      "inputs": [],
      "name": "decimals",
      "outputs": [
        {
          "internalType": "uint8",
          "name": "",
          "type": "uint8"
        }
      ],
      "stateMutability": "view",
      "type": "function"
    },
    {
      "inputs": [
        {
          "internalType": "address",
          "name": "spender",
          "type": "address"
        },
        {
          "internalType": "uint256",
          "name": "subtractedValue",
          "type": "uint256"
        }
      ],
      "name": "decreaseAllowance",
      "outputs": [
        {
          "internalType": "bool",
          "name": "",
          "type": "bool"
        }
      ],
      "stateMutability": "nonpayable",
      "type": "function"
    },
    {
      "inputs": [
        {
          "internalType": "address",
          "name": "spender",
          "type": "address"
        },
        {
          "internalType": "uint256",
          "name": "addedValue",
          "type": "uint256"
        }
      ],
      "name": "increaseAllowance",
      "outputs": [
        {
          "internalType": "bool",
          "name": "",
          "type": "bool"
        }
      ],
      "stateMutability": "nonpayable",
      "type": "function"
    },
    {
      "inputs": [],
      "name": "name",
      "outputs": [
        {
          "internalType": "string",
          "name": "",
          "type": "string"
        }
      ],
      "stateMutability": "view",
      "type": "function"
    },
    {
      "inputs": [],
      "name": "owner",
      "outputs": [
        {
          "internalType": "address",
          "name": "",
          "type": "address"
        }
      ],
      "stateMutability": "view",
      "type": "function"
    },
    {
      "inputs": [],
      "name": "renounceOwnership",
      "outputs": [],
      "stateMutability": "nonpayable",
      "type": "function"
    },
    {
      "inputs": [],
      "name": "symbol",
      "outputs": [
        {
          "internalType": "string",
          "name": "",
          "type": "string"
        }
      ],
      "stateMutability": "view",
      "type": "function"
    },
    {
      "inputs": [],
      "name": "totalSupply",
      "outputs": [
        {
          "internalType": "uint256",
          "name": "",
          "type": "uint256"
        }
      ],
      "stateMutability": "view",
      "type": "function"
    },
    {
      "inputs": [
        {
          "internalType": "address",
          "name": "newOwner",
          "type": "address"
        }
      ],
      "name": "transferOwnership",
      "outputs": [],
      "stateMutability": "nonpayable",
      "type": "function"
    },
    {
      "inputs": [],
      "name": "minWrapAmount",
      "outputs": [
        {
          "internalType": "uint256",
          "name": "",
          "type": "uint256"
        }
      ],
      "stateMutability": "view",
      "type": "function"
    },
    {
      "inputs": [
        {
          "internalType": "address",
          "name": "_recipient",
          "type": "address"
        },
        {
          "internalType": "uint256",
          "name": "_amount",
          "type": "uint256"
        }
      ],
      "name": "transfer",
      "outputs": [
        {
          "internalType": "bool",
          "name": "",
          "type": "bool"
        }
      ],
      "stateMutability": "nonpayable",
      "type": "function"
    },
    {
      "inputs": [
        {
          "internalType": "address",
          "name": "_sender",
          "type": "address"
        },
        {
          "internalType": "address",
          "name": "_recipient",
          "type": "address"
        },
        {
          "internalType": "uint256",
          "name": "_amount",
          "type": "uint256"
        }
      ],
      "name": "transferFrom",
      "outputs": [
        {
          "internalType": "bool",
          "name": "",
          "type": "bool"
        }
      ],
      "stateMutability": "nonpayable",
      "type": "function"
    },
    {
      "inputs": [
        {
          "internalType": "uint256",
          "name": "_amount",
          "type": "uint256"
        }
      ],
      "name": "burn",
      "outputs": [],
      "stateMutability": "nonpayable",
      "type": "function"
    },
    {
      "inputs": [
        {
          "internalType": "address",
          "name": "_recipient",
          "type": "address"
        },
        {
          "internalType": "uint256",
          "name": "_amount",
          "type": "uint256"
        }
      ],
      "name": "wrap",
      "outputs": [],
      "stateMutability": "nonpayable",
      "type": "function"
    },
    {
      "inputs": [
        {
          "internalType": "uint256",
          "name": "_amount",
          "type": "uint256"
        }
      ],
      "name": "setMinWrapAmount",
      "outputs": [],
      "stateMutability": "nonpayable",
      "type": "function"
    },
    {
      "inputs": [
        {
          "internalType": "uint256",
          "name": "_amount",
          "type": "uint256"
        }
      ],
      "name": "drainStrayEther",
      "outputs": [
        {
          "internalType": "bool",
          "name": "",
          "type": "bool"
        }
      ],
      "stateMutability": "nonpayable",
      "type": "function"
    },
    {
      "inputs": [
        {
          "internalType": "contract IERC20",
          "name": "_token",
          "type": "address"
        },
        {
          "internalType": "uint256",
          "name": "_amount",
          "type": "uint256"
        }
      ],
      "name": "drainStrayTokens",
      "outputs": [
        {
          "internalType": "bool",
          "name": "",
          "type": "bool"
        }
      ],
      "stateMutability": "nonpayable",
      "type": "function"
    }
  ],
  "bytecode": "0x60806040523480156200001157600080fd5b506040516200301a3803806200301a833981810160405260208110156200003757600080fd5b8101908080519060200190929190505050660600a68ed1851c6040518060400160405280600b81526020017f57726170706564204348580000000000000000000000000000000000000000008152506040518060400160405280600481526020017f77434858000000000000000000000000000000000000000000000000000000008152508160039080519060200190620000d49291906200036c565b508060049080519060200190620000ed9291906200036c565b506012600560006101000a81548160ff021916908360ff16021790555050506000811162000183576040517f08c379a00000000000000000000000000000000000000000000000000000000081526004018080602001828103825260158152602001807f45524332304361707065643a206361702069732030000000000000000000000081525060200191505060405180910390fd5b806006819055505060006200019d620002bb60201b60201c565b905080600760006101000a81548173ffffffffffffffffffffffffffffffffffffffff021916908373ffffffffffffffffffffffffffffffffffffffff1602179055508073ffffffffffffffffffffffffffffffffffffffff16600073ffffffffffffffffffffffffffffffffffffffff167f8be0079c531659141344cd1fd0a4f28419497f9722a3daafe3b4186f6b6457e060405160405180910390a35080600860006101000a81548173ffffffffffffffffffffffffffffffffffffffff021916908373ffffffffffffffffffffffffffffffffffffffff1602179055506200028f6007620002c360201b60201c565b620002ae629896806103e8620002e160201b6200295a1790919060201c565b600981905550506200041b565b600033905090565b80600560006101000a81548160ff021916908360ff16021790555050565b600080831415620002f6576000905062000366565b60008284029050828482816200030857fe5b041462000361576040517f08c379a000000000000000000000000000000000000000000000000000000000815260040180806020018281038252602181526020018062002ff96021913960400191505060405180910390fd5b809150505b92915050565b828054600181600116156101000203166002900490600052602060002090601f016020900481019282601f10620003af57805160ff1916838001178555620003e0565b82800160010185558215620003e0579182015b82811115620003df578251825591602001919060010190620003c2565b5b509050620003ef9190620003f3565b5090565b6200041891905b8082111562000414576000816000905550600101620003fa565b5090565b90565b612bce806200042b6000396000f3fe608060405234801561001057600080fd5b50600436106101425760003560e01c8063715018a6116100b8578063a9059cbb1161007c578063a9059cbb14610619578063bf376c7a1461067f578063c57d4b93146106cd578063dd62ed3e14610717578063e991fb271461078f578063f2fde38b146107ad57610142565b8063715018a6146104ae5780638da5cb5b146104b857806395d89b41146105025780639cc65a5514610585578063a457c2d7146105b357610142565b8063313ce5671161010a578063313ce5671461033a578063355274ea1461035e578063395093511461037c57806342966c68146103e257806342bf41ae1461041057806370a082311461045657610142565b8063050b8c661461014757806306fdde03146101ad578063095ea7b31461023057806318160ddd1461029657806323b872dd146102b4575b600080fd5b6101936004803603604081101561015d57600080fd5b81019080803573ffffffffffffffffffffffffffffffffffffffff169060200190929190803590602001909291905050506107f1565b604051808215151515815260200191505060405180910390f35b6101b561098e565b6040518080602001828103825283818151815260200191508051906020019080838360005b838110156101f55780820151818401526020810190506101da565b50505050905090810190601f1680156102225780820380516001836020036101000a031916815260200191505b509250505060405180910390f35b61027c6004803603604081101561024657600080fd5b81019080803573ffffffffffffffffffffffffffffffffffffffff16906020019092919080359060200190929190505050610a30565b604051808215151515815260200191505060405180910390f35b61029e610a4e565b6040518082815260200191505060405180910390f35b610320600480360360608110156102ca57600080fd5b81019080803573ffffffffffffffffffffffffffffffffffffffff169060200190929190803573ffffffffffffffffffffffffffffffffffffffff16906020019092919080359060200190929190505050610a58565b604051808215151515815260200191505060405180910390f35b610342610dc2565b604051808260ff1660ff16815260200191505060405180910390f35b610366610dd9565b6040518082815260200191505060405180910390f35b6103c86004803603604081101561039257600080fd5b81019080803573ffffffffffffffffffffffffffffffffffffffff16906020019092919080359060200190929190505050610de3565b604051808215151515815260200191505060405180910390f35b61040e600480360360208110156103f857600080fd5b8101908080359060200190929190505050610e96565b005b61043c6004803603602081101561042657600080fd5b8101908080359060200190929190505050610f74565b604051808215151515815260200191505060405180910390f35b6104986004803603602081101561046c57600080fd5b81019080803573ffffffffffffffffffffffffffffffffffffffff169060200190929190505050611097565b6040518082815260200191505060405180910390f35b6104b66110df565b005b6104c061126a565b604051808273ffffffffffffffffffffffffffffffffffffffff1673ffffffffffffffffffffffffffffffffffffffff16815260200191505060405180910390f35b61050a611294565b6040518080602001828103825283818151815260200191508051906020019080838360005b8381101561054a57808201518184015260208101905061052f565b50505050905090810190601f1680156105775780820380516001836020036101000a031916815260200191505b509250505060405180910390f35b6105b16004803603602081101561059b57600080fd5b8101908080359060200190929190505050611336565b005b6105ff600480360360408110156105c957600080fd5b81019080803573ffffffffffffffffffffffffffffffffffffffff1690602001909291908035906020019092919050505061140a565b604051808215151515815260200191505060405180910390f35b6106656004803603604081101561062f57600080fd5b81019080803573ffffffffffffffffffffffffffffffffffffffff169060200190929190803590602001909291905050506114d7565b604051808215151515815260200191505060405180910390f35b6106cb6004803603604081101561069557600080fd5b81019080803573ffffffffffffffffffffffffffffffffffffffff1690602001909291908035906020019092919050505061184d565b005b6106d5611ae3565b604051808273ffffffffffffffffffffffffffffffffffffffff1673ffffffffffffffffffffffffffffffffffffffff16815260200191505060405180910390f35b6107796004803603604081101561072d57600080fd5b81019080803573ffffffffffffffffffffffffffffffffffffffff169060200190929190803573ffffffffffffffffffffffffffffffffffffffff169060200190929190505050611b09565b6040518082815260200191505060405180910390f35b610797611b90565b6040518082815260200191505060405180910390f35b6107ef600480360360208110156107c357600080fd5b81019080803573ffffffffffffffffffffffffffffffffffffffff169060200190929190505050611b9a565b005b60006107fb611daa565b73ffffffffffffffffffffffffffffffffffffffff16600760009054906101000a900473ffffffffffffffffffffffffffffffffffffffff1673ffffffffffffffffffffffffffffffffffffffff16146108bd576040517f08c379a00000000000000000000000000000000000000000000000000000000081526004018080602001828103825260208152602001807f4f776e61626c653a2063616c6c6572206973206e6f7420746865206f776e657281525060200191505060405180910390fd5b8273ffffffffffffffffffffffffffffffffffffffff1663a9059cbb6108e161126a565b846040518363ffffffff1660e01b8152600401808373ffffffffffffffffffffffffffffffffffffffff1673ffffffffffffffffffffffffffffffffffffffff16815260200182815260200192505050602060405180830381600087803b15801561094b57600080fd5b505af115801561095f573d6000803e3d6000fd5b505050506040513d602081101561097557600080fd5b8101908080519060200190929190505050905092915050565b606060038054600181600116156101000203166002900480601f016020809104026020016040519081016040528092919081815260200182805460018160011615610100020316600290048015610a265780601f106109fb57610100808354040283529160200191610a26565b820191906000526020600020905b815481529060010190602001808311610a0957829003601f168201915b5050505050905090565b6000610a44610a3d611daa565b8484611db2565b6001905092915050565b6000600254905090565b60003073ffffffffffffffffffffffffffffffffffffffff168373ffffffffffffffffffffffffffffffffffffffff161415610a9357600080fd5b610a9b61126a565b73ffffffffffffffffffffffffffffffffffffffff168373ffffffffffffffffffffffffffffffffffffffff161415610dae57600954821015610b29576040517f08c379a000000000000000000000000000000000000000000000000000000000815260040180806020018281038252602d815260200180612add602d913960400191505060405180910390fd5b6060600860009054906101000a900473ffffffffffffffffffffffffffffffffffffffff1673ffffffffffffffffffffffffffffffffffffffff166360b90acf866040518263ffffffff1660e01b8152600401808273ffffffffffffffffffffffffffffffffffffffff1673ffffffffffffffffffffffffffffffffffffffff16815260200191505060006040518083038186803b158015610bca57600080fd5b505afa158015610bde573d6000803e3d6000fd5b505050506040513d6000823e3d601f19601f820116820180604052506020811015610c0857600080fd5b8101908080516040519392919084640100000000821115610c2857600080fd5b83820191506020820185811115610c3e57600080fd5b8251866001820283011164010000000082111715610c5b57600080fd5b8083526020830192505050908051906020019080838360005b83811015610c8f578082015181840152602081019050610c74565b50505050905090810190601f168015610cbc5780820380516001836020036101000a031916815260200191505b506040525050509050600081511415610cd457600080fd5b7f5050e3f95833615c462f69b2eb9210cf8e7148cb88b542c0c05066a539560e86858285604051808473ffffffffffffffffffffffffffffffffffffffff1673ffffffffffffffffffffffffffffffffffffffff16815260200180602001838152602001828103825284818151815260200191508051906020019080838360005b83811015610d70578082015181840152602081019050610d55565b50505050905090810190601f168015610d9d5780820380516001836020036101000a031916815260200191505b5094505050505060405180910390a1505b610db9848484611fa9565b90509392505050565b6000600560009054906101000a900460ff16905090565b6000600654905090565b6000610e8c610df0611daa565b84610e878560016000610e01611daa565b73ffffffffffffffffffffffffffffffffffffffff1673ffffffffffffffffffffffffffffffffffffffff16815260200190815260200160002060008973ffffffffffffffffffffffffffffffffffffffff1673ffffffffffffffffffffffffffffffffffffffff1681526020019081526020016000205461208290919063ffffffff16565b611db2565b6001905092915050565b610e9e611daa565b73ffffffffffffffffffffffffffffffffffffffff16600760009054906101000a900473ffffffffffffffffffffffffffffffffffffffff1673ffffffffffffffffffffffffffffffffffffffff1614610f60576040517f08c379a00000000000000000000000000000000000000000000000000000000081526004018080602001828103825260208152602001807f4f776e61626c653a2063616c6c6572206973206e6f7420746865206f776e657281525060200191505060405180910390fd5b610f71610f6b61126a565b8261210a565b50565b6000610f7e611daa565b73ffffffffffffffffffffffffffffffffffffffff16600760009054906101000a900473ffffffffffffffffffffffffffffffffffffffff1673ffffffffffffffffffffffffffffffffffffffff1614611040576040517f08c379a00000000000000000000000000000000000000000000000000000000081526004018080602001828103825260208152602001807f4f776e61626c653a2063616c6c6572206973206e6f7420746865206f776e657281525060200191505060405180910390fd5b61104861126a565b73ffffffffffffffffffffffffffffffffffffffff166108fc839081150290604051600060405180830381858888f1935050505015801561108d573d6000803e3d6000fd5b5060019050919050565b60008060008373ffffffffffffffffffffffffffffffffffffffff1673ffffffffffffffffffffffffffffffffffffffff168152602001908152602001600020549050919050565b6110e7611daa565b73ffffffffffffffffffffffffffffffffffffffff16600760009054906101000a900473ffffffffffffffffffffffffffffffffffffffff1673ffffffffffffffffffffffffffffffffffffffff16146111a9576040517f08c379a00000000000000000000000000000000000000000000000000000000081526004018080602001828103825260208152602001807f4f776e61626c653a2063616c6c6572206973206e6f7420746865206f776e657281525060200191505060405180910390fd5b600073ffffffffffffffffffffffffffffffffffffffff16600760009054906101000a900473ffffffffffffffffffffffffffffffffffffffff1673ffffffffffffffffffffffffffffffffffffffff167f8be0079c531659141344cd1fd0a4f28419497f9722a3daafe3b4186f6b6457e060405160405180910390a36000600760006101000a81548173ffffffffffffffffffffffffffffffffffffffff021916908373ffffffffffffffffffffffffffffffffffffffff160217905550565b6000600760009054906101000a900473ffffffffffffffffffffffffffffffffffffffff16905090565b606060048054600181600116156101000203166002900480601f01602080910402602001604051908101604052809291908181526020018280546001816001161561010002031660029004801561132c5780601f106113015761010080835404028352916020019161132c565b820191906000526020600020905b81548152906001019060200180831161130f57829003601f168201915b5050505050905090565b61133e611daa565b73ffffffffffffffffffffffffffffffffffffffff16600760009054906101000a900473ffffffffffffffffffffffffffffffffffffffff1673ffffffffffffffffffffffffffffffffffffffff1614611400576040517f08c379a00000000000000000000000000000000000000000000000000000000081526004018080602001828103825260208152602001807f4f776e61626c653a2063616c6c6572206973206e6f7420746865206f776e657281525060200191505060405180910390fd5b8060098190555050565b60006114cd611417611daa565b846114c885604051806060016040528060258152602001612b746025913960016000611441611daa565b73ffffffffffffffffffffffffffffffffffffffff1673ffffffffffffffffffffffffffffffffffffffff16815260200190815260200160002060008a73ffffffffffffffffffffffffffffffffffffffff1673ffffffffffffffffffffffffffffffffffffffff168152602001908152602001600020546122ce9092919063ffffffff16565b611db2565b6001905092915050565b60003073ffffffffffffffffffffffffffffffffffffffff168373ffffffffffffffffffffffffffffffffffffffff16141561151257600080fd5b61151a61126a565b73ffffffffffffffffffffffffffffffffffffffff168373ffffffffffffffffffffffffffffffffffffffff16141561183b576009548210156115a8576040517f08c379a000000000000000000000000000000000000000000000000000000000815260040180806020018281038252602d815260200180612add602d913960400191505060405180910390fd5b6060600860009054906101000a900473ffffffffffffffffffffffffffffffffffffffff1673ffffffffffffffffffffffffffffffffffffffff166360b90acf6115f0611daa565b6040518263ffffffff1660e01b8152600401808273ffffffffffffffffffffffffffffffffffffffff1673ffffffffffffffffffffffffffffffffffffffff16815260200191505060006040518083038186803b15801561165057600080fd5b505afa158015611664573d6000803e3d6000fd5b505050506040513d6000823e3d601f19601f82011682018060405250602081101561168e57600080fd5b81019080805160405193929190846401000000008211156116ae57600080fd5b838201915060208201858111156116c457600080fd5b82518660018202830111640100000000821117156116e157600080fd5b8083526020830192505050908051906020019080838360005b838110156117155780820151818401526020810190506116fa565b50505050905090810190601f1680156117425780820380516001836020036101000a031916815260200191505b50604052505050905060008151141561175a57600080fd5b7f5050e3f95833615c462f69b2eb9210cf8e7148cb88b542c0c05066a539560e86611783611daa565b8285604051808473ffffffffffffffffffffffffffffffffffffffff1673ffffffffffffffffffffffffffffffffffffffff16815260200180602001838152602001828103825284818151815260200191508051906020019080838360005b838110156117fd5780820151818401526020810190506117e2565b50505050905090810190601f16801561182a5780820380516001836020036101000a031916815260200191505b5094505050505060405180910390a1505b611845838361238e565b905092915050565b611855611daa565b73ffffffffffffffffffffffffffffffffffffffff16600760009054906101000a900473ffffffffffffffffffffffffffffffffffffffff1673ffffffffffffffffffffffffffffffffffffffff1614611917576040517f08c379a00000000000000000000000000000000000000000000000000000000081526004018080602001828103825260208152602001807f4f776e61626c653a2063616c6c6572206973206e6f7420746865206f776e657281525060200191505060405180910390fd5b6060600860009054906101000a900473ffffffffffffffffffffffffffffffffffffffff1673ffffffffffffffffffffffffffffffffffffffff166360b90acf846040518263ffffffff1660e01b8152600401808273ffffffffffffffffffffffffffffffffffffffff1673ffffffffffffffffffffffffffffffffffffffff16815260200191505060006040518083038186803b1580156119b857600080fd5b505afa1580156119cc573d6000803e3d6000fd5b505050506040513d6000823e3d601f19601f8201168201806040525060208110156119f657600080fd5b8101908080516040519392919084640100000000821115611a1657600080fd5b83820191506020820185811115611a2c57600080fd5b8251866001820283011164010000000082111715611a4957600080fd5b8083526020830192505050908051906020019080838360005b83811015611a7d578082015181840152602081019050611a62565b50505050905090810190601f168015611aaa5780820380516001836020036101000a031916815260200191505b506040525050509050600081511415611ac257600080fd5b611ad3611acd61126a565b836123ac565b611add83836114d7565b50505050565b600860009054906101000a900473ffffffffffffffffffffffffffffffffffffffff1681565b6000600160008473ffffffffffffffffffffffffffffffffffffffff1673ffffffffffffffffffffffffffffffffffffffff16815260200190815260200160002060008373ffffffffffffffffffffffffffffffffffffffff1673ffffffffffffffffffffffffffffffffffffffff16815260200190815260200160002054905092915050565b6000600954905090565b611ba2611daa565b73ffffffffffffffffffffffffffffffffffffffff16600760009054906101000a900473ffffffffffffffffffffffffffffffffffffffff1673ffffffffffffffffffffffffffffffffffffffff1614611c64576040517f08c379a00000000000000000000000000000000000000000000000000000000081526004018080602001828103825260208152602001807f4f776e61626c653a2063616c6c6572206973206e6f7420746865206f776e657281525060200191505060405180910390fd5b600073ffffffffffffffffffffffffffffffffffffffff168173ffffffffffffffffffffffffffffffffffffffff161415611cea576040517f08c379a0000000000000000000000000000000000000000000000000000000008152600401808060200182810382526026815260200180612a266026913960400191505060405180910390fd5b8073ffffffffffffffffffffffffffffffffffffffff16600760009054906101000a900473ffffffffffffffffffffffffffffffffffffffff1673ffffffffffffffffffffffffffffffffffffffff167f8be0079c531659141344cd1fd0a4f28419497f9722a3daafe3b4186f6b6457e060405160405180910390a380600760006101000a81548173ffffffffffffffffffffffffffffffffffffffff021916908373ffffffffffffffffffffffffffffffffffffffff16021790555050565b600033905090565b600073ffffffffffffffffffffffffffffffffffffffff168373ffffffffffffffffffffffffffffffffffffffff161415611e38576040517f08c379a0000000000000000000000000000000000000000000000000000000008152600401808060200182810382526024815260200180612b506024913960400191505060405180910390fd5b600073ffffffffffffffffffffffffffffffffffffffff168273ffffffffffffffffffffffffffffffffffffffff161415611ebe576040517f08c379a0000000000000000000000000000000000000000000000000000000008152600401808060200182810382526022815260200180612a4c6022913960400191505060405180910390fd5b80600160008573ffffffffffffffffffffffffffffffffffffffff1673ffffffffffffffffffffffffffffffffffffffff16815260200190815260200160002060008473ffffffffffffffffffffffffffffffffffffffff1673ffffffffffffffffffffffffffffffffffffffff168152602001908152602001600020819055508173ffffffffffffffffffffffffffffffffffffffff168373ffffffffffffffffffffffffffffffffffffffff167f8c5be1e5ebec7d5bd14f71427d1e84f3dd0314c0f7b2291e5b200ac8c7c3b925836040518082815260200191505060405180910390a3505050565b6000611fb6848484612573565b61207784611fc2611daa565b61207285604051806060016040528060288152602001612ab560289139600160008b73ffffffffffffffffffffffffffffffffffffffff1673ffffffffffffffffffffffffffffffffffffffff1681526020019081526020016000206000612028611daa565b73ffffffffffffffffffffffffffffffffffffffff1673ffffffffffffffffffffffffffffffffffffffff168152602001908152602001600020546122ce9092919063ffffffff16565b611db2565b600190509392505050565b600080828401905083811015612100576040517f08c379a000000000000000000000000000000000000000000000000000000000815260040180806020018281038252601b8152602001807f536166654d6174683a206164646974696f6e206f766572666c6f77000000000081525060200191505060405180910390fd5b8091505092915050565b600073ffffffffffffffffffffffffffffffffffffffff168273ffffffffffffffffffffffffffffffffffffffff161415612190576040517f08c379a0000000000000000000000000000000000000000000000000000000008152600401808060200182810382526021815260200180612b0a6021913960400191505060405180910390fd5b61219c82600083612834565b61220781604051806060016040528060228152602001612a04602291396000808673ffffffffffffffffffffffffffffffffffffffff1673ffffffffffffffffffffffffffffffffffffffff168152602001908152602001600020546122ce9092919063ffffffff16565b6000808473ffffffffffffffffffffffffffffffffffffffff1673ffffffffffffffffffffffffffffffffffffffff1681526020019081526020016000208190555061225e8160025461290b90919063ffffffff16565b600281905550600073ffffffffffffffffffffffffffffffffffffffff168273ffffffffffffffffffffffffffffffffffffffff167fddf252ad1be2c89b69c2b068fc378daa952ba7f163c4a11628f55a4df523b3ef836040518082815260200191505060405180910390a35050565b600083831115829061237b576040517f08c379a00000000000000000000000000000000000000000000000000000000081526004018080602001828103825283818151815260200191508051906020019080838360005b83811015612340578082015181840152602081019050612325565b50505050905090810190601f16801561236d5780820380516001836020036101000a031916815260200191505b509250505060405180910390fd5b5060008385039050809150509392505050565b60006123a261239b611daa565b8484612573565b6001905092915050565b600073ffffffffffffffffffffffffffffffffffffffff168273ffffffffffffffffffffffffffffffffffffffff16141561244f576040517f08c379a000000000000000000000000000000000000000000000000000000000815260040180806020018281038252601f8152602001807f45524332303a206d696e7420746f20746865207a65726f20616464726573730081525060200191505060405180910390fd5b61245b60008383612834565b6124708160025461208290919063ffffffff16565b6002819055506124c7816000808573ffffffffffffffffffffffffffffffffffffffff1673ffffffffffffffffffffffffffffffffffffffff1681526020019081526020016000205461208290919063ffffffff16565b6000808473ffffffffffffffffffffffffffffffffffffffff1673ffffffffffffffffffffffffffffffffffffffff168152602001908152602001600020819055508173ffffffffffffffffffffffffffffffffffffffff16600073ffffffffffffffffffffffffffffffffffffffff167fddf252ad1be2c89b69c2b068fc378daa952ba7f163c4a11628f55a4df523b3ef836040518082815260200191505060405180910390a35050565b600073ffffffffffffffffffffffffffffffffffffffff168373ffffffffffffffffffffffffffffffffffffffff1614156125f9576040517f08c379a0000000000000000000000000000000000000000000000000000000008152600401808060200182810382526025815260200180612b2b6025913960400191505060405180910390fd5b600073ffffffffffffffffffffffffffffffffffffffff168273ffffffffffffffffffffffffffffffffffffffff16141561267f576040517f08c379a00000000000000000000000000000000000000000000000000000000081526004018080602001828103825260238152602001806129e16023913960400191505060405180910390fd5b61268a838383612834565b6126f581604051806060016040528060268152602001612a6e602691396000808773ffffffffffffffffffffffffffffffffffffffff1673ffffffffffffffffffffffffffffffffffffffff168152602001908152602001600020546122ce9092919063ffffffff16565b6000808573ffffffffffffffffffffffffffffffffffffffff1673ffffffffffffffffffffffffffffffffffffffff16815260200190815260200160002081905550612788816000808573ffffffffffffffffffffffffffffffffffffffff1673ffffffffffffffffffffffffffffffffffffffff1681526020019081526020016000205461208290919063ffffffff16565b6000808473ffffffffffffffffffffffffffffffffffffffff1673ffffffffffffffffffffffffffffffffffffffff168152602001908152602001600020819055508173ffffffffffffffffffffffffffffffffffffffff168373ffffffffffffffffffffffffffffffffffffffff167fddf252ad1be2c89b69c2b068fc378daa952ba7f163c4a11628f55a4df523b3ef836040518082815260200191505060405180910390a3505050565b61283f838383612955565b600073ffffffffffffffffffffffffffffffffffffffff168373ffffffffffffffffffffffffffffffffffffffff1614156129065760065461289182612883610a4e565b61208290919063ffffffff16565b1115612905576040517f08c379a00000000000000000000000000000000000000000000000000000000081526004018080602001828103825260198152602001807f45524332304361707065643a206361702065786365656465640000000000000081525060200191505060405180910390fd5b5b505050565b600061294d83836040518060400160405280601e81526020017f536166654d6174683a207375627472616374696f6e206f766572666c6f7700008152506122ce565b905092915050565b505050565b60008083141561296d57600090506129da565b600082840290508284828161297e57fe5b04146129d5576040517f08c379a0000000000000000000000000000000000000000000000000000000008152600401808060200182810382526021815260200180612a946021913960400191505060405180910390fd5b809150505b9291505056fe45524332303a207472616e7366657220746f20746865207a65726f206164647265737345524332303a206275726e20616d6f756e7420657863656564732062616c616e63654f776e61626c653a206e6577206f776e657220697320746865207a65726f206164647265737345524332303a20617070726f766520746f20746865207a65726f206164647265737345524332303a207472616e7366657220616d6f756e7420657863656564732062616c616e6365536166654d6174683a206d756c7469706c69636174696f6e206f766572666c6f7745524332303a207472616e7366657220616d6f756e74206578636565647320616c6c6f77616e6365416d6f756e74206e6565647320746f2062652067726561746572207468616e206d696e57726170416d6f756e7445524332303a206275726e2066726f6d20746865207a65726f206164647265737345524332303a207472616e736665722066726f6d20746865207a65726f206164647265737345524332303a20617070726f76652066726f6d20746865207a65726f206164647265737345524332303a2064656372656173656420616c6c6f77616e63652062656c6f77207a65726fa26469706673582212204a6c5056ac25635bc9bf41d41c34950adec05e2820a99824e53991557628cd7c64736f6c63430006000033536166654d6174683a206d756c7469706c69636174696f6e206f766572666c6f77",
  "source": "pragma solidity 0.6.0;\r\n\r\nimport '@openzeppelin/contracts/token/ERC20/ERC20.sol';\r\nimport '@openzeppelin/contracts/token/ERC20/ERC20Capped.sol';\r\nimport '@openzeppelin/contracts/access/Ownable.sol';\r\nimport '@openzeppelin/contracts/math/SafeMath.sol';\r\nimport './wCHXMapping.sol';\r\n\r\ncontract wCHXToken is ERC20Capped, Ownable {\r\n    using SafeMath for uint;\r\n    event UnwrapChx(address ethAddress, string chxAddress, uint amount);\r\n\r\n    wCHXMapping public addressMapping;\r\n    uint private _minWrapAmount;\r\n\r\n    constructor(address _mappingContractAddress)\r\n        ERC20(\"Wrapped CHX\", \"wCHX\")\r\n        ERC20Capped(uint(1689565220930844))\r\n        public\r\n    {\r\n        addressMapping = wCHXMapping(_mappingContractAddress);\r\n        _setupDecimals(7);\r\n        _minWrapAmount = uint(1000).mul(1e7);\r\n    }\r\n\r\n    function minWrapAmount() \r\n        public \r\n        view \r\n        returns (uint) \r\n    {\r\n        return _minWrapAmount;\r\n    }\r\n\r\n    ////////////////////////////////////////////////////////////////////////////////////////////////////\r\n    // Transfers\r\n    ////////////////////////////////////////////////////////////////////////////////////////////////////\r\n\r\n    function transfer(address _recipient, uint _amount)\r\n        public\r\n        override\r\n        returns (bool)\r\n    {\r\n        require(_recipient != address(this));\r\n        if (_recipient == owner()) {\r\n            require(_amount >= _minWrapAmount, \"Amount needs to be greater than minWrapAmount\");\r\n            string memory chxAddress = addressMapping.chxAddress(_msgSender());\r\n            require(bytes(chxAddress).length != 0);\r\n            emit UnwrapChx(_msgSender(), chxAddress, _amount);\r\n        }\r\n\r\n        return super.transfer(_recipient, _amount);\r\n    }\r\n\r\n    function transferFrom(address _sender, address _recipient, uint256 _amount)\r\n        public\r\n        override\r\n        returns (bool)\r\n    {\r\n        require(_recipient != address(this));\r\n        if (_recipient == owner()) {\r\n            require(_amount >= _minWrapAmount, \"Amount needs to be greater than minWrapAmount\");\r\n            string memory chxAddress = addressMapping.chxAddress(_sender);\r\n            require(bytes(chxAddress).length != 0);\r\n            emit UnwrapChx(_sender, chxAddress, _amount);\r\n        }\r\n\r\n        return super.transferFrom(_sender, _recipient, _amount);\r\n    }\r\n\r\n    ////////////////////////////////////////////////////////////////////////////////////////////////////\r\n    // Wrapping logic\r\n    ////////////////////////////////////////////////////////////////////////////////////////////////////\r\n\r\n    function burn(uint _amount)\r\n        public\r\n        onlyOwner\r\n    {\r\n        _burn(owner(), _amount);\r\n    }\r\n\r\n    function wrap(address _recipient, uint _amount)\r\n        public\r\n        onlyOwner\r\n    {\r\n        string memory chxAddress = addressMapping.chxAddress(_recipient);\r\n        require(bytes(chxAddress).length != 0);\r\n\r\n        _mint(owner(), _amount);\r\n        transfer(_recipient, _amount);\r\n    }\r\n\r\n    function setMinWrapAmount(uint _amount)\r\n        public\r\n        onlyOwner\r\n    {\r\n        _minWrapAmount = _amount;\r\n    }\r\n\r\n    ////////////////////////////////////////////////////////////////////////////////////////////////////\r\n    // Miscellaneous\r\n    ////////////////////////////////////////////////////////////////////////////////////////////////////\r\n\r\n    // Enable recovery of ether sent by mistake to this contract's address.\r\n    function drainStrayEther(uint _amount)\r\n        external\r\n        onlyOwner\r\n        returns (bool)\r\n    {\r\n        payable(owner()).transfer(_amount);\r\n        return true;\r\n    }\r\n\r\n    // Enable recovery of any ERC20 compatible token sent by mistake to this contract's address.\r\n    function drainStrayTokens(IERC20 _token, uint _amount)\r\n        external\r\n        onlyOwner\r\n        returns (bool)\r\n    {\r\n        return _token.transfer(owner(), _amount);\r\n    }\r\n}\r\n",
  "sourcePath": "C:/Users/User/Source/Repos/IBCSmartContracts/src/contracts/wCHXToken.sol",
  "compiler": {
    "name": "solc",
    "version": "0.6.0+commit.26b70077.Emscripten.clang"
  },
  "schemaVersion": "3.3.3",
  "updatedAt": "2021-01-28T17:49:11.433Z",
  "devdoc": {
    "methods": {
      "allowance(address,address)": {
        "details": "See {IERC20-allowance}."
      },
      "approve(address,uint256)": {
        "details": "See {IERC20-approve}.     * Requirements:     * - `spender` cannot be the zero address."
      },
      "balanceOf(address)": {
        "details": "See {IERC20-balanceOf}."
      },
      "cap()": {
        "details": "Returns the cap on the token's total supply."
      },
      "decimals()": {
        "details": "Returns the number of decimals used to get its user representation. For example, if `decimals` equals `2`, a balance of `505` tokens should be displayed to a user as `5,05` (`505 / 10 ** 2`).     * Tokens usually opt for a value of 18, imitating the relationship between Ether and Wei. This is the value {ERC20} uses, unless {_setupDecimals} is called.     * NOTE: This information is only used for _display_ purposes: it in no way affects any of the arithmetic of the contract, including {IERC20-balanceOf} and {IERC20-transfer}."
      },
      "decreaseAllowance(address,uint256)": {
        "details": "Atomically decreases the allowance granted to `spender` by the caller.     * This is an alternative to {approve} that can be used as a mitigation for problems described in {IERC20-approve}.     * Emits an {Approval} event indicating the updated allowance.     * Requirements:     * - `spender` cannot be the zero address. - `spender` must have allowance for the caller of at least `subtractedValue`."
      },
      "increaseAllowance(address,uint256)": {
        "details": "Atomically increases the allowance granted to `spender` by the caller.     * This is an alternative to {approve} that can be used as a mitigation for problems described in {IERC20-approve}.     * Emits an {Approval} event indicating the updated allowance.     * Requirements:     * - `spender` cannot be the zero address."
      },
      "name()": {
        "details": "Returns the name of the token."
      },
      "owner()": {
        "details": "Returns the address of the current owner."
      },
      "renounceOwnership()": {
        "details": "Leaves the contract without owner. It will not be possible to call `onlyOwner` functions anymore. Can only be called by the current owner.     * NOTE: Renouncing ownership will leave the contract without an owner, thereby removing any functionality that is only available to the owner."
      },
      "symbol()": {
        "details": "Returns the symbol of the token, usually a shorter version of the name."
      },
      "totalSupply()": {
        "details": "See {IERC20-totalSupply}."
      },
      "transferOwnership(address)": {
        "details": "Transfers ownership of the contract to a new account (`newOwner`). Can only be called by the current owner."
      }
    }
  },
  "userdoc": {
    "methods": {
      "burn(uint256)": {
        "notice": "/////////////////////////////////////////////////////////////////////////////////////////////////"
      },
      "drainStrayEther(uint256)": {
        "notice": "/////////////////////////////////////////////////////////////////////////////////////////////////"
      },
      "transfer(address,uint256)": {
        "notice": "/////////////////////////////////////////////////////////////////////////////////////////////////"
      }
    }
  }
}